{
  "_format": "hh-sol-artifact-1",
  "contractName": "Lootery",
  "sourceName": "contracts/Lootery.sol",
  "abi": [
    {
      "inputs": [],
      "stateMutability": "nonpayable",
      "type": "constructor"
    },
    {
      "inputs": [
        {
          "internalType": "address",
          "name": "target",
          "type": "address"
        }
      ],
      "name": "AddressEmptyCode",
      "type": "error"
    },
    {
      "inputs": [
        {
          "internalType": "address",
          "name": "account",
          "type": "address"
        }
      ],
      "name": "AddressInsufficientBalance",
      "type": "error"
    },
    {
      "inputs": [
        {
          "internalType": "address",
          "name": "caller",
          "type": "address"
        }
      ],
      "name": "CallerNotRandomiser",
      "type": "error"
    },
    {
      "inputs": [
        {
          "internalType": "uint256",
          "name": "tokenId",
          "type": "uint256"
        }
      ],
      "name": "ClaimWindowMissed",
      "type": "error"
    },
    {
      "inputs": [
        {
          "internalType": "address",
          "name": "sender",
          "type": "address"
        },
        {
          "internalType": "uint256",
          "name": "tokenId",
          "type": "uint256"
        },
        {
          "internalType": "address",
          "name": "owner",
          "type": "address"
        }
      ],
      "name": "ERC721IncorrectOwner",
      "type": "error"
    },
    {
      "inputs": [
        {
          "internalType": "address",
          "name": "operator",
          "type": "address"
        },
        {
          "internalType": "uint256",
          "name": "tokenId",
          "type": "uint256"
        }
      ],
      "name": "ERC721InsufficientApproval",
      "type": "error"
    },
    {
      "inputs": [
        {
          "internalType": "address",
          "name": "approver",
          "type": "address"
        }
      ],
      "name": "ERC721InvalidApprover",
      "type": "error"
    },
    {
      "inputs": [
        {
          "internalType": "address",
          "name": "operator",
          "type": "address"
        }
      ],
      "name": "ERC721InvalidOperator",
      "type": "error"
    },
    {
      "inputs": [
        {
          "internalType": "address",
          "name": "owner",
          "type": "address"
        }
      ],
      "name": "ERC721InvalidOwner",
      "type": "error"
    },
    {
      "inputs": [
        {
          "internalType": "address",
          "name": "receiver",
          "type": "address"
        }
      ],
      "name": "ERC721InvalidReceiver",
      "type": "error"
    },
    {
      "inputs": [
        {
          "internalType": "address",
          "name": "sender",
          "type": "address"
        }
      ],
      "name": "ERC721InvalidSender",
      "type": "error"
    },
    {
      "inputs": [
        {
          "internalType": "uint256",
          "name": "tokenId",
          "type": "uint256"
        }
      ],
      "name": "ERC721NonexistentToken",
      "type": "error"
    },
    {
      "inputs": [],
      "name": "FailedInnerCall",
      "type": "error"
    },
    {
      "inputs": [],
      "name": "GameAlreadyDrawn",
      "type": "error"
    },
    {
      "inputs": [],
      "name": "GameInactive",
      "type": "error"
    },
    {
      "inputs": [
        {
          "internalType": "uint256",
          "name": "paid",
          "type": "uint256"
        },
        {
          "internalType": "uint256",
          "name": "expected",
          "type": "uint256"
        }
      ],
      "name": "IncorrectPaymentAmount",
      "type": "error"
    },
    {
      "inputs": [
        {
          "internalType": "uint256",
          "name": "have",
          "type": "uint256"
        },
        {
          "internalType": "uint256",
          "name": "want",
          "type": "uint256"
        }
      ],
      "name": "InsufficientOperationalFunds",
      "type": "error"
    },
    {
      "inputs": [],
      "name": "InsufficientRandomWords",
      "type": "error"
    },
    {
      "inputs": [
        {
          "internalType": "uint256",
          "name": "ballValue",
          "type": "uint256"
        }
      ],
      "name": "InvalidBallValue",
      "type": "error"
    },
    {
      "inputs": [
        {
          "internalType": "uint256",
          "name": "gamePeriod",
          "type": "uint256"
        }
      ],
      "name": "InvalidGamePeriod",
      "type": "error"
    },
    {
      "inputs": [],
      "name": "InvalidInitialization",
      "type": "error"
    },
    {
      "inputs": [],
      "name": "InvalidInputs",
      "type": "error"
    },
    {
      "inputs": [
        {
          "internalType": "uint256",
          "name": "numPicks",
          "type": "uint256"
        }
      ],
      "name": "InvalidNumPicks",
      "type": "error"
    },
    {
      "inputs": [
        {
          "internalType": "address",
          "name": "prizeToken",
          "type": "address"
        }
      ],
      "name": "InvalidPrizeToken",
      "type": "error"
    },
    {
      "inputs": [
        {
          "internalType": "address",
          "name": "randomiser",
          "type": "address"
        }
      ],
      "name": "InvalidRandomiser",
      "type": "error"
    },
    {
      "inputs": [
        {
          "internalType": "uint256",
          "name": "ticketPrice",
          "type": "uint256"
        }
      ],
      "name": "InvalidTicketPrice",
      "type": "error"
    },
    {
      "inputs": [
        {
          "internalType": "uint256",
          "name": "pickId",
          "type": "uint256"
        },
        {
          "internalType": "uint256",
          "name": "winningPickId",
          "type": "uint256"
        }
      ],
      "name": "NoWin",
      "type": "error"
    },
    {
      "inputs": [],
      "name": "NotInitializing",
      "type": "error"
    },
    {
      "inputs": [
        {
          "internalType": "address",
          "name": "owner",
          "type": "address"
        }
      ],
      "name": "OwnableInvalidOwner",
      "type": "error"
    },
    {
      "inputs": [
        {
          "internalType": "address",
          "name": "account",
          "type": "address"
        }
      ],
      "name": "OwnableUnauthorizedAccount",
      "type": "error"
    },
    {
      "inputs": [
        {
          "internalType": "uint256",
          "name": "secondsToWait",
          "type": "uint256"
        }
      ],
      "name": "RateLimited",
      "type": "error"
    },
    {
      "inputs": [
        {
          "internalType": "uint256",
          "name": "requestId",
          "type": "uint256"
        },
        {
          "internalType": "uint256",
          "name": "timestamp",
          "type": "uint256"
        }
      ],
      "name": "RequestAlreadyInFlight",
      "type": "error"
    },
    {
      "inputs": [
        {
          "internalType": "uint256",
          "name": "actual",
          "type": "uint256"
        },
        {
          "internalType": "uint208",
          "name": "expected",
          "type": "uint208"
        }
      ],
      "name": "RequestIdMismatch",
      "type": "error"
    },
    {
      "inputs": [
        {
          "internalType": "uint256",
          "name": "requestId",
          "type": "uint256"
        }
      ],
      "name": "RequestIdOverflow",
      "type": "error"
    },
    {
      "inputs": [
        {
          "internalType": "address",
          "name": "token",
          "type": "address"
        }
      ],
      "name": "SafeERC20FailedOperation",
      "type": "error"
    },
    {
      "inputs": [
        {
          "internalType": "uint256",
          "name": "value",
          "type": "uint256"
        }
      ],
      "name": "TicketsSoldOverflow",
      "type": "error"
    },
    {
      "inputs": [
        {
          "internalType": "address",
          "name": "to",
          "type": "address"
        },
        {
          "internalType": "uint256",
          "name": "value",
          "type": "uint256"
        },
        {
          "internalType": "bytes",
          "name": "reason",
          "type": "bytes"
        }
      ],
      "name": "TransferFailure",
      "type": "error"
    },
    {
      "inputs": [
        {
          "internalType": "enum Lootery.GameState",
          "name": "actual",
          "type": "uint8"
        },
        {
          "internalType": "enum Lootery.GameState",
          "name": "expected",
          "type": "uint8"
        }
      ],
      "name": "UnexpectedState",
      "type": "error"
    },
    {
      "inputs": [
        {
          "internalType": "uint8[]",
          "name": "picks",
          "type": "uint8[]"
        }
      ],
      "name": "UnsortedPicks",
      "type": "error"
    },
    {
      "inputs": [
        {
          "internalType": "uint256",
          "name": "deadline",
          "type": "uint256"
        }
      ],
      "name": "WaitLonger",
      "type": "error"
    },
    {
      "anonymous": false,
      "inputs": [
        {
          "indexed": true,
          "internalType": "address",
          "name": "owner",
          "type": "address"
        },
        {
          "indexed": true,
          "internalType": "address",
          "name": "approved",
          "type": "address"
        },
        {
          "indexed": true,
          "internalType": "uint256",
          "name": "tokenId",
          "type": "uint256"
        }
      ],
      "name": "Approval",
      "type": "event"
    },
    {
      "anonymous": false,
      "inputs": [
        {
          "indexed": true,
          "internalType": "address",
          "name": "owner",
          "type": "address"
        },
        {
          "indexed": true,
          "internalType": "address",
          "name": "operator",
          "type": "address"
        },
        {
          "indexed": false,
          "internalType": "bool",
          "name": "approved",
          "type": "bool"
        }
      ],
      "name": "ApprovalForAll",
      "type": "event"
    },
    {
      "anonymous": false,
      "inputs": [
        {
          "indexed": true,
          "internalType": "uint256",
          "name": "tokenId",
          "type": "uint256"
        },
        {
          "indexed": true,
          "internalType": "uint256",
          "name": "gameId",
          "type": "uint256"
        },
        {
          "indexed": false,
          "internalType": "address",
          "name": "whomst",
          "type": "address"
        },
        {
          "indexed": false,
          "internalType": "uint256",
          "name": "value",
          "type": "uint256"
        }
      ],
      "name": "ConsolationClaimed",
      "type": "event"
    },
    {
      "anonymous": false,
      "inputs": [
        {
          "indexed": true,
          "internalType": "uint256",
          "name": "gameId",
          "type": "uint256"
        }
      ],
      "name": "DrawSkipped",
      "type": "event"
    },
    {
      "anonymous": false,
      "inputs": [
        {
          "indexed": false,
          "internalType": "uint256",
          "name": "gameId",
          "type": "uint256"
        },
        {
          "indexed": false,
          "internalType": "uint8[]",
          "name": "winningPicks",
          "type": "uint8[]"
        }
      ],
      "name": "GameFinalised",
      "type": "event"
    },
    {
      "anonymous": false,
      "inputs": [
        {
          "indexed": false,
          "internalType": "uint64",
          "name": "version",
          "type": "uint64"
        }
      ],
      "name": "Initialized",
      "type": "event"
    },
    {
      "anonymous": false,
      "inputs": [
        {
          "indexed": true,
          "internalType": "address",
          "name": "whomst",
          "type": "address"
        },
        {
          "indexed": false,
          "internalType": "uint256",
          "name": "amount",
          "type": "uint256"
        }
      ],
      "name": "JackpotSeeded",
      "type": "event"
    },
    {
      "anonymous": false,
      "inputs": [
        {
          "indexed": true,
          "internalType": "address",
          "name": "previousOwner",
          "type": "address"
        },
        {
          "indexed": true,
          "internalType": "address",
          "name": "newOwner",
          "type": "address"
        }
      ],
      "name": "OwnershipTransferred",
      "type": "event"
    },
    {
      "anonymous": false,
      "inputs": [
        {
          "indexed": false,
          "internalType": "address",
          "name": "sender",
          "type": "address"
        },
        {
          "indexed": false,
          "internalType": "uint256",
          "name": "amount",
          "type": "uint256"
        }
      ],
      "name": "Received",
      "type": "event"
    },
    {
      "anonymous": false,
      "inputs": [
        {
          "indexed": true,
          "internalType": "uint256",
          "name": "gameId",
          "type": "uint256"
        },
        {
          "indexed": true,
          "internalType": "address",
          "name": "whomst",
          "type": "address"
        },
        {
          "indexed": true,
          "internalType": "uint256",
          "name": "tokenId",
          "type": "uint256"
        },
        {
          "indexed": false,
          "internalType": "uint8[]",
          "name": "picks",
          "type": "uint8[]"
        }
      ],
      "name": "TicketPurchased",
      "type": "event"
    },
    {
      "anonymous": false,
      "inputs": [
        {
          "indexed": true,
          "internalType": "address",
          "name": "from",
          "type": "address"
        },
        {
          "indexed": true,
          "internalType": "address",
          "name": "to",
          "type": "address"
        },
        {
          "indexed": true,
          "internalType": "uint256",
          "name": "tokenId",
          "type": "uint256"
        }
      ],
      "name": "Transfer",
      "type": "event"
    },
    {
      "anonymous": false,
      "inputs": [
        {
          "indexed": false,
          "internalType": "address",
          "name": "to",
          "type": "address"
        },
        {
          "indexed": false,
          "internalType": "uint256",
          "name": "value",
          "type": "uint256"
        }
      ],
      "name": "Transferred",
      "type": "event"
    },
    {
      "anonymous": false,
      "inputs": [
        {
          "indexed": true,
          "internalType": "uint256",
          "name": "tokenId",
          "type": "uint256"
        },
        {
          "indexed": true,
          "internalType": "uint256",
          "name": "gameId",
          "type": "uint256"
        },
        {
          "indexed": false,
          "internalType": "address",
          "name": "whomst",
          "type": "address"
        },
        {
          "indexed": false,
          "internalType": "uint256",
          "name": "value",
          "type": "uint256"
        }
      ],
      "name": "WinningsClaimed",
      "type": "event"
    },
    {
      "inputs": [],
      "name": "accruedCommunityFees",
      "outputs": [
        {
          "internalType": "uint256",
          "name": "",
          "type": "uint256"
        }
      ],
      "stateMutability": "view",
      "type": "function"
    },
    {
      "inputs": [],
      "name": "apocalypseGameId",
      "outputs": [
        {
          "internalType": "uint256",
          "name": "",
          "type": "uint256"
        }
      ],
      "stateMutability": "view",
      "type": "function"
    },
    {
      "inputs": [
        {
          "internalType": "address",
          "name": "to",
          "type": "address"
        },
        {
          "internalType": "uint256",
          "name": "tokenId",
          "type": "uint256"
        }
      ],
      "name": "approve",
      "outputs": [],
      "stateMutability": "nonpayable",
      "type": "function"
    },
    {
      "inputs": [
        {
          "internalType": "address",
          "name": "owner",
          "type": "address"
        }
      ],
      "name": "balanceOf",
      "outputs": [
        {
          "internalType": "uint256",
          "name": "",
          "type": "uint256"
        }
      ],
      "stateMutability": "view",
      "type": "function"
    },
    {
      "inputs": [
        {
          "internalType": "uint256",
          "name": "tokenId",
          "type": "uint256"
        }
      ],
      "name": "claimWinnings",
      "outputs": [],
      "stateMutability": "nonpayable",
      "type": "function"
    },
    {
      "inputs": [],
      "name": "communityFeeBps",
      "outputs": [
        {
          "internalType": "uint256",
          "name": "",
          "type": "uint256"
        }
      ],
      "stateMutability": "view",
      "type": "function"
    },
    {
      "inputs": [
        {
          "internalType": "uint256",
          "name": "randomSeed",
          "type": "uint256"
        }
      ],
      "name": "computeWinningBalls",
      "outputs": [
        {
          "internalType": "uint8[]",
          "name": "balls",
          "type": "uint8[]"
        }
      ],
      "stateMutability": "view",
      "type": "function"
    },
    {
      "inputs": [],
      "name": "currentGame",
      "outputs": [
        {
          "internalType": "enum Lootery.GameState",
          "name": "state",
          "type": "uint8"
        },
        {
          "internalType": "uint248",
          "name": "id",
          "type": "uint248"
        }
      ],
      "stateMutability": "view",
      "type": "function"
    },
    {
      "inputs": [],
      "name": "draw",
      "outputs": [],
      "stateMutability": "nonpayable",
      "type": "function"
    },
    {
      "inputs": [
        {
          "internalType": "uint256",
          "name": "gameId",
          "type": "uint256"
        }
      ],
      "name": "gameData",
      "outputs": [
        {
          "internalType": "uint64",
          "name": "ticketsSold",
          "type": "uint64"
        },
        {
          "internalType": "uint64",
          "name": "startedAt",
          "type": "uint64"
        },
        {
          "internalType": "uint256",
          "name": "winningPickId",
          "type": "uint256"
        }
      ],
      "stateMutability": "view",
      "type": "function"
    },
    {
      "inputs": [],
      "name": "gamePeriod",
      "outputs": [
        {
          "internalType": "uint256",
          "name": "",
          "type": "uint256"
        }
      ],
      "stateMutability": "view",
      "type": "function"
    },
    {
      "inputs": [
        {
          "internalType": "uint256",
          "name": "tokenId",
          "type": "uint256"
        }
      ],
      "name": "getApproved",
      "outputs": [
        {
          "internalType": "address",
          "name": "",
          "type": "address"
        }
      ],
      "stateMutability": "view",
      "type": "function"
    },
    {
      "inputs": [
        {
          "internalType": "address",
          "name": "owner_",
          "type": "address"
        },
        {
          "internalType": "string",
          "name": "name_",
          "type": "string"
        },
        {
          "internalType": "string",
          "name": "symbol_",
          "type": "string"
        },
        {
          "internalType": "uint8",
          "name": "numPicks_",
          "type": "uint8"
        },
        {
          "internalType": "uint8",
          "name": "maxBallValue_",
          "type": "uint8"
        },
        {
          "internalType": "uint256",
          "name": "gamePeriod_",
          "type": "uint256"
        },
        {
          "internalType": "uint256",
          "name": "ticketPrice_",
          "type": "uint256"
        },
        {
          "internalType": "uint256",
          "name": "communityFeeBps_",
          "type": "uint256"
        },
        {
          "internalType": "address",
          "name": "randomiser_",
          "type": "address"
        },
        {
          "internalType": "address",
          "name": "prizeToken_",
          "type": "address"
        },
        {
          "internalType": "uint256",
          "name": "seedJackpotDelay_",
          "type": "uint256"
        }
      ],
      "name": "init",
      "outputs": [],
      "stateMutability": "nonpayable",
      "type": "function"
    },
    {
      "inputs": [
        {
          "internalType": "address",
          "name": "owner",
          "type": "address"
        },
        {
          "internalType": "address",
          "name": "operator",
          "type": "address"
        }
      ],
      "name": "isApprovedForAll",
      "outputs": [
        {
          "internalType": "bool",
          "name": "",
          "type": "bool"
        }
      ],
      "stateMutability": "view",
      "type": "function"
    },
    {
      "inputs": [],
      "name": "isGameActive",
      "outputs": [
        {
          "internalType": "bool",
          "name": "",
          "type": "bool"
        }
      ],
      "stateMutability": "view",
      "type": "function"
    },
    {
      "inputs": [],
      "name": "jackpot",
      "outputs": [
        {
          "internalType": "uint256",
          "name": "",
          "type": "uint256"
        }
      ],
      "stateMutability": "view",
      "type": "function"
    },
    {
      "inputs": [],
      "name": "jackpotLastSeededAt",
      "outputs": [
        {
          "internalType": "uint256",
          "name": "",
          "type": "uint256"
        }
      ],
      "stateMutability": "view",
      "type": "function"
    },
    {
      "inputs": [],
      "name": "kill",
      "outputs": [],
      "stateMutability": "nonpayable",
      "type": "function"
    },
    {
      "inputs": [],
      "name": "maxBallValue",
      "outputs": [
        {
          "internalType": "uint8",
          "name": "",
          "type": "uint8"
        }
      ],
      "stateMutability": "view",
      "type": "function"
    },
    {
      "inputs": [],
      "name": "name",
      "outputs": [
        {
          "internalType": "string",
          "name": "",
          "type": "string"
        }
      ],
      "stateMutability": "view",
      "type": "function"
    },
    {
      "inputs": [],
      "name": "numPicks",
      "outputs": [
        {
          "internalType": "uint8",
          "name": "",
          "type": "uint8"
        }
      ],
      "stateMutability": "view",
      "type": "function"
    },
    {
      "inputs": [],
      "name": "owner",
      "outputs": [
        {
          "internalType": "address",
          "name": "",
          "type": "address"
        }
      ],
      "stateMutability": "view",
      "type": "function"
    },
    {
      "inputs": [
        {
          "internalType": "uint256",
          "name": "tokenId",
          "type": "uint256"
        }
      ],
      "name": "ownerOf",
      "outputs": [
        {
          "internalType": "address",
          "name": "",
          "type": "address"
        }
      ],
      "stateMutability": "view",
      "type": "function"
    },
    {
      "inputs": [
        {
          "components": [
            {
              "internalType": "address",
              "name": "whomst",
              "type": "address"
            },
            {
              "internalType": "uint8[]",
              "name": "picks",
              "type": "uint8[]"
            }
          ],
          "internalType": "struct Lootery.Ticket[]",
          "name": "tickets",
          "type": "tuple[]"
        }
      ],
      "name": "ownerPick",
      "outputs": [],
      "stateMutability": "nonpayable",
      "type": "function"
    },
    {
      "inputs": [],
      "name": "prizeToken",
      "outputs": [
        {
          "internalType": "address",
          "name": "",
          "type": "address"
        }
      ],
      "stateMutability": "view",
      "type": "function"
    },
    {
      "inputs": [
        {
          "components": [
            {
              "internalType": "address",
              "name": "whomst",
              "type": "address"
            },
            {
              "internalType": "uint8[]",
              "name": "picks",
              "type": "uint8[]"
            }
          ],
          "internalType": "struct Lootery.Ticket[]",
          "name": "tickets",
          "type": "tuple[]"
        }
      ],
      "name": "purchase",
      "outputs": [],
      "stateMutability": "nonpayable",
      "type": "function"
    },
    {
      "inputs": [
        {
          "internalType": "uint256",
          "name": "tokenId",
          "type": "uint256"
        }
      ],
      "name": "purchasedTickets",
      "outputs": [
        {
          "internalType": "uint256",
          "name": "gameId",
          "type": "uint256"
        },
        {
          "internalType": "uint256",
          "name": "pickId",
          "type": "uint256"
        }
      ],
      "stateMutability": "view",
      "type": "function"
    },
    {
      "inputs": [],
      "name": "randomiser",
      "outputs": [
        {
          "internalType": "address",
          "name": "",
          "type": "address"
        }
      ],
      "stateMutability": "view",
      "type": "function"
    },
    {
      "inputs": [],
      "name": "randomnessRequest",
      "outputs": [
        {
          "internalType": "uint208",
          "name": "requestId",
          "type": "uint208"
        },
        {
          "internalType": "uint48",
          "name": "timestamp",
          "type": "uint48"
        }
      ],
      "stateMutability": "view",
      "type": "function"
    },
    {
      "inputs": [
        {
          "internalType": "uint256",
          "name": "requestId",
          "type": "uint256"
        },
        {
          "internalType": "uint256[]",
          "name": "randomWords",
          "type": "uint256[]"
        }
      ],
      "name": "receiveRandomWords",
      "outputs": [],
      "stateMutability": "nonpayable",
      "type": "function"
    },
    {
      "inputs": [],
      "name": "renounceOwnership",
      "outputs": [],
      "stateMutability": "nonpayable",
      "type": "function"
    },
    {
      "inputs": [],
      "name": "rescueETH",
      "outputs": [],
      "stateMutability": "nonpayable",
      "type": "function"
    },
    {
      "inputs": [
        {
          "internalType": "address",
          "name": "tokenAddress",
          "type": "address"
        }
      ],
      "name": "rescueTokens",
      "outputs": [],
      "stateMutability": "nonpayable",
      "type": "function"
    },
    {
      "inputs": [
        {
          "internalType": "address",
          "name": "from",
          "type": "address"
        },
        {
          "internalType": "address",
          "name": "to",
          "type": "address"
        },
        {
          "internalType": "uint256",
          "name": "tokenId",
          "type": "uint256"
        }
      ],
      "name": "safeTransferFrom",
      "outputs": [],
      "stateMutability": "nonpayable",
      "type": "function"
    },
    {
      "inputs": [
        {
          "internalType": "address",
          "name": "from",
          "type": "address"
        },
        {
          "internalType": "address",
          "name": "to",
          "type": "address"
        },
        {
          "internalType": "uint256",
          "name": "tokenId",
          "type": "uint256"
        },
        {
          "internalType": "bytes",
          "name": "data",
          "type": "bytes"
        }
      ],
      "name": "safeTransferFrom",
      "outputs": [],
      "stateMutability": "nonpayable",
      "type": "function"
    },
    {
      "inputs": [
        {
          "internalType": "uint256",
          "name": "value",
          "type": "uint256"
        }
      ],
      "name": "seedJackpot",
      "outputs": [],
      "stateMutability": "nonpayable",
      "type": "function"
    },
    {
      "inputs": [],
      "name": "seedJackpotDelay",
      "outputs": [
        {
          "internalType": "uint256",
          "name": "",
          "type": "uint256"
        }
      ],
      "stateMutability": "view",
      "type": "function"
    },
    {
      "inputs": [
        {
          "internalType": "address",
          "name": "operator",
          "type": "address"
        },
        {
          "internalType": "bool",
          "name": "approved",
          "type": "bool"
        }
      ],
      "name": "setApprovalForAll",
      "outputs": [],
      "stateMutability": "nonpayable",
      "type": "function"
    },
    {
      "inputs": [
        {
          "internalType": "bytes4",
          "name": "interfaceId",
          "type": "bytes4"
        }
      ],
      "name": "supportsInterface",
      "outputs": [
        {
          "internalType": "bool",
          "name": "",
          "type": "bool"
        }
      ],
      "stateMutability": "view",
      "type": "function"
    },
    {
      "inputs": [],
      "name": "symbol",
      "outputs": [
        {
          "internalType": "string",
          "name": "",
          "type": "string"
        }
      ],
      "stateMutability": "view",
      "type": "function"
    },
    {
      "inputs": [],
      "name": "ticketPrice",
      "outputs": [
        {
          "internalType": "uint256",
          "name": "",
          "type": "uint256"
        }
      ],
      "stateMutability": "view",
      "type": "function"
    },
    {
      "inputs": [
        {
          "internalType": "uint256",
          "name": "gameId",
          "type": "uint256"
        },
        {
          "internalType": "uint256",
          "name": "id",
          "type": "uint256"
        },
        {
          "internalType": "uint256",
          "name": "",
          "type": "uint256"
        }
      ],
      "name": "tokenByPickIdentity",
      "outputs": [
        {
          "internalType": "uint256",
          "name": "",
          "type": "uint256"
        }
      ],
      "stateMutability": "view",
      "type": "function"
    },
    {
      "inputs": [
        {
          "internalType": "uint256",
          "name": "tokenId",
          "type": "uint256"
        }
      ],
      "name": "tokenURI",
      "outputs": [
        {
          "internalType": "string",
          "name": "",
          "type": "string"
        }
      ],
      "stateMutability": "view",
      "type": "function"
    },
    {
      "inputs": [
        {
          "internalType": "address",
          "name": "from",
          "type": "address"
        },
        {
          "internalType": "address",
          "name": "to",
          "type": "address"
        },
        {
          "internalType": "uint256",
          "name": "tokenId",
          "type": "uint256"
        }
      ],
      "name": "transferFrom",
      "outputs": [],
      "stateMutability": "nonpayable",
      "type": "function"
    },
    {
      "inputs": [
        {
          "internalType": "address",
          "name": "newOwner",
          "type": "address"
        }
      ],
      "name": "transferOwnership",
      "outputs": [],
      "stateMutability": "nonpayable",
      "type": "function"
    },
    {
      "inputs": [],
      "name": "withdrawAccruedFees",
      "outputs": [],
      "stateMutability": "nonpayable",
      "type": "function"
    },
    {
      "stateMutability": "payable",
      "type": "receive"
    }
  ],
  "bytecode": "0x60808060405234620000bd577ff0c57e16840df040f15088dc2f81fe391c3923bec73e23a9662efc9c229c6a009081549060ff8260401c16620000ae57506001600160401b036002600160401b03198282160162000068575b6040516140819081620000c38239f35b6001600160401b031990911681179091556040519081527fc7f505b2f371ae2175ee4913f4499e1f2633a7b5936321eed1cdaeb6115181d290602090a138808062000058565b63f92ee8a960e01b8152600490fd5b600080fdfe60806040526004361015610023575b361561001957600080fd5b610021613142565b005b60003560e01c8062ae3bf8146103025780630171984b146102fd57806301ffc9a7146102f857806302950fb9146102f357806306fdde03146102ee578063081812fc146102e9578063095ea7b3146102e45780630c0ef2b0146102df5780630eecae21146102da5780631209b1f6146102d557806318575c0c146102d057806320800a00146102cb57806323b872dd146102c6578063336f528a146102c157806338aeb836146102bc57806341c0e1b5146102b757806342842e0e146102b25780635f2bdd25146102ad57806360b663bb146102a85780636352211e146102a3578063677bd9ff1461029e5780636b31ee011461029957806370a0823114610294578063715018a61461028f5780638bba01741461028a5780638da5cb5b1461028557806395d89b4114610280578063a0c4615c1461027b578063a14916d914610276578063a22cb46514610271578063ab69dd081461026c578063ada82c7d14610267578063ae46631314610262578063b13042511461025d578063b88d4fde14610258578063c87b56dd14610253578063ccaf237f1461024e578063d0ef024a14610249578063d20831af14610244578063e02ae8ce1461023f578063e0a4ddc91461023a578063e985e9c514610235578063efe2f0eb14610230578063f2fde38b1461022b578063f694c26c146102265763fe4417520361000e57611f20565b611c1b565b611bee565b611ba9565b611b31565b611afe565b611a87565b611a69565b611a42565b6119f4565b61192b565b6118bd565b6117a7565b611789565b611753565b6113d5565b6112bc565b611294565b610fcc565b610ed5565b610e8f565b610e71565b610df5565b610d51565b610d33565b610d17565b610ce8565b610cb8565b610c6d565b610c3a565b610b5e565b610b0a565b610ab0565b610a99565b6109f0565b6109cc565b6109ae565b610995565b610970565b610808565b6107aa565b6106a1565b610527565b61046d565b61043d565b61033b565b6001600160a01b0381160361031857565b600080fd5b610104359061032b82610307565b565b610124359061032b82610307565b34610318576020366003190112610318576001600160a01b0360043561036081610307565b61036861317a565b6040517f70a082310000000000000000000000000000000000000000000000000000000081523060048201529116602082602481845afa9081156104385761002192600092610407575b50816103d56103c96003546001600160a01b031690565b6001600160a01b031690565b82146103e4575b5033906131dd565b6104009192506103f790600e5490611ff6565b60095490611ff6565b90386103dc565b61042a91925060203d602011610431575b610422818361181b565b810190611fb6565b90386103b2565b503d610418565b611fc5565b34610318576000366003190112610318576020600554604051908152f35b6001600160e01b031981160361031857565b346103185760203660031901126103185760206001600160e01b03196004356104958161045b565b167f80ac58cd0000000000000000000000000000000000000000000000000000000081149081156104fd575b81156104d3575b506040519015158152f35b7f01ffc9a700000000000000000000000000000000000000000000000000000000915014386104c8565b7f5b5e139f00000000000000000000000000000000000000000000000000000000811491506104c1565b3461031857602036600319011261031857600435610543613237565b60085460ff1661055281610c8b565b806106305750601054600654610568818361205d565b42106105de578261057842601055565b61058c6105878260095461205d565b600955565b6105ae816105a56103c96003546001600160a01b031690565b30903390613246565b60405190815233907f0a45ec0e27527fa1519b691bab30b4fedbc1da4b3d04ba9d3663f1696be5410490602090a2005b61062c916105f06105f592429261205d565b611ff6565b6040519182917ff015865e000000000000000000000000000000000000000000000000000000008352600483019190602083019252565b0390fd5b61062c9060405191829163cbdafbe760e01b835260048301612003565b919082519283825260005b848110610679575050826000602080949584010152601f8019910116010190565b602081830181015184830182015201610658565b90602061069e92818152019061064d565b90565b34610318576000806003193601126107a75760405190807f80bb2b638cc20bc4d0a60d66940f3ab4a00c1d7b313497ca82fb0b4ab007930080546106e48161206a565b808652926020926001928084169081156107785750600114610721575b61071d876107118189038261181b565b6040519182918261068d565b0390f35b815293507f37c58c799b6609234b945e882912ee9ad34948a1dfaa20a97485e1a7752bbf815b838510610765575050505081016020016107118261071d3880610701565b8054868601840152938201938101610747565b91505086955061071d9693506020925061071194915060ff191682840152151560051b82010192933880610701565b80fd5b34610318576020366003190112610318576004356107c7816132b5565b506000527f80bb2b638cc20bc4d0a60d66940f3ab4a00c1d7b313497ca82fb0b4ab007930460205260206001600160a01b0360406000205416604051908152f35b346103185760403660031901126103185760043561082581610307565b60243590610832826132b5565b3315158061095d575b806108fa575b6108ca5782610021936108af926001600160a01b0380861691167f8c5be1e5ebec7d5bd14f71427d1e84f3dd0314c0f7b2291e5b200ac8c7c3b925600080a46000527f80bb2b638cc20bc4d0a60d66940f3ab4a00c1d7b313497ca82fb0b4ab0079304602052604060002090565b906001600160a01b03166001600160a01b0319825416179055565b60246040517fa9fbf51f000000000000000000000000000000000000000000000000000000008152336004820152fd5b5060ff6109553361093d846001600160a01b03166000527f80bb2b638cc20bc4d0a60d66940f3ab4a00c1d7b313497ca82fb0b4ab0079305602052604060002090565b906001600160a01b0316600052602052604060002090565b541615610841565b50336001600160a01b038216141561083b565b3461031857600036600319011261031857602061098b6120a4565b6040519015158152f35b34610318576000366003190112610318576100216121a2565b34610318576000366003190112610318576020600454604051908152f35b3461031857600036600319011261031857602060ff60005460081c16604051908152f35b34610318576000806003193601126107a757610a0a61317a565b8080808047335af1610a1a61259f565b9015610a24575080f35b4761062c6040519283927f59ed55cf000000000000000000000000000000000000000000000000000000008452336004850152602484015260606044840152606483019061064d565b606090600319011261031857600435610a8581610307565b90602435610a9281610307565b9060443590565b3461031857610021610aaa36610a6d565b916125cf565b346103185760003660031901126103185760206001600160a01b0360025416604051908152f35b634e487b7160e01b600052603260045260246000fd5b8054821015610b055760005260206000200190600090565b610ad7565b346103185760603660031901126103185760443560006004358152600d602052604081206024358252602052604081209081548310156107a7576020610b508484610aed565b90546040519160031b1c8152f35b34610318576000806003193601126107a757610b7861317a565b600f54610c1057610b876120c1565b80516002811015610bfc57610b9b81610c8b565b610bd557610bcd610bc1610bbc6020610bd29401516001600160f81b031690565b61212a565b6001600160f81b031690565b600f55565b80f35b61062c9051610be381610c8b565b60405191829163cbdafbe760e01b835260048301612003565b602483634e487b7160e01b81526021600452fd5b60046040517fe76abfdd000000000000000000000000000000000000000000000000000000008152fd5b3461031857610021610c4b36610a6d565b9060405192610c59846117ff565b60008452610c688383836125cf565b61376d565b34610318576000366003190112610318576020600f54604051908152f35b60021115610c9557565b634e487b7160e01b600052602160045260246000fd5b906002821015610c955752565b34610318576000366003190112610318576040600854815190610cde8260ff8316610cab565b60081c6020820152f35b34610318576020366003190112610318576020610d066004356132b5565b6001600160a01b0360405191168152f35b34610318576020366003190112610318576100216004356128bf565b34610318576000366003190112610318576020600954604051908152f35b3461031857602036600319011261031857600435610d6e81610307565b6001600160a01b03811615610dc457610dbb6020916001600160a01b03166000527f80bb2b638cc20bc4d0a60d66940f3ab4a00c1d7b313497ca82fb0b4ab0079303602052604060002090565b54604051908152f35b60246040517f89c62b6400000000000000000000000000000000000000000000000000000000815260006004820152fd5b34610318576000806003193601126107a757610e0f61317a565b806001600160a01b037f9016d09d72d40fdae2fd8ceac6b6234c7706214fd39c1cd1e609a0528c1993008054906001600160a01b031982169055167f8be0079c531659141344cd1fd0a4f28419497f9722a3daafe3b4186f6b6457e08280a380f35b34610318576000366003190112610318576020600654604051908152f35b346103185760003660031901126103185760206001600160a01b037f9016d09d72d40fdae2fd8ceac6b6234c7706214fd39c1cd1e609a0528c1993005416604051908152f35b34610318576000806003193601126107a75760405190807f80bb2b638cc20bc4d0a60d66940f3ab4a00c1d7b313497ca82fb0b4ab00793018054610f188161206a565b808652926020926001928084169081156107785750600114610f445761071d876107118189038261181b565b815293507ff4bad0a69248f59680a4f2b3000328cec71a413447c96781cfe5996daa8c456e5b838510610f88575050505081016020016107118261071d3880610701565b8054868601840152938201938101610f6a565b9181601f840112156103185782359167ffffffffffffffff8311610318576020808501948460051b01011161031857565b34610318576040806003193601126103185760049067ffffffffffffffff908235602435838111610318576110049036908601610f9b565b9161101a6103c96002546001600160a01b031690565b330361125f5760085460ff1661102f81610c8b565b600181036112455750600a546001600160d01b031681810361120057505061105561183d565b60008082526020909101819052600a8190559482156111d95750610bd293928561108e61108861116d9561115495612b09565b35612b5e565b916110d661109e60085460081c90565b937f4a2c5dc61d8caf543cef0b699bd08678003186170a4fff91cb694c4d9c1bdcad8351806110ce848983612b12565b0390a1613464565b60016110f5856001600160f81b0316600052600c602052604060002090565b01556111286111038461212a565b61112361110e61183d565b8581526001600160f81b039092166020830152565b612142565b61114c61113361184a565b968388524216602088019067ffffffffffffffff169052565b85015261212a565b6001600160f81b0316600052600c602052604060002090565b90604060019167ffffffffffffffff8151168454908067ffffffffffffffff1983161786557fffffffffffffffffffffffffffffffff000000000000000000000000000000006fffffffffffffffff00000000000000006020850151861b169216171784550151910155565b83517fbfa32be3000000000000000000000000000000000000000000000000000000008152fd5b84517faae75cf60000000000000000000000000000000000000000000000000000000081528088019283526001600160d01b0390911660208301529081906040010390fd5b8661062c865192839263cbdafbe760e01b8452830161201d565b83517f01c096800000000000000000000000000000000000000000000000000000000081523381880190815281906020010390fd5b34610318576000366003190112610318576020600e54604051908152f35b8015150361031857565b34610318576040366003190112610318576004356112d981610307565b6024356112e5816112b2565b6001600160a01b038216918215611375576113369061093d336001600160a01b03166000527f80bb2b638cc20bc4d0a60d66940f3ab4a00c1d7b313497ca82fb0b4ab0079305602052604060002090565b9015159060ff1981541660ff83161790556040519081527f17307eab39ab6107e8899845ad3d59bd9653f200f220920489ca2b5937696c3160203392a3005b602483604051907f5b08ba180000000000000000000000000000000000000000000000000000000082526004820152fd5b6020600319820112610318576004359067ffffffffffffffff8211610318576113d191600401610f9b565b9091565b34610318576113e3366113a6565b906113ec61317a565b602061140c610bc160206113fe6120c1565b01516001600160f81b031690565b92611415613237565b61143161142c85600052600c602052604060002090565b6120ed565b9167ffffffffffffffff8061146784611462611455885167ffffffffffffffff1690565b67ffffffffffffffff1690565b61205d565b11611700576114e69061148990855167ffffffffffffffff1690851690613500565b602085015167ffffffffffffffff166114ce604080970151916114bd6114ad61184a565b67ffffffffffffffff9095168552565b67ffffffffffffffff166020840152565b8582015261116d87600052600c602052604060002090565b60009485549060ff9460ff8084169360081c1692600754966115196115148861150e8b61204f565b9a61205d565b600755565b895b878110611562578a8a8a8a835b818110611533578480f35b8061155c61154c611547600194868961351c565b61353e565b611556838761205d565b90613b83565b01611528565b8961159261158b611582848c61157c61154783838961351c565b9561351c565b8a810190613548565b369161357e565b9081518581036116e757508690898c8f805b8982106116735750506001600160a01b0386959361165a61165596946115ed60019a7f38f7010e1714c2785562f89e75c8d417cb1908bd47a9e84cf5db470ad60c44cf9661205d565b9788916116326115fc8a613464565b918261160661183d565b918b835282015261162185600052600b602052604060002090565b906020600191805184550151910155565b61164688600052600d602052604060002090565b90600052602052604060002090565b6135d6565b61166a8b51928392169582611aed565b0390a40161151b565b92509293505061168d6116868386612b4a565b5160ff1690565b908680831691168111156116cd578a106116b15760019091018c8b918a94936115a4565b8751639fb72f1760e01b815260ff919091166004820152602490fd5b8851634663ee2b60e01b81528061062c8760048301611aed565b86516367982af760e01b81526004810191909152602490fd5b61062c61171c84611462611455885167ffffffffffffffff1690565b6040519182917f300a29bf000000000000000000000000000000000000000000000000000000008352600483019190602083019252565b34610318576000806003193601126107a75761176d61317a565b610bd2600e5482600e55336001600160a01b03600354166131dd565b34610318576000366003190112610318576020600154604051908152f35b3461031857600036600319011261031857602060ff60005416604051908152f35b634e487b7160e01b600052604160045260246000fd5b6040810190811067ffffffffffffffff8211176117fa57604052565b6117c8565b6020810190811067ffffffffffffffff8211176117fa57604052565b90601f8019910116810190811067ffffffffffffffff8211176117fa57604052565b6040519061032b826117de565b604051906060820182811067ffffffffffffffff8211176117fa57604052565b67ffffffffffffffff81116117fa57601f01601f191660200190565b9291926118928261186a565b916118a0604051938461181b565b829481845281830111610318578281602093846000960137010152565b34610318576080366003190112610318576004356118da81610307565b602435906118e782610307565b6044356064359267ffffffffffffffff841161031857366023850112156103185761191f610021943690602481600401359101611886565b92610c688383836125cf565b34610318576020366003190112610318576119476004356132b5565b50604051608081019080821067ffffffffffffffff8311176117fa5761071d91604052604281527f697066733a2f2f6261666b7265696365366f3770746e666535666c6a6668657260208201527f36356c6d637673636336333469656879626d786166777637686b726b796b746d60408201527f656d000000000000000000000000000000000000000000000000000000000000606082015260405191829160208352602083019061064d565b3461031857602036600319011261031857600435600052600c60205260606040600020805490600167ffffffffffffffff9101549060405192818116845260401c1660208301526040820152f35b346103185760003660031901126103185760206001600160a01b0360035416604051908152f35b34610318576000366003190112610318576020601054604051908152f35b34610318576000366003190112610318576040600a548151906001600160d01b038116825260d01c6020820152f35b90815180825260208080930193019160005b828110611ad6575050505090565b835160ff1685529381019392810192600101611ac8565b90602061069e928181520190611ab6565b346103185760203660031901126103185761071d611b1d600435612b5e565b604051918291602083526020830190611ab6565b3461031857604036600319011261031857602060ff611b9d600435611b5581610307565b61093d60243591611b6583610307565b6001600160a01b03166000527f80bb2b638cc20bc4d0a60d66940f3ab4a00c1d7b313497ca82fb0b4ab0079305602052604060002090565b54166040519015158152f35b3461031857602036600319011261031857600435600052600b6020526040600020600181549101549061071d6040519283928360209093929193604081019481520152565b3461031857602036600319011261031857610021600435611c0e81610307565b611c1661317a565b612d05565b3461031857611c29366113a6565b906004611c3883600454612da3565b926001600160a01b03611c5385826003541630903390613246565b612710611c6260055487612da3565b04808603958611611ee057600e54908101809111611ee057600e55602090611c90610bc160206113fe6120c1565b90611c99613237565b611cb061142c83600052600c602052604060002090565b9667ffffffffffffffff9081611cd5876114626114558d5167ffffffffffffffff1690565b11611ec457611d4191611cf0610587611d059360095461205d565b895167ffffffffffffffff1690871690613500565b602089015167ffffffffffffffff16611d296040809b0151916114bd6114ad61184a565b8982015261116d84600052600c602052604060002090565b60009687549360ff808087169660081c169560075498611d6d6115148a611d678d61204f565b9c61205d565b8b5b8b8a808310611da357908c8f92835b818110611d89578480f35b80611d9d61154c611547600194868961351c565b01611d7e565b61158b611dbc848361157c61154783611dc5978961351c565b88810190613548565b908151858103611ea85750888f91888f848e955b8a8210611e34575050926116559492611e1b7f38f7010e1714c2785562f89e75c8d417cb1908bd47a9e84cf5db470ad60c44cf936115ed8a60019b9a9861205d565b611e2b8d51928392169582611aed565b0390a401611d6f565b939550809450611e4a9250611686915086612b4a565b90888083169116811115611e8f578d10611e6f57600190910191888f8d948d94611dd9565b8951639fb72f1760e01b815260ff90911681870190815281906020010390fd5b8a51634663ee2b60e01b81528061062c87828b01611aed565b88516367982af760e01b81528086019182529081906020010390fd5b61062c61171c876114626114558d5167ffffffffffffffff1690565b611fd1565b9080601f830112156103185781602061069e93359101611886565b6064359060ff8216820361031857565b6084359060ff8216820361031857565b346103185761016036600319011261031857600435611f3e81610307565b67ffffffffffffffff9060243582811161031857611f60903690600401611ee5565b60443592831161031857611f7b610021933690600401611ee5565b91611f84611f00565b92611f8d611f10565b92611f9661031d565b92611f9f61032d565b94610144359660e4359460c4359460a43594612db6565b90816020910312610318575190565b6040513d6000823e3d90fd5b634e487b7160e01b600052601160045260246000fd5b600019810191908211611ee057565b91908203918211611ee057565b6020600091939293612019816040810196610cab565b0152565b6020600191939293612019816040810196610cab565b90601e8201809211611ee057565b6001019081600111611ee057565b9060018201809211611ee057565b91908201809211611ee057565b90600182811c9216801561209a575b602083101461208457565b634e487b7160e01b600052602260045260246000fd5b91607f1691612079565b600f5480151590816120b557501590565b60088054901c10919050565b604051906120ce826117de565b8160085460ff8116906002821015610c9557602091835260081c910152565b60405167ffffffffffffffff929160608201848111838210176117fa576040916001918352839581548181168652841c1660208501520154910152565b9060016001600160f81b0380931601918211611ee057565b8051906002821015610c955760ff906020821991015160081b16911617600855565b60405190612171826117de565b600a546001600160d01b038116835260d01c6020830152565b90610e1065ffffffffffff80931601918211611ee057565b6121aa613237565b6121b26120c1565b80516121bd81610c8b565b6121c681610c8b565b610bd55760208091016121e661142c61115483516001600160f81b031690565b8083015167ffffffffffffffff169061220c60015467ffffffffffffffff80941661205d565b80421061256c57505167ffffffffffffffff1616156124f95750612238600160ff196008541617600855565b612240612164565b906001600160d01b03918261225c82516001600160d01b031690565b161515806124c8575b61245c57506122826103c96103c96002546001600160a01b031690565b6040517f10b0d1d20000000000000000000000000000000000000000000000000000000081526207a120600482015292908284602481845afa9384156104385760009461243d575b508347106124005761232583916122e042612033565b6040519687809481937f1f53cf040000000000000000000000000000000000000000000000000000000083526004830160206207a12091939293604081019481520152565b03925af1928315610438576000936123e1575b508083116123af5761032b92916123656123749261235461183d565b941684906001600160d01b03169052565b4265ffffffffffff1690830152565b7fffffffffffff000000000000000000000000000000000000000000000000000060206001600160d01b0383511692015160d01b1617600a55565b6040517fa6110e8400000000000000000000000000000000000000000000000000000000815260048101849052602490fd5b6123f9919350823d841161043157610422818361181b565b9138612338565b600e546040517f96fbe4dd000000000000000000000000000000000000000000000000000000008152600481019190915260248101859052604490fd5b612455919450833d851161043157610422818361181b565b92386122ca565b61247f8261247183516001600160d01b031690565b92015165ffffffffffff1690565b6040517f56753a960000000000000000000000000000000000000000000000000000000081526001600160d01b0392909216600483015265ffffffffffff166024820152604490fd5b506124f16124e66124e18484015165ffffffffffff1690565b61218a565b65ffffffffffff1690565b421115612265565b806125386125459361112361251b610bbc610bc196516001600160f81b031690565b61252361183d565b92600084528301906001600160f81b03169052565b516001600160f81b031690565b7ff6ca837b06142a107fde1fb0f9c3379c6d079aa7fa4de4437961f3eb61822214600080a2565b6040517f3fa5f83f0000000000000000000000000000000000000000000000000000000081526004810191909152602490fd5b3d156125ca573d906125b08261186a565b916125be604051938461181b565b82523d6000602084013e565b606090565b6001600160a01b0390818316801561286957849083612617836000527f80bb2b638cc20bc4d0a60d66940f3ab4a00c1d7b313497ca82fb0b4ab0079302602052604060002090565b54169433151580612766575b506126a49086612714575b61266a816001600160a01b03166000527f80bb2b638cc20bc4d0a60d66940f3ab4a00c1d7b313497ca82fb0b4ab0079303602052604060002090565b600181540190556108af846000527f80bb2b638cc20bc4d0a60d66940f3ab4a00c1d7b313497ca82fb0b4ab0079302602052604060002090565b847fddf252ad1be2c89b69c2b068fc378daa952ba7f163c4a11628f55a4df523b3ef600080a416918282036126d857505050565b60649350604051927f64283d7b000000000000000000000000000000000000000000000000000000008452600484015260248301526044820152fd5b61271d84613b40565b612759876001600160a01b03166000527f80bb2b638cc20bc4d0a60d66940f3ab4a00c1d7b313497ca82fb0b4ab0079303602052604060002090565b805460001901905561262e565b91925090806127d7575b1561277e5790859138612623565b858561279e57604051637e27328960e01b81526004810191909152602490fd5b6040517f177e802f0000000000000000000000000000000000000000000000000000000081523360048201526024810191909152604490fd5b50338514801561281f575b806127705750856000527f80bb2b638cc20bc4d0a60d66940f3ab4a00c1d7b313497ca82fb0b4ab007930460205233846040600020541614612770565b5060ff6128623361093d886001600160a01b03166000527f80bb2b638cc20bc4d0a60d66940f3ab4a00c1d7b313497ca82fb0b4ab0079305602052604060002090565b54166127e2565b6024604051633250574960e11b815260006004820152fd5b9060405161288e816117de565b602060018294805484520154910152565b81156128a9570490565b634e487b7160e01b600052601260045260246000fd5b906129036128f6836000527f80bb2b638cc20bc4d0a60d66940f3ab4a00c1d7b313497ca82fb0b4ab0079302602052604060002090565b546001600160a01b031690565b906001600160a01b03821615612af05761291c8361330f565b61293861293384600052600b602052604060002090565b612881565b91612948610bc160085460081c90565b612953845191611fe7565b03612abe5761297061142c8451600052600c602052604060002090565b93604085015194612990866116468751600052600d602052604060002090565b5490811580612aa9575b612a5457506020850194855187146129e85785516040517f6ddaa595000000000000000000000000000000000000000000000000000000008152600481019190915260248101889052604490fd5b90919395507f38eb4599d8dccd3edd335a3f80fea5dbaae4b6cb0db2866060f333f6796db323929450612a2b610587612a24600954948561289f565b8094611ff6565b612a35828661344e565b51604080516001600160a01b03969096168652602086019290925293a3565b7f1526f29dc67f9d8967789be9aa23179c7826c4a1c063c5834b5c4c495aaa07cb939592949650612a9e9150612a98611455600954925167ffffffffffffffff1690565b9061289f565b90612a35828661344e565b50612ab9612ab56120a4565b1590565b61299a565b6040517f2506adb500000000000000000000000000000000000000000000000000000000815260048101859052602490fd5b604051637e27328960e01b815260048101849052602490fd5b9015610b055790565b6040906001600160f81b0361069e94931681528160208201520190611ab6565b67ffffffffffffffff81116117fa5760051b60200190565b8051821015610b055760209160051b010190565b60009081549060ff8216612b7181612b32565b93604092612b82604051968761181b565b828652612b8e83612b32565b60209190601f1901368884013760ff839660081c16948515918215955b808910612bc45750505050505050505061069e90613897565b88999a919293949596979894888190612cfb575b8015612cf4575b612ccb57612bec8a613804565b6002908b82820a14600114612cc0576001016fffffffffffffffffffffffffffffffff8111612cbc5790612c20910a613804565b96855194608096878701815281818801528c6060880152828701985b8a80820691048c5b8c8c8b60048410612ca5575050905002018d811015612c3c576001959d9c969f9e949b9a50612c9a9399508e929850612c92919750612c8c612c868692612041565b60ff1690565b92612b4a565b9060ff169052565b019795929095612bab565b92849591819560019552528c8c2001069101612c44565b8980fd5b5050612c208a613804565b600485517ff34cfab6000000000000000000000000000000000000000000000000000000008152fd5b5087612bdf565b50898b1015612bd8565b6001600160a01b03809116908115612d72577f9016d09d72d40fdae2fd8ceac6b6234c7706214fd39c1cd1e609a0528c199300805490836001600160a01b03198316179055167f8be0079c531659141344cd1fd0a4f28419497f9722a3daafe3b4186f6b6457e0600080a3565b60246040517f1e4fbdf700000000000000000000000000000000000000000000000000000000815260006004820152fd5b81810292918115918404141715611ee057565b99979593919896949290987ff0c57e16840df040f15088dc2f81fe391c3923bec73e23a9662efc9c229c6a00998a549b60ff8d60401c16159c8d67ffffffffffffffff821680159182612f24575b506001149081612f1a575b159081612f11575b50612ee75767ffffffffffffffff1916600117909b55612e3b9a8c612ea657612f2c565b612e4157565b7ff0c57e16840df040f15088dc2f81fe391c3923bec73e23a9662efc9c229c6a00805468ff000000000000000019169055604051600181527fc7f505b2f371ae2175ee4913f4499e1f2633a7b5936321eed1cdaeb6115181d29080602081015b0390a1565b7ff0c57e16840df040f15088dc2f81fe391c3923bec73e23a9662efc9c229c6a00805468ff0000000000000000191668010000000000000000179055612f2c565b60046040517ff92ee8a9000000000000000000000000000000000000000000000000000000008152fd5b90501538612e17565b303b159150612e0f565b91508f612e04565b90612f3e612f4393929c9b9a9c613946565b61395a565b60ff8116156131255790612f64612f7b9260ff1660ff196000541617600055565b61ff006000549160081b169061ff00191617600055565b61025881106130f25760015580156130bf576004556005556001600160a01b03908181161561308357612fc4906001600160a01b03166001600160a01b03196002541617600255565b83161561304957612fef612ff492936001600160a01b03166001600160a01b03196003541617600355565b600655565b61032b612fff61184a565b600081524267ffffffffffffffff1660208201526000604082018190528052600c6020527f13649b2456f1b42fef0f0040b3aaeabcd21a76a0f3f5defd4f583839455116e861116d565b6040517f4d05c0480000000000000000000000000000000000000000000000000000000081526001600160a01b0384166004820152602490fd5b6040517f5e280fa50000000000000000000000000000000000000000000000000000000081526001600160a01b03919091166004820152602490fd5b6040517fb05276a50000000000000000000000000000000000000000000000000000000081526004810191909152602490fd5b6040517faf0b9fe10000000000000000000000000000000000000000000000000000000081526004810191909152602490fd5b6040516367982af760e01b815260ff919091166004820152602490fd5b604080513381523460208201527f88a5966d370b9919b20f3e2c13ff65706f196a4e32cc2c12bf57088f885258749181908101612ea1565b6001600160a01b037f9016d09d72d40fdae2fd8ceac6b6234c7706214fd39c1cd1e609a0528c199300541633036131ad57565b60246040517f118cdaa7000000000000000000000000000000000000000000000000000000008152336004820152fd5b6040517fa9059cbb0000000000000000000000000000000000000000000000000000000060208201526001600160a01b0392909216602483015260448083019390935291815261032b9161323260648361181b565b613aab565b61323f6120a4565b15610c1057565b9290604051927f23b872dd0000000000000000000000000000000000000000000000000000000060208501526001600160a01b03809216602485015216604483015260648201526064815260a081019181831067ffffffffffffffff8411176117fa5761032b92604052613aab565b806000527f80bb2b638cc20bc4d0a60d66940f3ab4a00c1d7b313497ca82fb0b4ab00793026020526001600160a01b03604060002054169081156132f7575090565b60249060405190637e27328960e01b82526004820152fd5b6001600160a01b0361334a826000527f80bb2b638cc20bc4d0a60d66940f3ab4a00c1d7b313497ca82fb0b4ab0079302602052604060002090565b541681600082159283156133c5575b61338c836000527f80bb2b638cc20bc4d0a60d66940f3ab4a00c1d7b313497ca82fb0b4ab0079302602052604060002090565b6001600160a01b031981541690557fddf252ad1be2c89b69c2b068fc378daa952ba7f163c4a11628f55a4df523b3ef8280a46132f75750565b6133f8836000527f80bb2b638cc20bc4d0a60d66940f3ab4a00c1d7b313497ca82fb0b4ab0079304602052604060002090565b6001600160a01b03198154169055613442816001600160a01b03166000527f80bb2b638cc20bc4d0a60d66940f3ab4a00c1d7b313497ca82fb0b4ab0079303602052604060002090565b82198154019055613359565b9061032b916001600160a01b03600354166131dd565b9081519161348a6134748461186a565b93613482604051958661181b565b80855261186a565b916020916020850193601f190136853760009160005b82518110156134f4577fff000000000000000000000000000000000000000000000000000000000000006134d48285612b4a565b5160f81b16841a908751811015610b055760019186828a010153016134a0565b50949250505051902090565b91909167ffffffffffffffff80809416911601918211611ee057565b9190811015610b055760051b81013590603e1981360301821215610318570190565b3561069e81610307565b903590601e1981360301821215610318570180359067ffffffffffffffff821161031857602001918160051b3603831361031857565b929161358982612b32565b91613597604051938461181b565b829481845260208094019160051b810192831161031857905b8282106135bd5750505050565b813560ff811681036103185781529083019083016135b0565b8054680100000000000000008110156117fa576135f891600182018155610aed565b819291549060031b91821b91600019901b1916179055565b90816020910312610318575161069e8161045b565b61069e93926001600160a01b03608093168252600060208301526040820152816060820152019061064d565b909261069e94936080936001600160a01b0380921684521660208301526040820152816060820152019061064d565b91823b61368c57505050565b60206136af9160405180938192630a85bd0160e11b968784523360048501613625565b038160006001600160a01b0388165af16000918161373c575b5061370757826136d661259f565b805191908261370057604051633250574960e11b81526001600160a01b0383166004820152602490fd5b9050602001fd5b6001600160e01b031916036137195750565b604051633250574960e11b81526001600160a01b03919091166004820152602490fd5b61375f91925060203d602011613766575b613757818361181b565b810190613610565b90386136c8565b503d61374d565b91929092833b61377e575b50505050565b6137a3916020916040519384928392630a85bd0160e11b978885523360048601613651565b038160006001600160a01b0388165af1600091816137e3575b506137ca57826136d661259f565b6001600160e01b03191603613719575038808080613778565b6137fd91925060203d60201161376657613757818361181b565b90386137bc565b906000916003811160011461382457151960011661381e57565b60019150565b9150600182811c810190835b84831061383c57505050565b9193508382048401811c91613830565b7f80000000000000000000000000000000000000000000000000000000000000008114611ee0576000190190565b9060018201916000600184129112908015821691151617611ee057565b9081516001905b8082106138a9575050565b60ff6138b58386612b4a565b5116926000198301600184821316611ee0575b60008112158061392e575b1561390857806138fe6138ec611686613903948a612b4a565b612c926138f88461387a565b8a612b4a565b61384c565b6138c8565b60019293919594612c9261391e6139249361387a565b87612b4a565b019092919261389e565b5061393f612c866116868389612b4a565b85106138d3565b61032b90613952613d18565b611c16613d18565b9190613964613d18565b61396c613d18565b825167ffffffffffffffff81116117fa577f80bb2b638cc20bc4d0a60d66940f3ab4a00c1d7b313497ca82fb0b4ab0079300906139b2816139ad845461206a565b613d71565b602080601f83116001146139fb575090806139e99261032b96976000926139f0575b50508160011b916000199060031b1c19161790565b9055613e93565b0151905038806139d4565b90601f19831696613a4d7f80bb2b638cc20bc4d0a60d66940f3ab4a00c1d7b313497ca82fb0b4ab00793006000527f37c58c799b6609234b945e882912ee9ad34948a1dfaa20a97485e1a7752bbf8190565b926000905b898210613a935750509083929160019461032b989910613a7a575b505050811b019055613e93565b015160001960f88460031b161c19169055388080613a6d565b80600185968294968601518155019501930190613a52565b6000806001600160a01b03613ad593169360208151910182865af1613ace61259f565b9083613fb8565b8051908115159182613b1c575b5050613aeb5750565b602490604051907f5274afe70000000000000000000000000000000000000000000000000000000082526004820152fd5b81925090602091810103126103185760200151613b38816112b2565b153880613ae2565b613b73906000527f80bb2b638cc20bc4d0a60d66940f3ab4a00c1d7b313497ca82fb0b4ab0079304602052604060002090565b6001600160a01b03198154169055565b9060405190613b91826117ff565b600082526001600160a01b03808416908115612869578290613bdc826000527f80bb2b638cc20bc4d0a60d66940f3ab4a00c1d7b313497ca82fb0b4ab0079302602052604060002090565b5416918215159283613cc6575b613c25876001600160a01b03166000527f80bb2b638cc20bc4d0a60d66940f3ab4a00c1d7b313497ca82fb0b4ab0079303602052604060002090565b60018154019055613c63876108af856000527f80bb2b638cc20bc4d0a60d66940f3ab4a00c1d7b313497ca82fb0b4ab0079302602052604060002090565b7fddf252ad1be2c89b69c2b068fc378daa952ba7f163c4a11628f55a4df523b3ef600080a4613c955761032b92613680565b60246040517f73c6ac6e00000000000000000000000000000000000000000000000000000000815260006004820152fd5b613ccf83613b40565b613d0b816001600160a01b03166000527f80bb2b638cc20bc4d0a60d66940f3ab4a00c1d7b313497ca82fb0b4ab0079303602052604060002090565b8054600019019055613be9565b60ff7ff0c57e16840df040f15088dc2f81fe391c3923bec73e23a9662efc9c229c6a005460401c1615613d4757565b60046040517fd7e6bcf8000000000000000000000000000000000000000000000000000000008152fd5b601f8111613d7d575050565b6000907f80bb2b638cc20bc4d0a60d66940f3ab4a00c1d7b313497ca82fb0b4ab00793006000527f37c58c799b6609234b945e882912ee9ad34948a1dfaa20a97485e1a7752bbf81906020601f850160051c83019410613df8575b601f0160051c01915b828110613ded57505050565b818155600101613de1565b9092508290613dd8565b601f8111613e0e575050565b6000907f80bb2b638cc20bc4d0a60d66940f3ab4a00c1d7b313497ca82fb0b4ab00793016000527ff4bad0a69248f59680a4f2b3000328cec71a413447c96781cfe5996daa8c456e906020601f850160051c83019410613e89575b601f0160051c01915b828110613e7e57505050565b818155600101613e72565b9092508290613e69565b90815167ffffffffffffffff81116117fa577f80bb2b638cc20bc4d0a60d66940f3ab4a00c1d7b313497ca82fb0b4ab007930190613eda81613ed5845461206a565b613e02565b602080601f8311600114613f1157508190613f0d9394956000926139f05750508160011b916000199060031b1c19161790565b9055565b90601f19831695613f637f80bb2b638cc20bc4d0a60d66940f3ab4a00c1d7b313497ca82fb0b4ab00793016000527ff4bad0a69248f59680a4f2b3000328cec71a413447c96781cfe5996daa8c456e90565b926000905b888210613fa057505083600195969710613f87575b505050811b019055565b015160001960f88460031b161c19169055388080613f7d565b80600185968294968601518155019501930190613f68565b90613ff75750805115613fcd57805190602001fd5b60046040517f1425ea42000000000000000000000000000000000000000000000000000000008152fd5b81511580614042575b614008575090565b6024906001600160a01b03604051917f9996b315000000000000000000000000000000000000000000000000000000008352166004820152fd5b50803b1561400056fea2646970667358221220c485083e1a9506dc09221e7348c5408a15fa6ea6914e534befd190bcd1df004764736f6c63430008170033",
  "linkReferences": {},
  "deployedLinkReferences": {}
}