{
  "_format": "hh-sol-artifact-1",
  "contractName": "LooteryFactory",
  "sourceName": "contracts/LooteryFactory.sol",
  "abi": [
    {
      "inputs": [],
      "stateMutability": "nonpayable",
      "type": "constructor"
    },
    {
      "inputs": [],
      "name": "AccessControlBadConfirmation",
      "type": "error"
    },
    {
      "inputs": [
        {
          "internalType": "address",
          "name": "account",
          "type": "address"
        },
        {
          "internalType": "bytes32",
          "name": "neededRole",
          "type": "bytes32"
        }
      ],
      "name": "AccessControlUnauthorizedAccount",
      "type": "error"
    },
    {
      "inputs": [
        {
          "internalType": "address",
          "name": "target",
          "type": "address"
        }
      ],
      "name": "AddressEmptyCode",
      "type": "error"
    },
    {
      "inputs": [],
      "name": "ERC1167FailedCreateClone",
      "type": "error"
    },
    {
      "inputs": [
        {
          "internalType": "address",
          "name": "implementation",
          "type": "address"
        }
      ],
      "name": "ERC1967InvalidImplementation",
      "type": "error"
    },
    {
      "inputs": [],
      "name": "ERC1967NonPayable",
      "type": "error"
    },
    {
      "inputs": [],
      "name": "FailedInnerCall",
      "type": "error"
    },
    {
      "inputs": [],
      "name": "InvalidInitialization",
      "type": "error"
    },
    {
      "inputs": [],
      "name": "NotInitializing",
      "type": "error"
    },
    {
      "inputs": [],
      "name": "UUPSUnauthorizedCallContext",
      "type": "error"
    },
    {
      "inputs": [
        {
          "internalType": "bytes32",
          "name": "slot",
          "type": "bytes32"
        }
      ],
      "name": "UUPSUnsupportedProxiableUUID",
      "type": "error"
    },
    {
      "anonymous": false,
      "inputs": [
        {
          "indexed": false,
          "internalType": "uint64",
          "name": "version",
          "type": "uint64"
        }
      ],
      "name": "Initialized",
      "type": "event"
    },
    {
      "anonymous": false,
      "inputs": [
        {
          "indexed": true,
          "internalType": "address",
          "name": "looteryProxy",
          "type": "address"
        },
        {
          "indexed": true,
          "internalType": "address",
          "name": "looteryImplementation",
          "type": "address"
        },
        {
          "indexed": true,
          "internalType": "address",
          "name": "deployer",
          "type": "address"
        },
        {
          "indexed": false,
          "internalType": "string",
          "name": "name",
          "type": "string"
        }
      ],
      "name": "LooteryLaunched",
      "type": "event"
    },
    {
      "anonymous": false,
      "inputs": [
        {
          "indexed": false,
          "internalType": "address",
          "name": "oldRandomiser",
          "type": "address"
        },
        {
          "indexed": false,
          "internalType": "address",
          "name": "newRandomiser",
          "type": "address"
        }
      ],
      "name": "RandomiserUpdated",
      "type": "event"
    },
    {
      "anonymous": false,
      "inputs": [
        {
          "indexed": true,
          "internalType": "bytes32",
          "name": "role",
          "type": "bytes32"
        },
        {
          "indexed": true,
          "internalType": "bytes32",
          "name": "previousAdminRole",
          "type": "bytes32"
        },
        {
          "indexed": true,
          "internalType": "bytes32",
          "name": "newAdminRole",
          "type": "bytes32"
        }
      ],
      "name": "RoleAdminChanged",
      "type": "event"
    },
    {
      "anonymous": false,
      "inputs": [
        {
          "indexed": true,
          "internalType": "bytes32",
          "name": "role",
          "type": "bytes32"
        },
        {
          "indexed": true,
          "internalType": "address",
          "name": "account",
          "type": "address"
        },
        {
          "indexed": true,
          "internalType": "address",
          "name": "sender",
          "type": "address"
        }
      ],
      "name": "RoleGranted",
      "type": "event"
    },
    {
      "anonymous": false,
      "inputs": [
        {
          "indexed": true,
          "internalType": "bytes32",
          "name": "role",
          "type": "bytes32"
        },
        {
          "indexed": true,
          "internalType": "address",
          "name": "account",
          "type": "address"
        },
        {
          "indexed": true,
          "internalType": "address",
          "name": "sender",
          "type": "address"
        }
      ],
      "name": "RoleRevoked",
      "type": "event"
    },
    {
      "anonymous": false,
      "inputs": [
        {
          "indexed": true,
          "internalType": "address",
          "name": "implementation",
          "type": "address"
        }
      ],
      "name": "Upgraded",
      "type": "event"
    },
    {
      "inputs": [],
      "name": "DEFAULT_ADMIN_ROLE",
      "outputs": [
        {
          "internalType": "bytes32",
          "name": "",
          "type": "bytes32"
        }
      ],
      "stateMutability": "view",
      "type": "function"
    },
    {
      "inputs": [],
      "name": "LOOTERY_MASTER_COPY_SLOT",
      "outputs": [
        {
          "internalType": "bytes32",
          "name": "",
          "type": "bytes32"
        }
      ],
      "stateMutability": "view",
      "type": "function"
    },
    {
      "inputs": [],
      "name": "NONCE_SLOT",
      "outputs": [
        {
          "internalType": "bytes32",
          "name": "",
          "type": "bytes32"
        }
      ],
      "stateMutability": "view",
      "type": "function"
    },
    {
      "inputs": [],
      "name": "RANDOMISER_SLOT",
      "outputs": [
        {
          "internalType": "bytes32",
          "name": "",
          "type": "bytes32"
        }
      ],
      "stateMutability": "view",
      "type": "function"
    },
    {
      "inputs": [],
      "name": "UPGRADE_INTERFACE_VERSION",
      "outputs": [
        {
          "internalType": "string",
          "name": "",
          "type": "string"
        }
      ],
      "stateMutability": "view",
      "type": "function"
    },
    {
      "inputs": [],
      "name": "computeNextAddress",
      "outputs": [
        {
          "internalType": "address",
          "name": "",
          "type": "address"
        }
      ],
      "stateMutability": "view",
      "type": "function"
    },
    {
      "inputs": [
        {
          "internalType": "string",
          "name": "name",
          "type": "string"
        },
        {
          "internalType": "string",
          "name": "symbol",
          "type": "string"
        },
        {
          "internalType": "uint8",
          "name": "numPicks",
          "type": "uint8"
        },
        {
          "internalType": "uint8",
          "name": "maxBallValue",
          "type": "uint8"
        },
        {
          "internalType": "uint256",
          "name": "gamePeriod",
          "type": "uint256"
        },
        {
          "internalType": "uint256",
          "name": "ticketPrice",
          "type": "uint256"
        },
        {
          "internalType": "uint256",
          "name": "communityFeeBps",
          "type": "uint256"
        },
        {
          "internalType": "address",
          "name": "prizeToken",
          "type": "address"
        },
        {
          "internalType": "uint256",
          "name": "seedJackpotDelay",
          "type": "uint256"
        },
        {
          "internalType": "uint256",
          "name": "seedJackpotMinValue",
          "type": "uint256"
        }
      ],
      "name": "create",
      "outputs": [
        {
          "internalType": "address",
          "name": "",
          "type": "address"
        }
      ],
      "stateMutability": "nonpayable",
      "type": "function"
    },
    {
      "inputs": [],
      "name": "getRandomiser",
      "outputs": [
        {
          "internalType": "address",
          "name": "",
          "type": "address"
        }
      ],
      "stateMutability": "view",
      "type": "function"
    },
    {
      "inputs": [
        {
          "internalType": "bytes32",
          "name": "role",
          "type": "bytes32"
        }
      ],
      "name": "getRoleAdmin",
      "outputs": [
        {
          "internalType": "bytes32",
          "name": "",
          "type": "bytes32"
        }
      ],
      "stateMutability": "view",
      "type": "function"
    },
    {
      "inputs": [
        {
          "internalType": "bytes32",
          "name": "role",
          "type": "bytes32"
        },
        {
          "internalType": "address",
          "name": "account",
          "type": "address"
        }
      ],
      "name": "grantRole",
      "outputs": [],
      "stateMutability": "nonpayable",
      "type": "function"
    },
    {
      "inputs": [
        {
          "internalType": "bytes32",
          "name": "role",
          "type": "bytes32"
        },
        {
          "internalType": "address",
          "name": "account",
          "type": "address"
        }
      ],
      "name": "hasRole",
      "outputs": [
        {
          "internalType": "bool",
          "name": "",
          "type": "bool"
        }
      ],
      "stateMutability": "view",
      "type": "function"
    },
    {
      "inputs": [
        {
          "internalType": "address",
          "name": "looteryMasterCopy",
          "type": "address"
        },
        {
          "internalType": "address",
          "name": "randomiser",
          "type": "address"
        }
      ],
      "name": "init",
      "outputs": [],
      "stateMutability": "nonpayable",
      "type": "function"
    },
    {
      "inputs": [],
      "name": "proxiableUUID",
      "outputs": [
        {
          "internalType": "bytes32",
          "name": "",
          "type": "bytes32"
        }
      ],
      "stateMutability": "view",
      "type": "function"
    },
    {
      "inputs": [
        {
          "internalType": "bytes32",
          "name": "role",
          "type": "bytes32"
        },
        {
          "internalType": "address",
          "name": "callerConfirmation",
          "type": "address"
        }
      ],
      "name": "renounceRole",
      "outputs": [],
      "stateMutability": "nonpayable",
      "type": "function"
    },
    {
      "inputs": [
        {
          "internalType": "bytes32",
          "name": "role",
          "type": "bytes32"
        },
        {
          "internalType": "address",
          "name": "account",
          "type": "address"
        }
      ],
      "name": "revokeRole",
      "outputs": [],
      "stateMutability": "nonpayable",
      "type": "function"
    },
    {
      "inputs": [
        {
          "internalType": "address",
          "name": "randomiser",
          "type": "address"
        }
      ],
      "name": "setRandomiser",
      "outputs": [],
      "stateMutability": "nonpayable",
      "type": "function"
    },
    {
      "inputs": [
        {
          "internalType": "bytes4",
          "name": "interfaceId",
          "type": "bytes4"
        }
      ],
      "name": "supportsInterface",
      "outputs": [
        {
          "internalType": "bool",
          "name": "",
          "type": "bool"
        }
      ],
      "stateMutability": "view",
      "type": "function"
    },
    {
      "inputs": [
        {
          "internalType": "address",
          "name": "newImplementation",
          "type": "address"
        },
        {
          "internalType": "bytes",
          "name": "data",
          "type": "bytes"
        }
      ],
      "name": "upgradeToAndCall",
      "outputs": [],
      "stateMutability": "payable",
      "type": "function"
    }
  ],
  "bytecode": "0x60a080604052346100cc57306080527ff0c57e16840df040f15088dc2f81fe391c3923bec73e23a9662efc9c229c6a009081549060ff8260401c166100bd57506001600160401b036002600160401b031982821601610078575b60405161141f90816100d282396080518181816109e10152610aac0152f35b6001600160401b031990911681179091556040519081527fc7f505b2f371ae2175ee4913f4499e1f2633a7b5936321eed1cdaeb6115181d290602090a1388080610059565b63f92ee8a960e01b8152600490fd5b600080fdfe608080604052600436101561001357600080fd5b60003560e01c90816301ffc9a714610e6157508063154d642d14610e26578063248a9ca314610dd85780632f2ff15d14610d7a57806336568abe14610d1b5780634335722a14610ce05780634f1ef28614610a5b57806352d1902d146109c657806375fea724146109805780638190ca02146105c757806391d148541461055a578063a217fddf1461053e578063ad3cb1cc146104b3578063b4a3374014610478578063d1e3e04e146103da578063d3984d8314610312578063d547741f146102b25763f09a4016146100e557600080fd5b346102ad5760403660031901126102ad576100fe610f15565b610106610eff565b907ff0c57e16840df040f15088dc2f81fe391c3923bec73e23a9662efc9c229c6a009182549160ff8360401c16159267ffffffffffffffff8116801590816102a5575b600114908161029b575b159081610292575b506102685767ffffffffffffffff198116600117855583610249575b506101806112fd565b6101886112fd565b6001600160a01b0373ffffffffffffffffffffffffffffffffffffffff1991817f15244694a038682b3dfdfc9a7b4d57f194bac87a538c298bbb15836f93f3d08e9116838254161790557f7fd620ff951c5553351af243f95586d6c40fbde77386fa401565df721194304b921690825416179055610205336110b4565b5061020c57005b68ff00000000000000001981541690557fc7f505b2f371ae2175ee4913f4499e1f2633a7b5936321eed1cdaeb6115181d2602060405160018152a1005b68ffffffffffffffffff19166801000000000000000117845538610177565b60046040517ff92ee8a9000000000000000000000000000000000000000000000000000000008152fd5b9050153861015b565b303b159150610153565b859150610149565b600080fd5b346102ad5760403660031901126102ad576103106004356102d1610eff565b90806000527f02dd7bc7dec4dceedda775e58dd541e08a116c6c53815c0bd028192f7b62680060205261030b60016040600020015461106f565b611206565b005b346102ad5760003660031901126102ad57602061034f7fb673313ff65da5deee919e9043f9d191abd6721ce5d457fcf870135fe1bceb995461129c565b605560436001600160a01b0392837f15244694a038682b3dfdfc9a7b4d57f194bac87a538c298bbb15836f93f3d08e541690604051913060388401526f5af43d82803e903d91602b57fd5bf3ff60248401526014830152733d602d80600a3d3981f3363d3d373d3d3d363d73825260588201526037600c820120607882015201209060405191168152f35b346102ad5760203660031901126102ad577ff115e1bf2769958fce47eddffee49c3a3332b6f314038f9ab1e4463f6f6d32486040610416610f15565b61041e610ffe565b7f7fd620ff951c5553351af243f95586d6c40fbde77386fa401565df721194304b8054916001600160a01b03809116918273ffffffffffffffffffffffffffffffffffffffff1985161790558351921682526020820152a1005b346102ad5760003660031901126102ad5760206040517f15244694a038682b3dfdfc9a7b4d57f194bac87a538c298bbb15836f93f3d08e8152f35b346102ad5760003660031901126102ad57604051604081019080821067ffffffffffffffff8311176105285761052491604052600581527f352e302e300000000000000000000000000000000000000000000000000000006020820152604051918291602083526020830190610fbe565b0390f35b634e487b7160e01b600052604160045260246000fd5b346102ad5760003660031901126102ad57602060405160008152f35b346102ad5760403660031901126102ad57610573610eff565b6004356000527f02dd7bc7dec4dceedda775e58dd541e08a116c6c53815c0bd028192f7b6268006020526001600160a01b0360406000209116600052602052602060ff604060002054166040519015158152f35b346102ad576101403660031901126102ad5760043567ffffffffffffffff81116102ad576105f9903690600401610fa0565b60243567ffffffffffffffff81116102ad57610619903690600401610fa0565b6044359060ff821682036102ad576064359260ff841684036102ad5760e435916001600160a01b03831683036102ad577fb673313ff65da5deee919e9043f9d191abd6721ce5d457fcf870135fe1bceb998054600019811461096a576106849160018201905561129c565b926001600160a01b037f15244694a038682b3dfdfc9a7b4d57f194bac87a538c298bbb15836f93f3d08e5494763d602d80600a3d3981f3363d3d373d3d3d363d7300000062ffffff8760881c16176000526e5af43d82803e903d91602b57fd5bf36effffffffffffffffffffffffffffff198760781b1617602052603760096000f516948515610940576001600160a01b037f7fd620ff951c5553351af243f95586d6c40fbde77386fa401565df721194304b541690604051978861018081011067ffffffffffffffff6101808b0111176105285760ff80926001600160a01b03966101808c01604052338c528860208d015260408c01521660608a015216608088015260843560a088015260a43560c088015260c43560e0880152610100870152166101208501526101043561014085015261012435610160850152823b156102ad5760006040518080967fd05493f3000000000000000000000000000000000000000000000000000000008252602060048301526001600160a01b03815116602483015261016061084161082b602084015161018060448701526101a4860190610fbe565b6040840151858203602319016064870152610fbe565b9160ff606082015116608485015260ff60808201511660a485015260a081015160c485015260c081015160e485015260e08101516101048501526001600160a01b03610100820151166101248501526001600160a01b03610120820151166101448501526101408101516101648501520151610184830152038183875af180156109345761091a575b60209350827fd22adf12af1045715ab78a4d25c7ac99005301d0fc1895274a7172d018715de86040518681528061090f6001600160a01b033397169589830190610fbe565b0390a4604051908152f35b67ffffffffffffffff8411610528576020936040526108ca565b6040513d6000823e3d90fd5b60046040517fc2f868f4000000000000000000000000000000000000000000000000000000008152fd5b634e487b7160e01b600052601160045260246000fd5b346102ad5760003660031901126102ad5760206001600160a01b037f7fd620ff951c5553351af243f95586d6c40fbde77386fa401565df721194304b5416604051908152f35b346102ad5760003660031901126102ad576001600160a01b037f0000000000000000000000000000000000000000000000000000000000000000163003610a315760206040517f360894a13ba1a3210667c828492db98dca3e2076cc3735a920a3ca505d382bbc8152f35b60046040517fe07c8dba000000000000000000000000000000000000000000000000000000008152fd5b60403660031901126102ad57610a6f610f15565b60243567ffffffffffffffff81116102ad57366023820112156102ad57610aa0903690602481600401359101610f69565b906001600160a01b03807f000000000000000000000000000000000000000000000000000000000000000016803014908115610cb2575b50610a3157610ae4610ffe565b811690604051907f52d1902d0000000000000000000000000000000000000000000000000000000082526020918281600481875afa60009181610c83575b50610b3f5760248460405190634c9c8ce360e01b82526004820152fd5b9284937f360894a13ba1a3210667c828492db98dca3e2076cc3735a920a3ca505d382bbc90818103610c525750823b15610c3a578173ffffffffffffffffffffffffffffffffffffffff19825416179055604051907fbc7cd75a20ee27fd9adebab32041f755214dbc6bffa90cc0225b39da2e5c2d3b600080a2835115610c075750600080848461031096519101845af4903d15610bfe573d610be181610f4d565b90610bef6040519283610f2b565b8152600081943d92013e611356565b60609250611356565b9250505034610c1257005b807fb398979f0000000000000000000000000000000000000000000000000000000060049252fd5b60248260405190634c9c8ce360e01b82526004820152fd5b602490604051907faa1d49a40000000000000000000000000000000000000000000000000000000082526004820152fd5b9091508381813d8311610cab575b610c9b8183610f2b565b810103126102ad57519086610b22565b503d610c91565b9050817f360894a13ba1a3210667c828492db98dca3e2076cc3735a920a3ca505d382bbc5416141584610ad7565b346102ad5760003660031901126102ad5760206040517f7fd620ff951c5553351af243f95586d6c40fbde77386fa401565df721194304b8152f35b346102ad5760403660031901126102ad57610d34610eff565b336001600160a01b03821603610d505761031090600435611206565b60046040517f6697b232000000000000000000000000000000000000000000000000000000008152fd5b346102ad5760403660031901126102ad57610310600435610d99610eff565b90806000527f02dd7bc7dec4dceedda775e58dd541e08a116c6c53815c0bd028192f7b626800602052610dd360016040600020015461106f565b611166565b346102ad5760203660031901126102ad576004356000527f02dd7bc7dec4dceedda775e58dd541e08a116c6c53815c0bd028192f7b6268006020526020600160406000200154604051908152f35b346102ad5760003660031901126102ad5760206040517fb673313ff65da5deee919e9043f9d191abd6721ce5d457fcf870135fe1bceb998152f35b346102ad5760203660031901126102ad57600435907fffffffff0000000000000000000000000000000000000000000000000000000082168092036102ad57817f7965db0b0000000000000000000000000000000000000000000000000000000060209314908115610ed5575b5015158152f35b7f01ffc9a70000000000000000000000000000000000000000000000000000000091501483610ece565b602435906001600160a01b03821682036102ad57565b600435906001600160a01b03821682036102ad57565b90601f8019910116810190811067ffffffffffffffff82111761052857604052565b67ffffffffffffffff811161052857601f01601f191660200190565b929192610f7582610f4d565b91610f836040519384610f2b565b8294818452818301116102ad578281602093846000960137010152565b9080601f830112156102ad57816020610fbb93359101610f69565b90565b919082519283825260005b848110610fea575050826000602080949584010152601f8019910116010190565b602081830181015184830182015201610fc9565b3360009081527fb7db2dd08fcb62d0c9e08c51941cae53c267786a0b75803fb7960902fc8ef97d602052604081205460ff16156110385750565b604490604051907fe2517d3f0000000000000000000000000000000000000000000000000000000082523360048301526024820152fd5b806000527f02dd7bc7dec4dceedda775e58dd541e08a116c6c53815c0bd028192f7b62680060205260406000203360005260205260ff60406000205416156110385750565b6001600160a01b031660008181527fb7db2dd08fcb62d0c9e08c51941cae53c267786a0b75803fb7960902fc8ef97d60205260408120549091907f02dd7bc7dec4dceedda775e58dd541e08a116c6c53815c0bd028192f7b6268009060ff16611161578280526020526040822081835260205260408220600160ff1982541617905533917f2f8788117e7eff1d82e926ec794901d17c78024a50270940304540a733656f0d8180a4600190565b505090565b906000918083527f02dd7bc7dec4dceedda775e58dd541e08a116c6c53815c0bd028192f7b626800806020526001600160a01b036040852093169283855260205260ff60408520541615600014611200578184526020526040832082845260205260408320600160ff198254161790557f2f8788117e7eff1d82e926ec794901d17c78024a50270940304540a733656f0d339380a4600190565b50505090565b906000918083527f02dd7bc7dec4dceedda775e58dd541e08a116c6c53815c0bd028192f7b626800806020526001600160a01b036040852093169283855260205260ff60408520541660001461120057818452602052604083208284526020526040832060ff1981541690557ff6391f5c32d9c69d2a47ea670b442974b53935d1edc7fd64eb21e047a839171b339380a4600190565b60405160208101918252604080820152600760608201527f6c6f6f746572790000000000000000000000000000000000000000000000000060808201526080815260a0810181811067ffffffffffffffff8211176105285760405251902090565b60ff7ff0c57e16840df040f15088dc2f81fe391c3923bec73e23a9662efc9c229c6a005460401c161561132c57565b60046040517fd7e6bcf8000000000000000000000000000000000000000000000000000000008152fd5b90611395575080511561136b57805190602001fd5b60046040517f1425ea42000000000000000000000000000000000000000000000000000000008152fd5b815115806113e0575b6113a6575090565b6024906001600160a01b03604051917f9996b315000000000000000000000000000000000000000000000000000000008352166004820152fd5b50803b1561139e56fea26469706673582212207f950feb96c2c5c79431faa740ce6f59021200b56a05cd62652cc0ba0ef187e264736f6c63430008170033",
  "linkReferences": {},
  "deployedLinkReferences": {}
}