{
  "_format": "hh-sol-artifact-1",
  "contractName": "Lootery",
  "sourceName": "contracts/Lootery.sol",
  "abi": [
    {
      "inputs": [],
      "stateMutability": "nonpayable",
      "type": "constructor"
    },
    {
      "inputs": [
        {
          "internalType": "address",
          "name": "target",
          "type": "address"
        }
      ],
      "name": "AddressEmptyCode",
      "type": "error"
    },
    {
      "inputs": [
        {
          "internalType": "address",
          "name": "account",
          "type": "address"
        }
      ],
      "name": "AddressInsufficientBalance",
      "type": "error"
    },
    {
      "inputs": [
        {
          "internalType": "address",
          "name": "caller",
          "type": "address"
        }
      ],
      "name": "CallerNotRandomiser",
      "type": "error"
    },
    {
      "inputs": [
        {
          "internalType": "uint256",
          "name": "tokenId",
          "type": "uint256"
        }
      ],
      "name": "ClaimWindowMissed",
      "type": "error"
    },
    {
      "inputs": [
        {
          "internalType": "address",
          "name": "sender",
          "type": "address"
        },
        {
          "internalType": "uint256",
          "name": "tokenId",
          "type": "uint256"
        },
        {
          "internalType": "address",
          "name": "owner",
          "type": "address"
        }
      ],
      "name": "ERC721IncorrectOwner",
      "type": "error"
    },
    {
      "inputs": [
        {
          "internalType": "address",
          "name": "operator",
          "type": "address"
        },
        {
          "internalType": "uint256",
          "name": "tokenId",
          "type": "uint256"
        }
      ],
      "name": "ERC721InsufficientApproval",
      "type": "error"
    },
    {
      "inputs": [
        {
          "internalType": "address",
          "name": "approver",
          "type": "address"
        }
      ],
      "name": "ERC721InvalidApprover",
      "type": "error"
    },
    {
      "inputs": [
        {
          "internalType": "address",
          "name": "operator",
          "type": "address"
        }
      ],
      "name": "ERC721InvalidOperator",
      "type": "error"
    },
    {
      "inputs": [
        {
          "internalType": "address",
          "name": "owner",
          "type": "address"
        }
      ],
      "name": "ERC721InvalidOwner",
      "type": "error"
    },
    {
      "inputs": [
        {
          "internalType": "address",
          "name": "receiver",
          "type": "address"
        }
      ],
      "name": "ERC721InvalidReceiver",
      "type": "error"
    },
    {
      "inputs": [
        {
          "internalType": "address",
          "name": "sender",
          "type": "address"
        }
      ],
      "name": "ERC721InvalidSender",
      "type": "error"
    },
    {
      "inputs": [
        {
          "internalType": "uint256",
          "name": "tokenId",
          "type": "uint256"
        }
      ],
      "name": "ERC721NonexistentToken",
      "type": "error"
    },
    {
      "inputs": [],
      "name": "FailedInnerCall",
      "type": "error"
    },
    {
      "inputs": [],
      "name": "GameAlreadyDrawn",
      "type": "error"
    },
    {
      "inputs": [],
      "name": "GameInactive",
      "type": "error"
    },
    {
      "inputs": [
        {
          "internalType": "uint256",
          "name": "paid",
          "type": "uint256"
        },
        {
          "internalType": "uint256",
          "name": "expected",
          "type": "uint256"
        }
      ],
      "name": "IncorrectPaymentAmount",
      "type": "error"
    },
    {
      "inputs": [
        {
          "internalType": "uint256",
          "name": "value",
          "type": "uint256"
        }
      ],
      "name": "InsufficientJackpotSeed",
      "type": "error"
    },
    {
      "inputs": [
        {
          "internalType": "uint256",
          "name": "have",
          "type": "uint256"
        },
        {
          "internalType": "uint256",
          "name": "want",
          "type": "uint256"
        }
      ],
      "name": "InsufficientOperationalFunds",
      "type": "error"
    },
    {
      "inputs": [],
      "name": "InsufficientRandomWords",
      "type": "error"
    },
    {
      "inputs": [
        {
          "internalType": "uint256",
          "name": "ballValue",
          "type": "uint256"
        }
      ],
      "name": "InvalidBallValue",
      "type": "error"
    },
    {
      "inputs": [
        {
          "internalType": "uint256",
          "name": "gamePeriod",
          "type": "uint256"
        }
      ],
      "name": "InvalidGamePeriod",
      "type": "error"
    },
    {
      "inputs": [],
      "name": "InvalidInitialization",
      "type": "error"
    },
    {
      "inputs": [],
      "name": "InvalidInputs",
      "type": "error"
    },
    {
      "inputs": [
        {
          "internalType": "uint256",
          "name": "numPicks",
          "type": "uint256"
        }
      ],
      "name": "InvalidNumPicks",
      "type": "error"
    },
    {
      "inputs": [
        {
          "internalType": "address",
          "name": "prizeToken",
          "type": "address"
        }
      ],
      "name": "InvalidPrizeToken",
      "type": "error"
    },
    {
      "inputs": [
        {
          "internalType": "address",
          "name": "randomiser",
          "type": "address"
        }
      ],
      "name": "InvalidRandomiser",
      "type": "error"
    },
    {
      "inputs": [
        {
          "internalType": "uint256",
          "name": "delay",
          "type": "uint256"
        },
        {
          "internalType": "uint256",
          "name": "minValue",
          "type": "uint256"
        }
      ],
      "name": "InvalidSeedJackpotConfig",
      "type": "error"
    },
    {
      "inputs": [
        {
          "internalType": "uint256",
          "name": "ticketPrice",
          "type": "uint256"
        }
      ],
      "name": "InvalidTicketPrice",
      "type": "error"
    },
    {
      "inputs": [
        {
          "internalType": "uint256",
          "name": "pickId",
          "type": "uint256"
        },
        {
          "internalType": "uint256",
          "name": "winningPickId",
          "type": "uint256"
        }
      ],
      "name": "NoWin",
      "type": "error"
    },
    {
      "inputs": [],
      "name": "NotInitializing",
      "type": "error"
    },
    {
      "inputs": [
        {
          "internalType": "address",
          "name": "owner",
          "type": "address"
        }
      ],
      "name": "OwnableInvalidOwner",
      "type": "error"
    },
    {
      "inputs": [
        {
          "internalType": "address",
          "name": "account",
          "type": "address"
        }
      ],
      "name": "OwnableUnauthorizedAccount",
      "type": "error"
    },
    {
      "inputs": [
        {
          "internalType": "uint256",
          "name": "secondsToWait",
          "type": "uint256"
        }
      ],
      "name": "RateLimited",
      "type": "error"
    },
    {
      "inputs": [
        {
          "internalType": "uint256",
          "name": "requestId",
          "type": "uint256"
        },
        {
          "internalType": "uint256",
          "name": "timestamp",
          "type": "uint256"
        }
      ],
      "name": "RequestAlreadyInFlight",
      "type": "error"
    },
    {
      "inputs": [
        {
          "internalType": "uint256",
          "name": "actual",
          "type": "uint256"
        },
        {
          "internalType": "uint208",
          "name": "expected",
          "type": "uint208"
        }
      ],
      "name": "RequestIdMismatch",
      "type": "error"
    },
    {
      "inputs": [
        {
          "internalType": "uint256",
          "name": "requestId",
          "type": "uint256"
        }
      ],
      "name": "RequestIdOverflow",
      "type": "error"
    },
    {
      "inputs": [
        {
          "internalType": "address",
          "name": "token",
          "type": "address"
        }
      ],
      "name": "SafeERC20FailedOperation",
      "type": "error"
    },
    {
      "inputs": [
        {
          "internalType": "uint256",
          "name": "value",
          "type": "uint256"
        }
      ],
      "name": "TicketsSoldOverflow",
      "type": "error"
    },
    {
      "inputs": [
        {
          "internalType": "address",
          "name": "to",
          "type": "address"
        },
        {
          "internalType": "uint256",
          "name": "value",
          "type": "uint256"
        },
        {
          "internalType": "bytes",
          "name": "reason",
          "type": "bytes"
        }
      ],
      "name": "TransferFailure",
      "type": "error"
    },
    {
      "inputs": [
        {
          "internalType": "enum Lootery.GameState",
          "name": "actual",
          "type": "uint8"
        },
        {
          "internalType": "enum Lootery.GameState",
          "name": "expected",
          "type": "uint8"
        }
      ],
      "name": "UnexpectedState",
      "type": "error"
    },
    {
      "inputs": [
        {
          "internalType": "uint8[]",
          "name": "picks",
          "type": "uint8[]"
        }
      ],
      "name": "UnsortedPicks",
      "type": "error"
    },
    {
      "inputs": [
        {
          "internalType": "uint256",
          "name": "deadline",
          "type": "uint256"
        }
      ],
      "name": "WaitLonger",
      "type": "error"
    },
    {
      "anonymous": false,
      "inputs": [
        {
          "indexed": true,
          "internalType": "address",
          "name": "owner",
          "type": "address"
        },
        {
          "indexed": true,
          "internalType": "address",
          "name": "approved",
          "type": "address"
        },
        {
          "indexed": true,
          "internalType": "uint256",
          "name": "tokenId",
          "type": "uint256"
        }
      ],
      "name": "Approval",
      "type": "event"
    },
    {
      "anonymous": false,
      "inputs": [
        {
          "indexed": true,
          "internalType": "address",
          "name": "owner",
          "type": "address"
        },
        {
          "indexed": true,
          "internalType": "address",
          "name": "operator",
          "type": "address"
        },
        {
          "indexed": false,
          "internalType": "bool",
          "name": "approved",
          "type": "bool"
        }
      ],
      "name": "ApprovalForAll",
      "type": "event"
    },
    {
      "anonymous": false,
      "inputs": [
        {
          "indexed": true,
          "internalType": "uint256",
          "name": "tokenId",
          "type": "uint256"
        },
        {
          "indexed": true,
          "internalType": "uint256",
          "name": "gameId",
          "type": "uint256"
        },
        {
          "indexed": false,
          "internalType": "address",
          "name": "whomst",
          "type": "address"
        },
        {
          "indexed": false,
          "internalType": "uint256",
          "name": "value",
          "type": "uint256"
        }
      ],
      "name": "ConsolationClaimed",
      "type": "event"
    },
    {
      "anonymous": false,
      "inputs": [
        {
          "indexed": true,
          "internalType": "uint256",
          "name": "gameId",
          "type": "uint256"
        }
      ],
      "name": "DrawSkipped",
      "type": "event"
    },
    {
      "anonymous": false,
      "inputs": [
        {
          "indexed": false,
          "internalType": "uint256",
          "name": "gameId",
          "type": "uint256"
        },
        {
          "indexed": false,
          "internalType": "uint8[]",
          "name": "winningPicks",
          "type": "uint8[]"
        }
      ],
      "name": "GameFinalised",
      "type": "event"
    },
    {
      "anonymous": false,
      "inputs": [
        {
          "indexed": false,
          "internalType": "uint64",
          "name": "version",
          "type": "uint64"
        }
      ],
      "name": "Initialized",
      "type": "event"
    },
    {
      "anonymous": false,
      "inputs": [
        {
          "indexed": true,
          "internalType": "uint256",
          "name": "gameId",
          "type": "uint256"
        },
        {
          "indexed": false,
          "internalType": "uint256",
          "name": "unclaimedPayouts",
          "type": "uint256"
        },
        {
          "indexed": false,
          "internalType": "uint256",
          "name": "currentJackpot",
          "type": "uint256"
        },
        {
          "indexed": false,
          "internalType": "uint256",
          "name": "nextUnclaimedPayouts",
          "type": "uint256"
        },
        {
          "indexed": false,
          "internalType": "uint256",
          "name": "nextJackpot",
          "type": "uint256"
        }
      ],
      "name": "JackpotRollover",
      "type": "event"
    },
    {
      "anonymous": false,
      "inputs": [
        {
          "indexed": true,
          "internalType": "address",
          "name": "whomst",
          "type": "address"
        },
        {
          "indexed": false,
          "internalType": "uint256",
          "name": "amount",
          "type": "uint256"
        }
      ],
      "name": "JackpotSeeded",
      "type": "event"
    },
    {
      "anonymous": false,
      "inputs": [
        {
          "indexed": true,
          "internalType": "address",
          "name": "previousOwner",
          "type": "address"
        },
        {
          "indexed": true,
          "internalType": "address",
          "name": "newOwner",
          "type": "address"
        }
      ],
      "name": "OwnershipTransferred",
      "type": "event"
    },
    {
      "anonymous": false,
      "inputs": [
        {
          "indexed": false,
          "internalType": "address",
          "name": "sender",
          "type": "address"
        },
        {
          "indexed": false,
          "internalType": "uint256",
          "name": "amount",
          "type": "uint256"
        }
      ],
      "name": "Received",
      "type": "event"
    },
    {
      "anonymous": false,
      "inputs": [
        {
          "indexed": true,
          "internalType": "uint256",
          "name": "gameId",
          "type": "uint256"
        },
        {
          "indexed": true,
          "internalType": "address",
          "name": "whomst",
          "type": "address"
        },
        {
          "indexed": true,
          "internalType": "uint256",
          "name": "tokenId",
          "type": "uint256"
        },
        {
          "indexed": false,
          "internalType": "uint8[]",
          "name": "picks",
          "type": "uint8[]"
        }
      ],
      "name": "TicketPurchased",
      "type": "event"
    },
    {
      "anonymous": false,
      "inputs": [
        {
          "indexed": true,
          "internalType": "address",
          "name": "from",
          "type": "address"
        },
        {
          "indexed": true,
          "internalType": "address",
          "name": "to",
          "type": "address"
        },
        {
          "indexed": true,
          "internalType": "uint256",
          "name": "tokenId",
          "type": "uint256"
        }
      ],
      "name": "Transfer",
      "type": "event"
    },
    {
      "anonymous": false,
      "inputs": [
        {
          "indexed": false,
          "internalType": "address",
          "name": "to",
          "type": "address"
        },
        {
          "indexed": false,
          "internalType": "uint256",
          "name": "value",
          "type": "uint256"
        }
      ],
      "name": "Transferred",
      "type": "event"
    },
    {
      "anonymous": false,
      "inputs": [
        {
          "indexed": true,
          "internalType": "uint256",
          "name": "tokenId",
          "type": "uint256"
        },
        {
          "indexed": true,
          "internalType": "uint256",
          "name": "gameId",
          "type": "uint256"
        },
        {
          "indexed": false,
          "internalType": "address",
          "name": "whomst",
          "type": "address"
        },
        {
          "indexed": false,
          "internalType": "uint256",
          "name": "value",
          "type": "uint256"
        }
      ],
      "name": "WinningsClaimed",
      "type": "event"
    },
    {
      "inputs": [],
      "name": "accruedCommunityFees",
      "outputs": [
        {
          "internalType": "uint256",
          "name": "",
          "type": "uint256"
        }
      ],
      "stateMutability": "view",
      "type": "function"
    },
    {
      "inputs": [],
      "name": "apocalypseGameId",
      "outputs": [
        {
          "internalType": "uint256",
          "name": "",
          "type": "uint256"
        }
      ],
      "stateMutability": "view",
      "type": "function"
    },
    {
      "inputs": [
        {
          "internalType": "address",
          "name": "to",
          "type": "address"
        },
        {
          "internalType": "uint256",
          "name": "tokenId",
          "type": "uint256"
        }
      ],
      "name": "approve",
      "outputs": [],
      "stateMutability": "nonpayable",
      "type": "function"
    },
    {
      "inputs": [
        {
          "internalType": "address",
          "name": "owner",
          "type": "address"
        }
      ],
      "name": "balanceOf",
      "outputs": [
        {
          "internalType": "uint256",
          "name": "",
          "type": "uint256"
        }
      ],
      "stateMutability": "view",
      "type": "function"
    },
    {
      "inputs": [
        {
          "internalType": "uint256",
          "name": "tokenId",
          "type": "uint256"
        }
      ],
      "name": "claimWinnings",
      "outputs": [],
      "stateMutability": "nonpayable",
      "type": "function"
    },
    {
      "inputs": [],
      "name": "communityFeeBps",
      "outputs": [
        {
          "internalType": "uint256",
          "name": "",
          "type": "uint256"
        }
      ],
      "stateMutability": "view",
      "type": "function"
    },
    {
      "inputs": [
        {
          "internalType": "uint256",
          "name": "randomSeed",
          "type": "uint256"
        }
      ],
      "name": "computeWinningBalls",
      "outputs": [
        {
          "internalType": "uint8[]",
          "name": "balls",
          "type": "uint8[]"
        }
      ],
      "stateMutability": "view",
      "type": "function"
    },
    {
      "inputs": [],
      "name": "currentGame",
      "outputs": [
        {
          "internalType": "enum Lootery.GameState",
          "name": "state",
          "type": "uint8"
        },
        {
          "internalType": "uint248",
          "name": "id",
          "type": "uint248"
        }
      ],
      "stateMutability": "view",
      "type": "function"
    },
    {
      "inputs": [],
      "name": "draw",
      "outputs": [],
      "stateMutability": "nonpayable",
      "type": "function"
    },
    {
      "inputs": [
        {
          "internalType": "uint256",
          "name": "gameId",
          "type": "uint256"
        }
      ],
      "name": "gameData",
      "outputs": [
        {
          "internalType": "uint64",
          "name": "ticketsSold",
          "type": "uint64"
        },
        {
          "internalType": "uint64",
          "name": "startedAt",
          "type": "uint64"
        },
        {
          "internalType": "uint256",
          "name": "winningPickId",
          "type": "uint256"
        }
      ],
      "stateMutability": "view",
      "type": "function"
    },
    {
      "inputs": [],
      "name": "gamePeriod",
      "outputs": [
        {
          "internalType": "uint256",
          "name": "",
          "type": "uint256"
        }
      ],
      "stateMutability": "view",
      "type": "function"
    },
    {
      "inputs": [
        {
          "internalType": "uint256",
          "name": "tokenId",
          "type": "uint256"
        }
      ],
      "name": "getApproved",
      "outputs": [
        {
          "internalType": "address",
          "name": "",
          "type": "address"
        }
      ],
      "stateMutability": "view",
      "type": "function"
    },
    {
      "inputs": [
        {
          "components": [
            {
              "internalType": "address",
              "name": "owner",
              "type": "address"
            },
            {
              "internalType": "string",
              "name": "name",
              "type": "string"
            },
            {
              "internalType": "string",
              "name": "symbol",
              "type": "string"
            },
            {
              "internalType": "uint8",
              "name": "numPicks",
              "type": "uint8"
            },
            {
              "internalType": "uint8",
              "name": "maxBallValue",
              "type": "uint8"
            },
            {
              "internalType": "uint256",
              "name": "gamePeriod",
              "type": "uint256"
            },
            {
              "internalType": "uint256",
              "name": "ticketPrice",
              "type": "uint256"
            },
            {
              "internalType": "uint256",
              "name": "communityFeeBps",
              "type": "uint256"
            },
            {
              "internalType": "address",
              "name": "randomiser",
              "type": "address"
            },
            {
              "internalType": "address",
              "name": "prizeToken",
              "type": "address"
            },
            {
              "internalType": "uint256",
              "name": "seedJackpotDelay",
              "type": "uint256"
            },
            {
              "internalType": "uint256",
              "name": "seedJackpotMinValue",
              "type": "uint256"
            }
          ],
          "internalType": "struct Lootery.InitConfig",
          "name": "initConfig",
          "type": "tuple"
        }
      ],
      "name": "init",
      "outputs": [],
      "stateMutability": "nonpayable",
      "type": "function"
    },
    {
      "inputs": [
        {
          "internalType": "address",
          "name": "owner",
          "type": "address"
        },
        {
          "internalType": "address",
          "name": "operator",
          "type": "address"
        }
      ],
      "name": "isApprovedForAll",
      "outputs": [
        {
          "internalType": "bool",
          "name": "",
          "type": "bool"
        }
      ],
      "stateMutability": "view",
      "type": "function"
    },
    {
      "inputs": [],
      "name": "isGameActive",
      "outputs": [
        {
          "internalType": "bool",
          "name": "",
          "type": "bool"
        }
      ],
      "stateMutability": "view",
      "type": "function"
    },
    {
      "inputs": [],
      "name": "jackpot",
      "outputs": [
        {
          "internalType": "uint256",
          "name": "",
          "type": "uint256"
        }
      ],
      "stateMutability": "view",
      "type": "function"
    },
    {
      "inputs": [],
      "name": "jackpotLastSeededAt",
      "outputs": [
        {
          "internalType": "uint256",
          "name": "",
          "type": "uint256"
        }
      ],
      "stateMutability": "view",
      "type": "function"
    },
    {
      "inputs": [],
      "name": "kill",
      "outputs": [],
      "stateMutability": "nonpayable",
      "type": "function"
    },
    {
      "inputs": [],
      "name": "maxBallValue",
      "outputs": [
        {
          "internalType": "uint8",
          "name": "",
          "type": "uint8"
        }
      ],
      "stateMutability": "view",
      "type": "function"
    },
    {
      "inputs": [],
      "name": "name",
      "outputs": [
        {
          "internalType": "string",
          "name": "",
          "type": "string"
        }
      ],
      "stateMutability": "view",
      "type": "function"
    },
    {
      "inputs": [],
      "name": "numPicks",
      "outputs": [
        {
          "internalType": "uint8",
          "name": "",
          "type": "uint8"
        }
      ],
      "stateMutability": "view",
      "type": "function"
    },
    {
      "inputs": [],
      "name": "owner",
      "outputs": [
        {
          "internalType": "address",
          "name": "",
          "type": "address"
        }
      ],
      "stateMutability": "view",
      "type": "function"
    },
    {
      "inputs": [
        {
          "internalType": "uint256",
          "name": "tokenId",
          "type": "uint256"
        }
      ],
      "name": "ownerOf",
      "outputs": [
        {
          "internalType": "address",
          "name": "",
          "type": "address"
        }
      ],
      "stateMutability": "view",
      "type": "function"
    },
    {
      "inputs": [
        {
          "components": [
            {
              "internalType": "address",
              "name": "whomst",
              "type": "address"
            },
            {
              "internalType": "uint8[]",
              "name": "picks",
              "type": "uint8[]"
            }
          ],
          "internalType": "struct Lootery.Ticket[]",
          "name": "tickets",
          "type": "tuple[]"
        }
      ],
      "name": "ownerPick",
      "outputs": [],
      "stateMutability": "nonpayable",
      "type": "function"
    },
    {
      "inputs": [],
      "name": "prizeToken",
      "outputs": [
        {
          "internalType": "address",
          "name": "",
          "type": "address"
        }
      ],
      "stateMutability": "view",
      "type": "function"
    },
    {
      "inputs": [
        {
          "components": [
            {
              "internalType": "address",
              "name": "whomst",
              "type": "address"
            },
            {
              "internalType": "uint8[]",
              "name": "picks",
              "type": "uint8[]"
            }
          ],
          "internalType": "struct Lootery.Ticket[]",
          "name": "tickets",
          "type": "tuple[]"
        }
      ],
      "name": "purchase",
      "outputs": [],
      "stateMutability": "nonpayable",
      "type": "function"
    },
    {
      "inputs": [
        {
          "internalType": "uint256",
          "name": "tokenId",
          "type": "uint256"
        }
      ],
      "name": "purchasedTickets",
      "outputs": [
        {
          "internalType": "uint256",
          "name": "gameId",
          "type": "uint256"
        },
        {
          "internalType": "uint256",
          "name": "pickId",
          "type": "uint256"
        }
      ],
      "stateMutability": "view",
      "type": "function"
    },
    {
      "inputs": [],
      "name": "randomiser",
      "outputs": [
        {
          "internalType": "address",
          "name": "",
          "type": "address"
        }
      ],
      "stateMutability": "view",
      "type": "function"
    },
    {
      "inputs": [],
      "name": "randomnessRequest",
      "outputs": [
        {
          "internalType": "uint208",
          "name": "requestId",
          "type": "uint208"
        },
        {
          "internalType": "uint48",
          "name": "timestamp",
          "type": "uint48"
        }
      ],
      "stateMutability": "view",
      "type": "function"
    },
    {
      "inputs": [
        {
          "internalType": "uint256",
          "name": "requestId",
          "type": "uint256"
        },
        {
          "internalType": "uint256[]",
          "name": "randomWords",
          "type": "uint256[]"
        }
      ],
      "name": "receiveRandomWords",
      "outputs": [],
      "stateMutability": "nonpayable",
      "type": "function"
    },
    {
      "inputs": [],
      "name": "renounceOwnership",
      "outputs": [],
      "stateMutability": "nonpayable",
      "type": "function"
    },
    {
      "inputs": [],
      "name": "rescueETH",
      "outputs": [],
      "stateMutability": "nonpayable",
      "type": "function"
    },
    {
      "inputs": [
        {
          "internalType": "address",
          "name": "tokenAddress",
          "type": "address"
        }
      ],
      "name": "rescueTokens",
      "outputs": [],
      "stateMutability": "nonpayable",
      "type": "function"
    },
    {
      "inputs": [
        {
          "internalType": "address",
          "name": "from",
          "type": "address"
        },
        {
          "internalType": "address",
          "name": "to",
          "type": "address"
        },
        {
          "internalType": "uint256",
          "name": "tokenId",
          "type": "uint256"
        }
      ],
      "name": "safeTransferFrom",
      "outputs": [],
      "stateMutability": "nonpayable",
      "type": "function"
    },
    {
      "inputs": [
        {
          "internalType": "address",
          "name": "from",
          "type": "address"
        },
        {
          "internalType": "address",
          "name": "to",
          "type": "address"
        },
        {
          "internalType": "uint256",
          "name": "tokenId",
          "type": "uint256"
        },
        {
          "internalType": "bytes",
          "name": "data",
          "type": "bytes"
        }
      ],
      "name": "safeTransferFrom",
      "outputs": [],
      "stateMutability": "nonpayable",
      "type": "function"
    },
    {
      "inputs": [
        {
          "internalType": "uint256",
          "name": "value",
          "type": "uint256"
        }
      ],
      "name": "seedJackpot",
      "outputs": [],
      "stateMutability": "nonpayable",
      "type": "function"
    },
    {
      "inputs": [],
      "name": "seedJackpotDelay",
      "outputs": [
        {
          "internalType": "uint256",
          "name": "",
          "type": "uint256"
        }
      ],
      "stateMutability": "view",
      "type": "function"
    },
    {
      "inputs": [],
      "name": "seedJackpotMinValue",
      "outputs": [
        {
          "internalType": "uint256",
          "name": "",
          "type": "uint256"
        }
      ],
      "stateMutability": "view",
      "type": "function"
    },
    {
      "inputs": [
        {
          "internalType": "address",
          "name": "operator",
          "type": "address"
        },
        {
          "internalType": "bool",
          "name": "approved",
          "type": "bool"
        }
      ],
      "name": "setApprovalForAll",
      "outputs": [],
      "stateMutability": "nonpayable",
      "type": "function"
    },
    {
      "inputs": [
        {
          "internalType": "bytes4",
          "name": "interfaceId",
          "type": "bytes4"
        }
      ],
      "name": "supportsInterface",
      "outputs": [
        {
          "internalType": "bool",
          "name": "",
          "type": "bool"
        }
      ],
      "stateMutability": "view",
      "type": "function"
    },
    {
      "inputs": [],
      "name": "symbol",
      "outputs": [
        {
          "internalType": "string",
          "name": "",
          "type": "string"
        }
      ],
      "stateMutability": "view",
      "type": "function"
    },
    {
      "inputs": [],
      "name": "ticketPrice",
      "outputs": [
        {
          "internalType": "uint256",
          "name": "",
          "type": "uint256"
        }
      ],
      "stateMutability": "view",
      "type": "function"
    },
    {
      "inputs": [
        {
          "internalType": "uint256",
          "name": "gameId",
          "type": "uint256"
        },
        {
          "internalType": "uint256",
          "name": "id",
          "type": "uint256"
        },
        {
          "internalType": "uint256",
          "name": "",
          "type": "uint256"
        }
      ],
      "name": "tokenByPickIdentity",
      "outputs": [
        {
          "internalType": "uint256",
          "name": "",
          "type": "uint256"
        }
      ],
      "stateMutability": "view",
      "type": "function"
    },
    {
      "inputs": [
        {
          "internalType": "uint256",
          "name": "tokenId",
          "type": "uint256"
        }
      ],
      "name": "tokenURI",
      "outputs": [
        {
          "internalType": "string",
          "name": "",
          "type": "string"
        }
      ],
      "stateMutability": "view",
      "type": "function"
    },
    {
      "inputs": [
        {
          "internalType": "address",
          "name": "from",
          "type": "address"
        },
        {
          "internalType": "address",
          "name": "to",
          "type": "address"
        },
        {
          "internalType": "uint256",
          "name": "tokenId",
          "type": "uint256"
        }
      ],
      "name": "transferFrom",
      "outputs": [],
      "stateMutability": "nonpayable",
      "type": "function"
    },
    {
      "inputs": [
        {
          "internalType": "address",
          "name": "newOwner",
          "type": "address"
        }
      ],
      "name": "transferOwnership",
      "outputs": [],
      "stateMutability": "nonpayable",
      "type": "function"
    },
    {
      "inputs": [],
      "name": "unclaimedPayouts",
      "outputs": [
        {
          "internalType": "uint256",
          "name": "",
          "type": "uint256"
        }
      ],
      "stateMutability": "view",
      "type": "function"
    },
    {
      "inputs": [],
      "name": "withdrawAccruedFees",
      "outputs": [],
      "stateMutability": "nonpayable",
      "type": "function"
    },
    {
      "stateMutability": "payable",
      "type": "receive"
    }
  ],
  "bytecode": "0x60808060405234620000bd577ff0c57e16840df040f15088dc2f81fe391c3923bec73e23a9662efc9c229c6a009081549060ff8260401c16620000ae57506001600160401b036002600160401b03198282160162000068575b6040516143929081620000c38239f35b6001600160401b031990911681179091556040519081527fc7f505b2f371ae2175ee4913f4499e1f2633a7b5936321eed1cdaeb6115181d290602090a138808062000058565b63f92ee8a960e01b8152600490fd5b600080fdfe60806040526004361015610023575b361561001957600080fd5b6100216134c2565b005b60003560e01c8062ae3bf8146103225780630171984b1461031d57806301ffc9a71461031857806302950fb91461031357806306fdde031461030e578063081812fc14610309578063095ea7b3146103045780630c0ef2b0146102ff5780630eecae21146102fa5780631209b1f6146102f557806318575c0c146102f057806320800a00146102eb57806323b872dd146102e6578063336f528a146102e157806338aeb836146102dc57806341c0e1b5146102d757806342842e0e146102d257806354dd386c146102cd5780635f2bdd25146102c857806360b663bb146102c35780636352211e146102be578063677bd9ff146102b95780636b31ee01146102b457806370a08231146102af578063715018a6146102aa5780638bba0174146102a55780638da5cb5b146102a057806395d89b411461029b5780639ab6e29714610296578063a0c4615c14610291578063a14916d91461028c578063a22cb46514610287578063ab69dd0814610282578063ada82c7d1461027d578063ae46631314610278578063b130425114610273578063b88d4fde1461026e578063c87b56dd14610269578063ccaf237f14610264578063d05493f31461025f578063d0ef024a1461025a578063d20831af14610255578063e02ae8ce14610250578063e0a4ddc91461024b578063e985e9c514610246578063efe2f0eb14610241578063f2fde38b1461023c5763f694c26c0361000e57611ee9565b611ebc565b611e77565b611dff565b611dcc565b611d55565b611d37565b611d10565b611bfd565b611b86565b611abd565b611a4f565b611918565b6118fa565b6118c4565b611555565b61143c565b611414565b61105f565b611010565b610f4a565b610f04565b610ee6565b610e6a565b610dc6565b610da8565b610d8c565b610d5d565b610d2d565b610ce2565b610cc4565b610c91565b610bb5565b610b61565b610b07565b610af0565b610a47565b610a23565b610a05565b6109ec565b6109c7565b61085f565b610801565b6106f8565b610542565b610488565b610458565b61034a565b6001600160a01b0381160361033857565b600080fd5b359061034882610327565b565b34610338576020366003190112610338576001600160a01b0360043561036f81610327565b6103776134fa565b6040517f70a082310000000000000000000000000000000000000000000000000000000081523060048201529116602082602481845afa9081156104535761002192600092610422575b50816103e46103d86003546001600160a01b031690565b6001600160a01b031690565b82146103f3575b50339061355d565b61041b91925061040961041291601054906121f3565b600b54906121f3565b600a54906121f3565b90386103eb565b61044591925060203d60201161044c575b61043d818361198c565b8101906121b3565b90386103c1565b503d610433565b6121c2565b34610338576000366003190112610338576020600554604051908152f35b6001600160e01b031981160361033857565b346103385760203660031901126103385760206001600160e01b03196004356104b081610476565b167f80ac58cd000000000000000000000000000000000000000000000000000000008114908115610518575b81156104ee575b506040519015158152f35b7f01ffc9a700000000000000000000000000000000000000000000000000000000915014386104e3565b7f5b5e139f00000000000000000000000000000000000000000000000000000000811491506104dc565b346103385760203660031901126103385760043561055e6135b7565b60095460ff1661056d81610d00565b80610687575060075481106106545760125460065461058c818361225a565b4210610602578261059c42601255565b6105b06105ab82600a5461225a565b600a55565b6105d2816105c96103d86003546001600160a01b031690565b309033906135c6565b60405190815233907f0a45ec0e27527fa1519b691bab30b4fedbc1da4b3d04ba9d3663f1696be5410490602090a2005b6106509161061461061992429261225a565b6121f3565b6040519182917ff015865e000000000000000000000000000000000000000000000000000000008352600483019190602083019252565b0390fd5b6040517f7b4763210000000000000000000000000000000000000000000000000000000081526004810191909152602490fd5b6106509060405191829163cbdafbe760e01b835260048301612200565b919082519283825260005b8481106106d0575050826000602080949584010152601f8019910116010190565b6020818301810151848301820152016106af565b9060206106f59281815201906106a4565b90565b34610338576000806003193601126107fe5760405190807f80bb2b638cc20bc4d0a60d66940f3ab4a00c1d7b313497ca82fb0b4ab0079300805461073b81612267565b808652926020926001928084169081156107cf5750600114610778575b610774876107688189038261198c565b604051918291826106e4565b0390f35b815293507f37c58c799b6609234b945e882912ee9ad34948a1dfaa20a97485e1a7752bbf815b8385106107bc57505050508101602001610768826107743880610758565b805486860184015293820193810161079e565b9150508695506107749693506020925061076894915060ff191682840152151560051b82010192933880610758565b80fd5b346103385760203660031901126103385760043561081e81613635565b506000527f80bb2b638cc20bc4d0a60d66940f3ab4a00c1d7b313497ca82fb0b4ab007930460205260206001600160a01b0360406000205416604051908152f35b346103385760403660031901126103385760043561087c81610327565b6024359061088982613635565b331515806109b4575b80610951575b610921578261002193610906926001600160a01b0380861691167f8c5be1e5ebec7d5bd14f71427d1e84f3dd0314c0f7b2291e5b200ac8c7c3b925600080a46000527f80bb2b638cc20bc4d0a60d66940f3ab4a00c1d7b313497ca82fb0b4ab0079304602052604060002090565b906001600160a01b03166001600160a01b0319825416179055565b60246040517fa9fbf51f000000000000000000000000000000000000000000000000000000008152336004820152fd5b5060ff6109ac33610994846001600160a01b03166000527f80bb2b638cc20bc4d0a60d66940f3ab4a00c1d7b313497ca82fb0b4ab0079305602052604060002090565b906001600160a01b0316600052602052604060002090565b541615610898565b50336001600160a01b0382161415610892565b346103385760003660031901126103385760206109e26122a1565b6040519015158152f35b346103385760003660031901126103385761002161239f565b34610338576000366003190112610338576020600454604051908152f35b3461033857600036600319011261033857602060ff60005460081c16604051908152f35b34610338576000806003193601126107fe57610a616134fa565b8080808047335af1610a71612820565b9015610a7b575080f35b476106506040519283927f59ed55cf00000000000000000000000000000000000000000000000000000000845233600485015260248401526060604484015260648301906106a4565b606090600319011261033857600435610adc81610327565b90602435610ae981610327565b9060443590565b3461033857610021610b0136610ac4565b91612850565b346103385760003660031901126103385760206001600160a01b0360025416604051908152f35b634e487b7160e01b600052603260045260246000fd5b8054821015610b5c5760005260206000200190600090565b610b2e565b346103385760603660031901126103385760443560006004358152600f602052604081206024358252602052604081209081548310156107fe576020610ba78484610b44565b90546040519160031b1c8152f35b34610338576000806003193601126107fe57610bcf6134fa565b601154610c6757610bde6122be565b80516002811015610c5357610bf281610d00565b610c2c57610c24610c18610c136020610c299401516001600160f81b031690565b612327565b6001600160f81b031690565b601155565b80f35b6106509051610c3a81610d00565b60405191829163cbdafbe760e01b835260048301612200565b602483634e487b7160e01b81526021600452fd5b60046040517fe76abfdd000000000000000000000000000000000000000000000000000000008152fd5b3461033857610021610ca236610ac4565b9060405192610cb084611970565b60008452610cbf838383612850565b613a7e565b34610338576000366003190112610338576020600754604051908152f35b34610338576000366003190112610338576020601154604051908152f35b60021115610d0a57565b634e487b7160e01b600052602160045260246000fd5b906002821015610d0a5752565b34610338576000366003190112610338576040600954815190610d538260ff8316610d20565b60081c6020820152f35b34610338576020366003190112610338576020610d7b600435613635565b6001600160a01b0360405191168152f35b3461033857602036600319011261033857610021600435612b40565b34610338576000366003190112610338576020600a54604051908152f35b3461033857602036600319011261033857600435610de381610327565b6001600160a01b03811615610e3957610e306020916001600160a01b03166000527f80bb2b638cc20bc4d0a60d66940f3ab4a00c1d7b313497ca82fb0b4ab0079303602052604060002090565b54604051908152f35b60246040517f89c62b6400000000000000000000000000000000000000000000000000000000815260006004820152fd5b34610338576000806003193601126107fe57610e846134fa565b806001600160a01b037f9016d09d72d40fdae2fd8ceac6b6234c7706214fd39c1cd1e609a0528c1993008054906001600160a01b031982169055167f8be0079c531659141344cd1fd0a4f28419497f9722a3daafe3b4186f6b6457e08280a380f35b34610338576000366003190112610338576020600654604051908152f35b346103385760003660031901126103385760206001600160a01b037f9016d09d72d40fdae2fd8ceac6b6234c7706214fd39c1cd1e609a0528c1993005416604051908152f35b34610338576000806003193601126107fe5760405190807f80bb2b638cc20bc4d0a60d66940f3ab4a00c1d7b313497ca82fb0b4ab00793018054610f8d81612267565b808652926020926001928084169081156107cf5750600114610fb957610774876107688189038261198c565b815293507ff4bad0a69248f59680a4f2b3000328cec71a413447c96781cfe5996daa8c456e5b838510610ffd57505050508101602001610768826107743880610758565b8054868601840152938201938101610fdf565b34610338576000366003190112610338576020600b54604051908152f35b9181601f840112156103385782359167ffffffffffffffff8311610338576020808501948460051b01011161033857565b34610338576040806003193601126103385760049067ffffffffffffffff823560243582811161033857611096903690860161102e565b916110ac6103d86002546001600160a01b031690565b33036113df5760095460ff166110c181610d00565b600181036113c55750600c546001600160d01b03168181036113805750506110e76119ae565b60008082526020909101819052600c8190559482156113595750916112c661114161113b6001600160f81b03947f59a23cf10d003eab0c59d7c706e3b4b20aeddabe02c2ae924bd12cfb8c3e4b6496612daa565b3561326a565b9161129a61118c61115460095460081c90565b947f4a2c5dc61d8caf543cef0b699bd08678003186170a4fff91cb694c4d9c1bdcad895180611184848a83612db3565b0390a16137e4565b918260016111ad876001600160f81b0316600052600e602052604060002090565b01556111e06111bb86612327565b6111db6111c66119ae565b8c81526001600160f81b039092166020830152565b61233f565b6112046111eb6119bb565b918a83524216602083019067ffffffffffffffff169052565b888882015261122e61121586612327565b6001600160f81b0316600052600e602052604060002090565b90604060019167ffffffffffffffff8151168454908067ffffffffffffffff1983161786557fffffffffffffffffffffffffffffffff000000000000000000000000000000006fffffffffffffffff00000000000000006020850151861b169216171784550151910155565b6112b7836001600160f81b0316600052600f602052604060002090565b90600052602052604060002090565b54600b54600a5490959161131f5790816112e3611319938861225a565b916112ed83600a55565b6112f76000600b55565b5196875260208701526000604087015260608601529116929081906080820190565b0390a280f35b806113199261132d82600b55565b6113376000600a55565b5196875260208701526040860152600060608601529116929081906080820190565b84517fbfa32be3000000000000000000000000000000000000000000000000000000008152fd5b85517faae75cf60000000000000000000000000000000000000000000000000000000081528088019283526001600160d01b0390911660208301529081906040010390fd5b86610650875192839263cbdafbe760e01b8452830161221a565b84517f01c096800000000000000000000000000000000000000000000000000000000081523381880190815281906020010390fd5b34610338576000366003190112610338576020601054604051908152f35b8015150361033857565b346103385760403660031901126103385760043561145981610327565b60243561146581611432565b6001600160a01b0382169182156114f5576114b690610994336001600160a01b03166000527f80bb2b638cc20bc4d0a60d66940f3ab4a00c1d7b313497ca82fb0b4ab0079305602052604060002090565b9015159060ff1981541660ff83161790556040519081527f17307eab39ab6107e8899845ad3d59bd9653f200f220920489ca2b5937696c3160203392a3005b602483604051907f5b08ba180000000000000000000000000000000000000000000000000000000082526004820152fd5b6020600319820112610338576004359067ffffffffffffffff8211610338576115519160040161102e565b9091565b346103385761156336611526565b9061156c6134fa565b602061158c610c18602061157e6122be565b01516001600160f81b031690565b926115956135b7565b6115b16115ac85600052600e602052604060002090565b6122ea565b9167ffffffffffffffff806115e7846115e26115d5885167ffffffffffffffff1690565b67ffffffffffffffff1690565b61225a565b11611871576116669061160990855167ffffffffffffffff1690851690613813565b602085015167ffffffffffffffff1661164e6040809701519161163d61162d6119bb565b67ffffffffffffffff9095168552565b67ffffffffffffffff166020840152565b8582015261122e87600052600e602052604060002090565b60009485549060ff9460ff8084169360081c1692600854966116996116948861168e8b61224c565b9a61225a565b600855565b895b8781106116e2578a8a8a8a835b8181106116b3578480f35b806116dc6116cc6116c7600194868961382f565b613851565b6116d6838761225a565b90613e94565b016116a8565b8961171261170b611702848c6116fc6116c783838961382f565b9561382f565b8a81019061385b565b3691613891565b90815185810361185857508690898c8f805b8982106117e45750506001600160a01b038695936117cb6117c6969461176d60019a7f38f7010e1714c2785562f89e75c8d417cb1908bd47a9e84cf5db470ad60c44cf9661225a565b9788916117b261177c8a6137e4565b91826117866119ae565b918b83528201526117a185600052600d602052604060002090565b906020600191805184550151910155565b6112b788600052600f602052604060002090565b6138e7565b6117db8b51928392169582611dbb565b0390a40161169b565b9250929350506117fe6117f78386613256565b5160ff1690565b9086808316911681111561183e578a106118225760019091018c8b918a9493611724565b8751639fb72f1760e01b815260ff919091166004820152602490fd5b8851634663ee2b60e01b8152806106508760048301611dbb565b86516367982af760e01b81526004810191909152602490fd5b61065061188d846115e26115d5885167ffffffffffffffff1690565b6040519182917f300a29bf000000000000000000000000000000000000000000000000000000008352600483019190602083019252565b34610338576000806003193601126107fe576118de6134fa565b610c2960105482601055336001600160a01b036003541661355d565b34610338576000366003190112610338576020600154604051908152f35b3461033857600036600319011261033857602060ff60005416604051908152f35b634e487b7160e01b600052604160045260246000fd5b6040810190811067ffffffffffffffff82111761196b57604052565b611939565b6020810190811067ffffffffffffffff82111761196b57604052565b90601f8019910116810190811067ffffffffffffffff82111761196b57604052565b604051906103488261194f565b604051906060820182811067ffffffffffffffff82111761196b57604052565b60405190610180820182811067ffffffffffffffff82111761196b57604052565b67ffffffffffffffff811161196b57601f01601f191660200190565b929192611a24826119fc565b91611a32604051938461198c565b829481845281830111610338578281602093846000960137010152565b3461033857608036600319011261033857600435611a6c81610327565b60243590611a7982610327565b6044356064359267ffffffffffffffff8411610338573660238501121561033857611ab1610021943690602481600401359101611a18565b92610cbf838383612850565b3461033857602036600319011261033857611ad9600435613635565b50604051608081019080821067ffffffffffffffff83111761196b5761077491604052604281527f697066733a2f2f6261666b7265696365366f3770746e666535666c6a6668657260208201527f36356c6d637673636336333469656879626d786166777637686b726b796b746d60408201527f656d00000000000000000000000000000000000000000000000000000000000060608201526040519182916020835260208301906106a4565b3461033857602036600319011261033857600435600052600e60205260606040600020805490600167ffffffffffffffff9101549060405192818116845260401c1660208301526040820152f35b9080601f83011215610338578160206106f593359101611a18565b359060ff8216820361033857565b3461033857600319602036820112610338576004359067ffffffffffffffff908183116103385761018090833603011261033857611c396119db565b90611c468360040161033d565b8252602483013581811161033857611c649060043691860101611bd4565b602083015260448301359081116103385761002192611c8c6101649260043691840101611bd4565b6040840152611c9d60648201611bef565b6060840152611cae60848201611bef565b608084015260a481013560a084015260c481013560c084015260e481013560e0840152611cde610104820161033d565b610100840152611cf1610124820161033d565b6101208401526101448101356101408401520135610160820152612dd3565b346103385760003660031901126103385760206001600160a01b0360035416604051908152f35b34610338576000366003190112610338576020601254604051908152f35b34610338576000366003190112610338576040600c548151906001600160d01b038116825260d01c6020820152f35b90815180825260208080930193019160005b828110611da4575050505090565b835160ff1685529381019392810192600101611d96565b9060206106f5928181520190611d84565b3461033857602036600319011261033857610774611deb60043561326a565b604051918291602083526020830190611d84565b3461033857604036600319011261033857602060ff611e6b600435611e2381610327565b61099460243591611e3383610327565b6001600160a01b03166000527f80bb2b638cc20bc4d0a60d66940f3ab4a00c1d7b313497ca82fb0b4ab0079305602052604060002090565b54166040519015158152f35b3461033857602036600319011261033857600435600052600d602052604060002060018154910154906107746040519283928360209093929193604081019481520152565b3461033857602036600319011261033857610021600435611edc81610327565b611ee46134fa565b613411565b3461033857611ef736611526565b906004611f06836004546134af565b926001600160a01b03611f21858260035416309033906135c6565b612710611f30600554876134af565b048086039586116121ae576010549081018091116121ae57601055602090611f5e610c18602061157e6122be565b90611f676135b7565b611f7e6115ac83600052600e602052604060002090565b9667ffffffffffffffff9081611fa3876115e26115d58d5167ffffffffffffffff1690565b116121925761200f91611fbe6105ab611fd393600a5461225a565b895167ffffffffffffffff1690871690613813565b602089015167ffffffffffffffff16611ff76040809b01519161163d61162d6119bb565b8982015261122e84600052600e602052604060002090565b60009687549360ff808087169660081c16956008549861203b6116948a6120358d61224c565b9c61225a565b8b5b8b8a80831061207157908c8f92835b818110612057578480f35b8061206b6116cc6116c7600194868961382f565b0161204c565b61170b61208a84836116fc6116c783612093978961382f565b8881019061385b565b9081518581036121765750888f91888f848e955b8a8210612102575050926117c694926120e97f38f7010e1714c2785562f89e75c8d417cb1908bd47a9e84cf5db470ad60c44cf9361176d8a60019b9a9861225a565b6120f98d51928392169582611dbb565b0390a40161203d565b93955080945061211892506117f7915086613256565b9088808316911681111561215d578d1061213d57600190910191888f8d948d946120a7565b8951639fb72f1760e01b815260ff90911681870190815281906020010390fd5b8a51634663ee2b60e01b81528061065087828b01611dbb565b88516367982af760e01b81528086019182529081906020010390fd5b61065061188d876115e26115d58d5167ffffffffffffffff1690565b6121ce565b90816020910312610338575190565b6040513d6000823e3d90fd5b634e487b7160e01b600052601160045260246000fd5b6000198101919082116121ae57565b919082039182116121ae57565b6020600091939293612216816040810196610d20565b0152565b6020600191939293612216816040810196610d20565b90601e82018092116121ae57565b60010190816001116121ae57565b90600182018092116121ae57565b919082018092116121ae57565b90600182811c92168015612297575b602083101461228157565b634e487b7160e01b600052602260045260246000fd5b91607f1691612276565b60115480151590816122b257501590565b60095460081c10919050565b604051906122cb8261194f565b8160095460ff8116906002821015610d0a57602091835260081c910152565b60405167ffffffffffffffff9291606082018481118382101761196b576040916001918352839581548181168652841c1660208501520154910152565b9060016001600160f81b03809316019182116121ae57565b8051906002821015610d0a5760ff906020821991015160081b16911617600955565b6040519061236e8261194f565b600c546001600160d01b038116835260d01c6020830152565b90610e1065ffffffffffff809316019182116121ae57565b6123a76135b7565b6123af6122be565b80516123ba81610d00565b6123c381610d00565b610c2c5760208091016123e36115ac61121583516001600160f81b031690565b8083015167ffffffffffffffff169061240960015467ffffffffffffffff80941661225a565b8042106127ed57505167ffffffffffffffff1616156126f65750612435600160ff196009541617600955565b61243d612361565b906001600160d01b03918261245982516001600160d01b031690565b161515806126c5575b612659575061247f6103d86103d86002546001600160a01b031690565b6040517f10b0d1d20000000000000000000000000000000000000000000000000000000081526207a120600482015292908284602481845afa9384156104535760009461263a575b508347106125fd5761252283916124dd42612230565b6040519687809481937f1f53cf040000000000000000000000000000000000000000000000000000000083526004830160206207a12091939293604081019481520152565b03925af1928315610453576000936125de575b508083116125ac576103489291612562612571926125516119ae565b941684906001600160d01b03169052565b4265ffffffffffff1690830152565b7fffffffffffff000000000000000000000000000000000000000000000000000060206001600160d01b0383511692015160d01b1617600c55565b6040517fa6110e8400000000000000000000000000000000000000000000000000000000815260048101849052602490fd5b6125f6919350823d841161044c5761043d818361198c565b9138612535565b6010546040517f96fbe4dd000000000000000000000000000000000000000000000000000000008152600481019190915260248101859052604490fd5b612652919450833d851161044c5761043d818361198c565b92386124c7565b61267c8261266e83516001600160d01b031690565b92015165ffffffffffff1690565b6040517f56753a960000000000000000000000000000000000000000000000000000000081526001600160d01b0392909216600483015265ffffffffffff166024820152604490fd5b506126ee6126e36126de8484015165ffffffffffff1690565b612387565b65ffffffffffff1690565b421115612462565b806127356127c6936111db612718610c13610c1896516001600160f81b031690565b6127206119ae565b92600084528301906001600160f81b03169052565b600b547f59a23cf10d003eab0c59d7c706e3b4b20aeddabe02c2ae924bd12cfb8c3e4b64600a54612766818461225a565b9261277084600a55565b61277a6000600b55565b6127b6612791610c1887516001600160f81b031690565b9460405193849384606091949392608082019582526020820152600060408201520152565b0390a2516001600160f81b031690565b7ff6ca837b06142a107fde1fb0f9c3379c6d079aa7fa4de4437961f3eb61822214600080a2565b6040517f3fa5f83f0000000000000000000000000000000000000000000000000000000081526004810191909152602490fd5b3d1561284b573d90612831826119fc565b9161283f604051938461198c565b82523d6000602084013e565b606090565b6001600160a01b03908183168015612aea57849083612898836000527f80bb2b638cc20bc4d0a60d66940f3ab4a00c1d7b313497ca82fb0b4ab0079302602052604060002090565b541694331515806129e7575b506129259086612995575b6128eb816001600160a01b03166000527f80bb2b638cc20bc4d0a60d66940f3ab4a00c1d7b313497ca82fb0b4ab0079303602052604060002090565b60018154019055610906846000527f80bb2b638cc20bc4d0a60d66940f3ab4a00c1d7b313497ca82fb0b4ab0079302602052604060002090565b847fddf252ad1be2c89b69c2b068fc378daa952ba7f163c4a11628f55a4df523b3ef600080a4169182820361295957505050565b60649350604051927f64283d7b000000000000000000000000000000000000000000000000000000008452600484015260248301526044820152fd5b61299e84613e51565b6129da876001600160a01b03166000527f80bb2b638cc20bc4d0a60d66940f3ab4a00c1d7b313497ca82fb0b4ab0079303602052604060002090565b80546000190190556128af565b9192509080612a58575b156129ff57908591386128a4565b8585612a1f57604051637e27328960e01b81526004810191909152602490fd5b6040517f177e802f0000000000000000000000000000000000000000000000000000000081523360048201526024810191909152604490fd5b503385148015612aa0575b806129f15750856000527f80bb2b638cc20bc4d0a60d66940f3ab4a00c1d7b313497ca82fb0b4ab0079304602052338460406000205416146129f1565b5060ff612ae333610994886001600160a01b03166000527f80bb2b638cc20bc4d0a60d66940f3ab4a00c1d7b313497ca82fb0b4ab0079305602052604060002090565b5416612a63565b6024604051633250574960e11b815260006004820152fd5b90604051612b0f8161194f565b602060018294805484520154910152565b8115612b2a570490565b634e487b7160e01b600052601260045260246000fd5b90612b4d60095460ff1690565b612b5681610d00565b806106875750612b9f612b92836000527f80bb2b638cc20bc4d0a60d66940f3ab4a00c1d7b313497ca82fb0b4ab0079302602052604060002090565b546001600160a01b031690565b906001600160a01b03821615612d9157612bb88361368f565b612bd4612bcf84600052600d602052604060002090565b612b02565b91612be4610c1860095460081c90565b612bef8451916121e4565b03612d5f57612c0c6115ac8451600052600e602052604060002090565b93604085015194612c2c866112b78751600052600f602052604060002090565b5490811580612d4a575b612cf55750602085019485518714612c845785516040517f6ddaa595000000000000000000000000000000000000000000000000000000008152600481019190915260248101889052604490fd5b90919395507f38eb4599d8dccd3edd335a3f80fea5dbaae4b6cb0db2866060f333f6796db323929450612ccc612cc7612cc0600b549485612b20565b80946121f3565b600b55565b612cd682866137ce565b51604080516001600160a01b03969096168652602086019290925293a3565b7f1526f29dc67f9d8967789be9aa23179c7826c4a1c063c5834b5c4c495aaa07cb939592949650612d3f9150612d396115d5600b54925167ffffffffffffffff1690565b90612b20565b90612cd682866137ce565b50612d5a612d566122a1565b1590565b612c36565b6040517f2506adb500000000000000000000000000000000000000000000000000000000815260048101859052602490fd5b604051637e27328960e01b815260048101849052602490fd5b9015610b5c5790565b6040906001600160f81b036106f594931681528160208201520190611d84565b7ff0c57e16840df040f15088dc2f81fe391c3923bec73e23a9662efc9c229c6a0080549160ff8360401c16159267ffffffffffffffff811680159081612f33575b6001149081612f29575b159081612f20575b50612ef65767ffffffffffffffff1916600117909155612e4a9082612eb557612f3b565b612e5057565b7ff0c57e16840df040f15088dc2f81fe391c3923bec73e23a9662efc9c229c6a00805468ff000000000000000019169055604051600181527fc7f505b2f371ae2175ee4913f4499e1f2633a7b5936321eed1cdaeb6115181d29080602081015b0390a1565b7ff0c57e16840df040f15088dc2f81fe391c3923bec73e23a9662efc9c229c6a00805468ff0000000000000000191668010000000000000000179055612f3b565b60046040517ff92ee8a9000000000000000000000000000000000000000000000000000000008152fd5b90501538612e26565b303b159150612e1e565b859150612e14565b612f54612f4f82516001600160a01b031690565b613b15565b602081015190612f6a6040928383015190613b29565b60608101805160ff168015613222575051612f929060ff1660ff1660ff196000541617600055565b612fba612fa3608083015160ff1690565b61ff006000549160081b169061ff00191617600055565b60a08101805161025881106131f057505160015560c08101805180156131be575051600455612fec60e0820151600555565b610100810180516001600160a01b03919082168015613183575051613030906001600160a01b03166001600160a01b03166001600160a01b03196002541617600255565b61012082019061304782516001600160a01b031690565b90811615613148575061309c9161308761306b61016093516001600160a01b031690565b6001600160a01b03166001600160a01b03196003541617600355565b613095610140820151600655565b0151600755565b6006548015801561313e575b61310157506103489060006130bb6119bb565b8181524267ffffffffffffffff1660208201529182015260008052600e6020527fe710864318d4a32f37d6ce54cb3fadbef648dd12d8dbdf53973564d56b7f881c61122e565b60075491517f0758bd7700000000000000000000000000000000000000000000000000000000815260048101919091526024810191909152604490fd5b50600754156130a8565b83517f4d05c0480000000000000000000000000000000000000000000000000000000081526001600160a01b03919091166004820152602490fd5b84517f5e280fa50000000000000000000000000000000000000000000000000000000081526001600160a01b03919091166004820152602490fd5b83517fb05276a50000000000000000000000000000000000000000000000000000000081526004810191909152602490fd5b83517faf0b9fe10000000000000000000000000000000000000000000000000000000081526004810191909152602490fd5b83516367982af760e01b815260ff919091166004820152602490fd5b67ffffffffffffffff811161196b5760051b60200190565b8051821015610b5c5760209160051b010190565b60009081549060ff821661327d8161323e565b9360409261328e604051968761198c565b82865261329a8361323e565b60209190601f1901368884013760ff839660081c16948515918215955b8089106132d0575050505050505050506106f590613d0d565b88999a919293949596979894888190613407575b8015613400575b6133d7576132f88a613c7a565b6002908b82820a146001146133cc576001016fffffffffffffffffffffffffffffffff81116133c8579061332c910a613c7a565b96855194608096878701815281818801528c6060880152828701985b8a80820691048c5b8c8c8b600484106133b1575050905002018d811015613348576001959d9c969f9e949b9a506133a69399508e92985061339e919750613398613392869261223e565b60ff1690565b92613256565b9060ff169052565b0197959290956132b7565b92849591819560019552528c8c2001069101613350565b8980fd5b505061332c8a613c7a565b600485517ff34cfab6000000000000000000000000000000000000000000000000000000008152fd5b50876132eb565b50898b10156132e4565b6001600160a01b0380911690811561347e577f9016d09d72d40fdae2fd8ceac6b6234c7706214fd39c1cd1e609a0528c199300805490836001600160a01b03198316179055167f8be0079c531659141344cd1fd0a4f28419497f9722a3daafe3b4186f6b6457e0600080a3565b60246040517f1e4fbdf700000000000000000000000000000000000000000000000000000000815260006004820152fd5b818102929181159184041417156121ae57565b604080513381523460208201527f88a5966d370b9919b20f3e2c13ff65706f196a4e32cc2c12bf57088f885258749181908101612eb0565b6001600160a01b037f9016d09d72d40fdae2fd8ceac6b6234c7706214fd39c1cd1e609a0528c1993005416330361352d57565b60246040517f118cdaa7000000000000000000000000000000000000000000000000000000008152336004820152fd5b6040517fa9059cbb0000000000000000000000000000000000000000000000000000000060208201526001600160a01b03929092166024830152604480830193909352918152610348916135b260648361198c565b613dbc565b6135bf6122a1565b15610c6757565b9290604051927f23b872dd0000000000000000000000000000000000000000000000000000000060208501526001600160a01b03809216602485015216604483015260648201526064815260a081019181831067ffffffffffffffff84111761196b5761034892604052613dbc565b806000527f80bb2b638cc20bc4d0a60d66940f3ab4a00c1d7b313497ca82fb0b4ab00793026020526001600160a01b0360406000205416908115613677575090565b60249060405190637e27328960e01b82526004820152fd5b6001600160a01b036136ca826000527f80bb2b638cc20bc4d0a60d66940f3ab4a00c1d7b313497ca82fb0b4ab0079302602052604060002090565b54168160008215928315613745575b61370c836000527f80bb2b638cc20bc4d0a60d66940f3ab4a00c1d7b313497ca82fb0b4ab0079302602052604060002090565b6001600160a01b031981541690557fddf252ad1be2c89b69c2b068fc378daa952ba7f163c4a11628f55a4df523b3ef8280a46136775750565b613778836000527f80bb2b638cc20bc4d0a60d66940f3ab4a00c1d7b313497ca82fb0b4ab0079304602052604060002090565b6001600160a01b031981541690556137c2816001600160a01b03166000527f80bb2b638cc20bc4d0a60d66940f3ab4a00c1d7b313497ca82fb0b4ab0079303602052604060002090565b821981540190556136d9565b90610348916001600160a01b036003541661355d565b906000805b835182101561380e576001908160ff6138028588613256565b51161b179101906137e9565b925050565b91909167ffffffffffffffff808094169116019182116121ae57565b9190811015610b5c5760051b81013590603e1981360301821215610338570190565b356106f581610327565b903590601e1981360301821215610338570180359067ffffffffffffffff821161033857602001918160051b3603831361033857565b929161389c8261323e565b916138aa604051938461198c565b829481845260208094019160051b810192831161033857905b8282106138d05750505050565b8380916138dc84611bef565b8152019101906138c3565b80546801000000000000000081101561196b5761390991600182018155610b44565b819291549060031b91821b91600019901b1916179055565b9081602091031261033857516106f581610476565b6106f593926001600160a01b0360809316825260006020830152604082015281606082015201906106a4565b90926106f594936080936001600160a01b038092168452166020830152604082015281606082015201906106a4565b91823b61399d57505050565b60206139c09160405180938192630a85bd0160e11b968784523360048501613936565b038160006001600160a01b0388165af160009181613a4d575b50613a1857826139e7612820565b8051919082613a1157604051633250574960e11b81526001600160a01b0383166004820152602490fd5b9050602001fd5b6001600160e01b03191603613a2a5750565b604051633250574960e11b81526001600160a01b03919091166004820152602490fd5b613a7091925060203d602011613a77575b613a68818361198c565b810190613921565b90386139d9565b503d613a5e565b91929092833b613a8f575b50505050565b613ab4916020916040519384928392630a85bd0160e11b978885523360048601613962565b038160006001600160a01b0388165af160009181613af4575b50613adb57826139e7612820565b6001600160e01b03191603613a2a575038808080613a89565b613b0e91925060203d602011613a7757613a68818361198c565b9038613acd565b61034890613b21614029565b611ee4614029565b9190613b33614029565b613b3b614029565b825167ffffffffffffffff811161196b577f80bb2b638cc20bc4d0a60d66940f3ab4a00c1d7b313497ca82fb0b4ab007930090613b8181613b7c8454612267565b614082565b602080601f8311600114613bca57509080613bb8926103489697600092613bbf575b50508160011b916000199060031b1c19161790565b90556141a4565b015190503880613ba3565b90601f19831696613c1c7f80bb2b638cc20bc4d0a60d66940f3ab4a00c1d7b313497ca82fb0b4ab00793006000527f37c58c799b6609234b945e882912ee9ad34948a1dfaa20a97485e1a7752bbf8190565b926000905b898210613c6257505090839291600194610348989910613c49575b505050811b0190556141a4565b015160001960f88460031b161c19169055388080613c3c565b80600185968294968601518155019501930190613c21565b9060009160038111600114613c9a571519600116613c9457565b60019150565b9150600182811c810190835b848310613cb257505050565b9193508382048401811c91613ca6565b7f800000000000000000000000000000000000000000000000000000000000000081146121ae576000190190565b90600182019160006001841291129080158216911516176121ae57565b9081516001905b808210613d1f575050565b60ff613d2b8386613256565b51169260001983016001848213166121ae575b600081121580613da4575b15613d7e5780613d74613d626117f7613d79948a613256565b61339e613d6e84613cf0565b8a613256565b613cc2565b613d3e565b6001929391959461339e613d94613d9a93613cf0565b87613256565b0190929192613d14565b50613db56133926117f78389613256565b8510613d49565b6000806001600160a01b03613de693169360208151910182865af1613ddf612820565b90836142c9565b8051908115159182613e2d575b5050613dfc5750565b602490604051907f5274afe70000000000000000000000000000000000000000000000000000000082526004820152fd5b81925090602091810103126103385760200151613e4981611432565b153880613df3565b613e84906000527f80bb2b638cc20bc4d0a60d66940f3ab4a00c1d7b313497ca82fb0b4ab0079304602052604060002090565b6001600160a01b03198154169055565b9060405190613ea282611970565b600082526001600160a01b03808416908115612aea578290613eed826000527f80bb2b638cc20bc4d0a60d66940f3ab4a00c1d7b313497ca82fb0b4ab0079302602052604060002090565b5416918215159283613fd7575b613f36876001600160a01b03166000527f80bb2b638cc20bc4d0a60d66940f3ab4a00c1d7b313497ca82fb0b4ab0079303602052604060002090565b60018154019055613f7487610906856000527f80bb2b638cc20bc4d0a60d66940f3ab4a00c1d7b313497ca82fb0b4ab0079302602052604060002090565b7fddf252ad1be2c89b69c2b068fc378daa952ba7f163c4a11628f55a4df523b3ef600080a4613fa65761034892613991565b60246040517f73c6ac6e00000000000000000000000000000000000000000000000000000000815260006004820152fd5b613fe083613e51565b61401c816001600160a01b03166000527f80bb2b638cc20bc4d0a60d66940f3ab4a00c1d7b313497ca82fb0b4ab0079303602052604060002090565b8054600019019055613efa565b60ff7ff0c57e16840df040f15088dc2f81fe391c3923bec73e23a9662efc9c229c6a005460401c161561405857565b60046040517fd7e6bcf8000000000000000000000000000000000000000000000000000000008152fd5b601f811161408e575050565b6000907f80bb2b638cc20bc4d0a60d66940f3ab4a00c1d7b313497ca82fb0b4ab00793006000527f37c58c799b6609234b945e882912ee9ad34948a1dfaa20a97485e1a7752bbf81906020601f850160051c83019410614109575b601f0160051c01915b8281106140fe57505050565b8181556001016140f2565b90925082906140e9565b601f811161411f575050565b6000907f80bb2b638cc20bc4d0a60d66940f3ab4a00c1d7b313497ca82fb0b4ab00793016000527ff4bad0a69248f59680a4f2b3000328cec71a413447c96781cfe5996daa8c456e906020601f850160051c8301941061419a575b601f0160051c01915b82811061418f57505050565b818155600101614183565b909250829061417a565b90815167ffffffffffffffff811161196b577f80bb2b638cc20bc4d0a60d66940f3ab4a00c1d7b313497ca82fb0b4ab0079301906141eb816141e68454612267565b614113565b602080601f83116001146142225750819061421e939495600092613bbf5750508160011b916000199060031b1c19161790565b9055565b90601f198316956142747f80bb2b638cc20bc4d0a60d66940f3ab4a00c1d7b313497ca82fb0b4ab00793016000527ff4bad0a69248f59680a4f2b3000328cec71a413447c96781cfe5996daa8c456e90565b926000905b8882106142b157505083600195969710614298575b505050811b019055565b015160001960f88460031b161c1916905538808061428e565b80600185968294968601518155019501930190614279565b9061430857508051156142de57805190602001fd5b60046040517f1425ea42000000000000000000000000000000000000000000000000000000008152fd5b81511580614353575b614319575090565b6024906001600160a01b03604051917f9996b315000000000000000000000000000000000000000000000000000000008352166004820152fd5b50803b1561431156fea26469706673582212207eeed834632e4e8734ceef9305b40238bd69559bd4ed7897fdabe842ae8cbf1464736f6c63430008170033",
  "linkReferences": {},
  "deployedLinkReferences": {}
}