{
  "_format": "hh-sol-artifact-1",
  "contractName": "LooteryETHAdapter",
  "sourceName": "contracts/periphery/LooteryETHAdapter.sol",
  "abi": [
    {
      "inputs": [
        {
          "internalType": "address payable",
          "name": "_wrappedTokenAddress",
          "type": "address"
        }
      ],
      "stateMutability": "nonpayable",
      "type": "constructor"
    },
    {
      "anonymous": false,
      "inputs": [
        {
          "indexed": true,
          "internalType": "address",
          "name": "whomst",
          "type": "address"
        },
        {
          "indexed": false,
          "internalType": "uint256",
          "name": "amount",
          "type": "uint256"
        }
      ],
      "name": "JackpotSeeded",
      "type": "event"
    },
    {
      "inputs": [
        {
          "internalType": "address payable",
          "name": "looteryAddress",
          "type": "address"
        },
        {
          "components": [
            {
              "internalType": "address",
              "name": "whomst",
              "type": "address"
            },
            {
              "internalType": "uint8[]",
              "name": "picks",
              "type": "uint8[]"
            }
          ],
          "internalType": "struct Lootery.Ticket[]",
          "name": "tickets",
          "type": "tuple[]"
        }
      ],
      "name": "purchase",
      "outputs": [],
      "stateMutability": "payable",
      "type": "function"
    },
    {
      "inputs": [
        {
          "internalType": "address payable",
          "name": "looteryAddress",
          "type": "address"
        }
      ],
      "name": "seedJackpot",
      "outputs": [],
      "stateMutability": "payable",
      "type": "function"
    },
    {
      "inputs": [],
      "name": "wrappedToken",
      "outputs": [
        {
          "internalType": "contract IWETH9",
          "name": "",
          "type": "address"
        }
      ],
      "stateMutability": "view",
      "type": "function"
    }
  ],
  "bytecode": "0x60a03461007957601f61077638819003918201601f19168301916001600160401b0383118484101761007e5780849260209460405283398101031261007957516001600160a01b03811690819003610079576080526040516106e19081610095823960805181818160640152818161015801526104c60152f35b600080fd5b634e487b7160e01b600052604160045260246000fdfe6080806040526004908136101561001557600080fd5b600091823560e01c918263417478d5146104a05750816399610e921461008b575063996c6cc31461004557600080fd5b3461008857806003193601126100885760206040516001600160a01b037f0000000000000000000000000000000000000000000000000000000000000000168152f35b80fd5b826040366003190112610088576100a061062c565b67ffffffffffffffff6024351161049c5736602360243501121561049c5767ffffffffffffffff6024358401351161049c5760243583013560051b9236602485813501011161038e576040517f1209b1f600000000000000000000000000000000000000000000000000000000815260208183816001600160a01b0387165afa9081156103c1578491610466575b506024358201358181029180159083049091141715610453578034036103f5576001600160a01b037f00000000000000000000000000000000000000000000000000000000000000001690813b156103e657604051630d0e30db60e41b81528581858185875af180156103ea5790869392916103cc575b506020916101df9160405194858094819363095ea7b360e01b83528a8a8401602090939291936001600160a01b0360408201951681520152565b03925af180156103c157610392575b506001600160a01b0382163b1561038e5792604051937ff694c26c0000000000000000000000000000000000000000000000000000000085526024850160208287015260243582013590526044808601928601019160248035019185915b6024358201358310610296578680898181808a0381836001600160a01b038e165af1801561028b5761027b5750f35b61028490610647565b6100885780f35b6040513d84823e3d90fd5b9091929360431988820301825284356062196024353603018112156103865760248035820101356001600160a01b03811680910361038a578252602435810136819003604219016044909101351215610386576044602435820191602435010135019067ffffffffffffffff60248301351161038657602482013560051b360360448301136103865780604060206060930152602483013560408201520190604481019088905b6024810135821061035f5750505060208060019296019201930191909261024c565b909192833560ff811680910361038257815260209081019301916001019061033d565b8a80fd5b8780fd5b8880fd5b8280fd5b6103b39060203d6020116103ba575b6103ab8183610671565b810190610693565b50846101ee565b503d6103a1565b6040513d86823e3d90fd5b6103d99093919293610647565b6103e657908491876101a5565b8480fd5b6040513d88823e3d90fd5b6064826020604051917f08c379a0000000000000000000000000000000000000000000000000000000008352820152601b60248201527f4e65656420746f2070726f766964652065786163742066756e647300000000006044820152fd5b602484601184634e487b7160e01b835252fd5b90506020813d602011610494575b8161048160209383610671565b8101031261049057518561012e565b8380fd5b3d9150610474565b5080fd5b8382602036600319011261049c576104b661062c565b906001600160a01b0391828116927f00000000000000000000000000000000000000000000000000000000000000001694853b156103e657630d0e30db60e41b815284818481348a5af1801561062157610609575b5060206105488596869360405194858094819363095ea7b360e01b835234908a8401602090939291936001600160a01b0360408201951681520152565b03925af180156103c1576105ea575b50813b156105e65782916024839260405194859384927f02950fb900000000000000000000000000000000000000000000000000000000845234908401525af1801561028b576105d2575b506040513481527f0a45ec0e27527fa1519b691bab30b4fedbc1da4b3d04ba9d3663f1696be5410460203392a280f35b6105db90610647565b6100885780826105a2565b5050fd5b6106029060203d6020116103ba576103ab8183610671565b5084610557565b6105489594610619602092610647565b94955061050b565b6040513d87823e3d90fd5b600435906001600160a01b038216820361064257565b600080fd5b67ffffffffffffffff811161065b57604052565b634e487b7160e01b600052604160045260246000fd5b90601f8019910116810190811067ffffffffffffffff82111761065b57604052565b9081602091031261064257518015158103610642579056fea264697066735822122083e7fe2905abd6ff48ff408e79452294a8a74cb7b2e0218a851b7023989214bf64736f6c63430008170033",
  "linkReferences": {},
  "deployedLinkReferences": {}
}