{
  "_format": "hh-sol-artifact-1",
  "contractName": "LooteryFactory",
  "sourceName": "contracts/LooteryFactory.sol",
  "abi": [
    {
      "inputs": [],
      "stateMutability": "nonpayable",
      "type": "constructor"
    },
    {
      "inputs": [],
      "name": "AccessControlBadConfirmation",
      "type": "error"
    },
    {
      "inputs": [
        {
          "internalType": "address",
          "name": "account",
          "type": "address"
        },
        {
          "internalType": "bytes32",
          "name": "neededRole",
          "type": "bytes32"
        }
      ],
      "name": "AccessControlUnauthorizedAccount",
      "type": "error"
    },
    {
      "inputs": [
        {
          "internalType": "address",
          "name": "target",
          "type": "address"
        }
      ],
      "name": "AddressEmptyCode",
      "type": "error"
    },
    {
      "inputs": [],
      "name": "ERC1167FailedCreateClone",
      "type": "error"
    },
    {
      "inputs": [
        {
          "internalType": "address",
          "name": "implementation",
          "type": "address"
        }
      ],
      "name": "ERC1967InvalidImplementation",
      "type": "error"
    },
    {
      "inputs": [],
      "name": "ERC1967NonPayable",
      "type": "error"
    },
    {
      "inputs": [],
      "name": "FailedInnerCall",
      "type": "error"
    },
    {
      "inputs": [],
      "name": "InvalidInitialization",
      "type": "error"
    },
    {
      "inputs": [],
      "name": "NotInitializing",
      "type": "error"
    },
    {
      "inputs": [],
      "name": "UUPSUnauthorizedCallContext",
      "type": "error"
    },
    {
      "inputs": [
        {
          "internalType": "bytes32",
          "name": "slot",
          "type": "bytes32"
        }
      ],
      "name": "UUPSUnsupportedProxiableUUID",
      "type": "error"
    },
    {
      "anonymous": false,
      "inputs": [
        {
          "indexed": false,
          "internalType": "uint64",
          "name": "version",
          "type": "uint64"
        }
      ],
      "name": "Initialized",
      "type": "event"
    },
    {
      "anonymous": false,
      "inputs": [
        {
          "indexed": true,
          "internalType": "address",
          "name": "looteryProxy",
          "type": "address"
        },
        {
          "indexed": true,
          "internalType": "address",
          "name": "looteryImplementation",
          "type": "address"
        },
        {
          "indexed": true,
          "internalType": "address",
          "name": "deployer",
          "type": "address"
        },
        {
          "indexed": false,
          "internalType": "string",
          "name": "name",
          "type": "string"
        }
      ],
      "name": "LooteryLaunched",
      "type": "event"
    },
    {
      "anonymous": false,
      "inputs": [
        {
          "indexed": false,
          "internalType": "address",
          "name": "oldRandomiser",
          "type": "address"
        },
        {
          "indexed": false,
          "internalType": "address",
          "name": "newRandomiser",
          "type": "address"
        }
      ],
      "name": "RandomiserUpdated",
      "type": "event"
    },
    {
      "anonymous": false,
      "inputs": [
        {
          "indexed": true,
          "internalType": "bytes32",
          "name": "role",
          "type": "bytes32"
        },
        {
          "indexed": true,
          "internalType": "bytes32",
          "name": "previousAdminRole",
          "type": "bytes32"
        },
        {
          "indexed": true,
          "internalType": "bytes32",
          "name": "newAdminRole",
          "type": "bytes32"
        }
      ],
      "name": "RoleAdminChanged",
      "type": "event"
    },
    {
      "anonymous": false,
      "inputs": [
        {
          "indexed": true,
          "internalType": "bytes32",
          "name": "role",
          "type": "bytes32"
        },
        {
          "indexed": true,
          "internalType": "address",
          "name": "account",
          "type": "address"
        },
        {
          "indexed": true,
          "internalType": "address",
          "name": "sender",
          "type": "address"
        }
      ],
      "name": "RoleGranted",
      "type": "event"
    },
    {
      "anonymous": false,
      "inputs": [
        {
          "indexed": true,
          "internalType": "bytes32",
          "name": "role",
          "type": "bytes32"
        },
        {
          "indexed": true,
          "internalType": "address",
          "name": "account",
          "type": "address"
        },
        {
          "indexed": true,
          "internalType": "address",
          "name": "sender",
          "type": "address"
        }
      ],
      "name": "RoleRevoked",
      "type": "event"
    },
    {
      "anonymous": false,
      "inputs": [
        {
          "indexed": true,
          "internalType": "address",
          "name": "implementation",
          "type": "address"
        }
      ],
      "name": "Upgraded",
      "type": "event"
    },
    {
      "inputs": [],
      "name": "DEFAULT_ADMIN_ROLE",
      "outputs": [
        {
          "internalType": "bytes32",
          "name": "",
          "type": "bytes32"
        }
      ],
      "stateMutability": "view",
      "type": "function"
    },
    {
      "inputs": [],
      "name": "LOOTERY_MASTER_COPY_SLOT",
      "outputs": [
        {
          "internalType": "bytes32",
          "name": "",
          "type": "bytes32"
        }
      ],
      "stateMutability": "view",
      "type": "function"
    },
    {
      "inputs": [],
      "name": "NONCE_SLOT",
      "outputs": [
        {
          "internalType": "bytes32",
          "name": "",
          "type": "bytes32"
        }
      ],
      "stateMutability": "view",
      "type": "function"
    },
    {
      "inputs": [],
      "name": "RANDOMISER_SLOT",
      "outputs": [
        {
          "internalType": "bytes32",
          "name": "",
          "type": "bytes32"
        }
      ],
      "stateMutability": "view",
      "type": "function"
    },
    {
      "inputs": [],
      "name": "UPGRADE_INTERFACE_VERSION",
      "outputs": [
        {
          "internalType": "string",
          "name": "",
          "type": "string"
        }
      ],
      "stateMutability": "view",
      "type": "function"
    },
    {
      "inputs": [],
      "name": "computeNextAddress",
      "outputs": [
        {
          "internalType": "address",
          "name": "",
          "type": "address"
        }
      ],
      "stateMutability": "view",
      "type": "function"
    },
    {
      "inputs": [
        {
          "internalType": "string",
          "name": "name_",
          "type": "string"
        },
        {
          "internalType": "string",
          "name": "symbol_",
          "type": "string"
        },
        {
          "internalType": "uint8",
          "name": "numPicks_",
          "type": "uint8"
        },
        {
          "internalType": "uint8",
          "name": "maxBallValue_",
          "type": "uint8"
        },
        {
          "internalType": "uint256",
          "name": "gamePeriod_",
          "type": "uint256"
        },
        {
          "internalType": "uint256",
          "name": "ticketPrice_",
          "type": "uint256"
        },
        {
          "internalType": "uint256",
          "name": "communityFeeBps_",
          "type": "uint256"
        },
        {
          "internalType": "address",
          "name": "prizeToken_",
          "type": "address"
        },
        {
          "internalType": "uint256",
          "name": "seedJackpotDelay_",
          "type": "uint256"
        }
      ],
      "name": "create",
      "outputs": [
        {
          "internalType": "address",
          "name": "",
          "type": "address"
        }
      ],
      "stateMutability": "nonpayable",
      "type": "function"
    },
    {
      "inputs": [],
      "name": "getRandomiser",
      "outputs": [
        {
          "internalType": "address",
          "name": "",
          "type": "address"
        }
      ],
      "stateMutability": "view",
      "type": "function"
    },
    {
      "inputs": [
        {
          "internalType": "bytes32",
          "name": "role",
          "type": "bytes32"
        }
      ],
      "name": "getRoleAdmin",
      "outputs": [
        {
          "internalType": "bytes32",
          "name": "",
          "type": "bytes32"
        }
      ],
      "stateMutability": "view",
      "type": "function"
    },
    {
      "inputs": [
        {
          "internalType": "bytes32",
          "name": "role",
          "type": "bytes32"
        },
        {
          "internalType": "address",
          "name": "account",
          "type": "address"
        }
      ],
      "name": "grantRole",
      "outputs": [],
      "stateMutability": "nonpayable",
      "type": "function"
    },
    {
      "inputs": [
        {
          "internalType": "bytes32",
          "name": "role",
          "type": "bytes32"
        },
        {
          "internalType": "address",
          "name": "account",
          "type": "address"
        }
      ],
      "name": "hasRole",
      "outputs": [
        {
          "internalType": "bool",
          "name": "",
          "type": "bool"
        }
      ],
      "stateMutability": "view",
      "type": "function"
    },
    {
      "inputs": [
        {
          "internalType": "address",
          "name": "looteryMasterCopy",
          "type": "address"
        },
        {
          "internalType": "address",
          "name": "randomiser",
          "type": "address"
        }
      ],
      "name": "init",
      "outputs": [],
      "stateMutability": "nonpayable",
      "type": "function"
    },
    {
      "inputs": [],
      "name": "proxiableUUID",
      "outputs": [
        {
          "internalType": "bytes32",
          "name": "",
          "type": "bytes32"
        }
      ],
      "stateMutability": "view",
      "type": "function"
    },
    {
      "inputs": [
        {
          "internalType": "bytes32",
          "name": "role",
          "type": "bytes32"
        },
        {
          "internalType": "address",
          "name": "callerConfirmation",
          "type": "address"
        }
      ],
      "name": "renounceRole",
      "outputs": [],
      "stateMutability": "nonpayable",
      "type": "function"
    },
    {
      "inputs": [
        {
          "internalType": "bytes32",
          "name": "role",
          "type": "bytes32"
        },
        {
          "internalType": "address",
          "name": "account",
          "type": "address"
        }
      ],
      "name": "revokeRole",
      "outputs": [],
      "stateMutability": "nonpayable",
      "type": "function"
    },
    {
      "inputs": [
        {
          "internalType": "address",
          "name": "randomiser",
          "type": "address"
        }
      ],
      "name": "setRandomiser",
      "outputs": [],
      "stateMutability": "nonpayable",
      "type": "function"
    },
    {
      "inputs": [
        {
          "internalType": "bytes4",
          "name": "interfaceId",
          "type": "bytes4"
        }
      ],
      "name": "supportsInterface",
      "outputs": [
        {
          "internalType": "bool",
          "name": "",
          "type": "bool"
        }
      ],
      "stateMutability": "view",
      "type": "function"
    },
    {
      "inputs": [
        {
          "internalType": "address",
          "name": "newImplementation",
          "type": "address"
        },
        {
          "internalType": "bytes",
          "name": "data",
          "type": "bytes"
        }
      ],
      "name": "upgradeToAndCall",
      "outputs": [],
      "stateMutability": "payable",
      "type": "function"
    }
  ],
  "bytecode": "0x60a080604052346100cc57306080527ff0c57e16840df040f15088dc2f81fe391c3923bec73e23a9662efc9c229c6a009081549060ff8260401c166100bd57506001600160401b036002600160401b031982821601610078575b60405161133290816100d2823960805181818161092601526109d30152f35b6001600160401b031990911681179091556040519081527fc7f505b2f371ae2175ee4913f4499e1f2633a7b5936321eed1cdaeb6115181d290602090a1388080610059565b63f92ee8a960e01b8152600490fd5b600080fdfe6080604081815260048036101561001557600080fd5b600092833560e01c90816301ffc9a714610d5857508063154d642d14610d1d578063248a9ca314610cd45780632f2ff15d14610cab57806336568abe14610c4b5780634335722a14610c105780634f1ef2861461098257806352d1902d1461090957806375fea724146108c257806391d148541461085e578063a217fddf14610843578063ad3cb1cc146107bb578063b4a3374014610780578063ba7b0c831461047f578063d1e3e04e146103df578063d3984d8314610314578063d547741f146102b65763f09a4016146100e957600080fd5b346102b257816003193601126102b257610101610e12565b9061010a610df7565b7ff0c57e16840df040f15088dc2f81fe391c3923bec73e23a9662efc9c229c6a0092835460ff81871c16159367ffffffffffffffff8216801590816102aa575b60011490816102a0575b159081610297575b50610270575067ffffffffffffffff198116600117855583610251575b50610182611210565b61018a611210565b6001600160a01b0373ffffffffffffffffffffffffffffffffffffffff1991817f15244694a038682b3dfdfc9a7b4d57f194bac87a538c298bbb15836f93f3d08e9116838254161790557f7fd620ff951c5553351af243f95586d6c40fbde77386fa401565df721194304b92169082541617905561020733610fc7565b50610210578280f35b805468ff00000000000000001916905551600181527fc7f505b2f371ae2175ee4913f4499e1f2633a7b5936321eed1cdaeb6115181d290602090a138808280f35b68ffffffffffffffffff19166801000000000000000117845538610179565b86517ff92ee8a9000000000000000000000000000000000000000000000000000000008152fd5b9050153861015c565b303b159150610154565b86915061014a565b8280fd5b5090346102b257806003193601126102b257610310913561030b60016102da610df7565b938387527f02dd7bc7dec4dceedda775e58dd541e08a116c6c53815c0bd028192f7b62680060205286200154610f82565b611119565b5080f35b5050346103db57816003193601126103db576020906103537fb673313ff65da5deee919e9043f9d191abd6721ce5d457fcf870135fe1bceb99546111af565b605560436001600160a01b0392837f15244694a038682b3dfdfc9a7b4d57f194bac87a538c298bbb15836f93f3d08e5416908551913060388401526f5af43d82803e903d91602b57fd5bf3ff60248401526014830152733d602d80600a3d3981f3363d3d373d3d3d363d73825260588201526037600c82012060788201520120915191168152f35b5080fd5b5050346103db5760203660031901126103db577ff115e1bf2769958fce47eddffee49c3a3332b6f314038f9ab1e4463f6f6d32489061041c610e12565b610424610f11565b7f7fd620ff951c5553351af243f95586d6c40fbde77386fa401565df721194304b8054916001600160a01b03809116918273ffffffffffffffffffffffffffffffffffffffff1985161790558351921682526020820152a180f35b509190346103db57600319916101203684011261077d5767ffffffffffffffff9084358281116103db576104b69036908701610ef3565b906024358381116103db576104ce9036908801610ef3565b906044359360ff85168095036103db576064359460ff86168096036102b25760e435936001600160a01b0394858116809103610779577fb673313ff65da5deee919e9043f9d191abd6721ce5d457fcf870135fe1bceb9980546101049391600019821461076557600182019055610544906111af565b98877f15244694a038682b3dfdfc9a7b4d57f194bac87a538c298bbb15836f93f3d08e549a763d602d80600a3d3981f3363d3d373d3d3d363d7300000062ffffff8d60881c161789526e5af43d82803e903d91602b57fd5bf36effffffffffffffffffffffffffffff198d60781b1617602052603760098af5169b8c1561073d57887f7fd620ff951c5553351af243f95586d6c40fbde77386fa401565df721194304b5416928d3b1561073957938e93899897936106558f948e986106469d9a96519d8e9a8b9a7ffe441752000000000000000000000000000000000000000000000000000000008c5233908c015261016060248c01526101648b0190610eb3565b918983030160448a0152610eb3565b946064870152608486015260843560a486015260a43560c486015260c43560e486015282850152610124840152356101448301520381838c5af1801561072f576106e5575b505050602095507fd22adf12af1045715ab78a4d25c7ac99005301d0fc1895274a7172d018715de86106dc869286519182918a8352339716958a830190610eb3565b0390a451908152f35b821161071c57508452602095507fd22adf12af1045715ab78a4d25c7ac99005301d0fc1895274a7172d018715de86106dc8661069a565b80604189634e487b7160e01b6024945252fd5b87513d84823e3d90fd5b8880fd5b8d8c517fc2f868f4000000000000000000000000000000000000000000000000000000008152fd5b5060248760118f634e487b7160e01b835252fd5b8480fd5b80fd5b5050346103db57816003193601126103db57602090517f15244694a038682b3dfdfc9a7b4d57f194bac87a538c298bbb15836f93f3d08e8152f35b509190346103db57816003193601126103db578051918183019083821067ffffffffffffffff831117610830575061082c93508152600582527f352e302e30000000000000000000000000000000000000000000000000000000602083015251918291602083526020830190610eb3565b0390f35b80604186634e487b7160e01b6024945252fd5b5050346103db57816003193601126103db5751908152602090f35b50346102b257816003193601126102b2578160209360ff9261087e610df7565b903582527f02dd7bc7dec4dceedda775e58dd541e08a116c6c53815c0bd028192f7b62680086526001600160a01b0383832091168252855220541690519015158152f35b5050346103db57816003193601126103db576020906001600160a01b037f7fd620ff951c5553351af243f95586d6c40fbde77386fa401565df721194304b54169051908152f35b50913461077d578060031936011261077d57506001600160a01b037f000000000000000000000000000000000000000000000000000000000000000016300361097557602090517f360894a13ba1a3210667c828492db98dca3e2076cc3735a920a3ca505d382bbc8152f35b5163703e46dd60e11b8152fd5b5090806003193601126102b257610997610e12565b9060243567ffffffffffffffff81116107795736602382011215610779576109c89036906024818701359101610e7c565b6001600160a01b03807f000000000000000000000000000000000000000000000000000000000000000016803014908115610be2575b50610bd357610a0b610f11565b8316928251907f52d1902d00000000000000000000000000000000000000000000000000000000825260209182818881895afa889181610ba4575b50610a615760248787875191634c9c8ce360e01b8352820152fd5b7f360894a13ba1a3210667c828492db98dca3e2076cc3735a920a3ca505d382bbc96929591939690818103610b755750833b15610b5f57805473ffffffffffffffffffffffffffffffffffffffff19168217905583518792917fbc7cd75a20ee27fd9adebab32041f755214dbc6bffa90cc0225b39da2e5c2d3b8480a2865115610b2957505080858561031097519101845af4913d15610b1f573d610b11610b0882610e60565b92519283610e28565b81528581943d92013e611269565b5060609250611269565b9450945050505034610b3a57505080f35b7fb398979f000000000000000000000000000000000000000000000000000000008152fd5b60248383875191634c9c8ce360e01b8352820152fd5b836024918751917faa1d49a4000000000000000000000000000000000000000000000000000000008352820152fd5b9091508381813d8311610bcc575b610bbc8183610e28565b8101031261073957519038610a46565b503d610bb2565b84835163703e46dd60e11b8152fd5b9050817f360894a13ba1a3210667c828492db98dca3e2076cc3735a920a3ca505d382bbc54161415386109fe565b5050346103db57816003193601126103db57602090517f7fd620ff951c5553351af243f95586d6c40fbde77386fa401565df721194304b8152f35b509190346103db57806003193601126103db57610c66610df7565b90336001600160a01b03831603610c835750610310919235611119565b8390517f6697b232000000000000000000000000000000000000000000000000000000008152fd5b5090346102b257806003193601126102b2576103109135610ccf60016102da610df7565b611079565b50346102b25760203660031901126102b257816020936001923581527f02dd7bc7dec4dceedda775e58dd541e08a116c6c53815c0bd028192f7b62680085522001549051908152f35b5050346103db57816003193601126103db57602090517fb673313ff65da5deee919e9043f9d191abd6721ce5d457fcf870135fe1bceb998152f35b925050346102b25760203660031901126102b257357fffffffff0000000000000000000000000000000000000000000000000000000081168091036102b257602092507f7965db0b000000000000000000000000000000000000000000000000000000008114908115610dcd575b5015158152f35b7f01ffc9a70000000000000000000000000000000000000000000000000000000091501438610dc6565b602435906001600160a01b0382168203610e0d57565b600080fd5b600435906001600160a01b0382168203610e0d57565b90601f8019910116810190811067ffffffffffffffff821117610e4a57604052565b634e487b7160e01b600052604160045260246000fd5b67ffffffffffffffff8111610e4a57601f01601f191660200190565b929192610e8882610e60565b91610e966040519384610e28565b829481845281830111610e0d578281602093846000960137010152565b919082519283825260005b848110610edf575050826000602080949584010152601f8019910116010190565b602081830181015184830182015201610ebe565b9080601f83011215610e0d57816020610f0e93359101610e7c565b90565b3360009081527fb7db2dd08fcb62d0c9e08c51941cae53c267786a0b75803fb7960902fc8ef97d602052604081205460ff1615610f4b5750565b604490604051907fe2517d3f0000000000000000000000000000000000000000000000000000000082523360048301526024820152fd5b806000527f02dd7bc7dec4dceedda775e58dd541e08a116c6c53815c0bd028192f7b62680060205260406000203360005260205260ff6040600020541615610f4b5750565b6001600160a01b031660008181527fb7db2dd08fcb62d0c9e08c51941cae53c267786a0b75803fb7960902fc8ef97d60205260408120549091907f02dd7bc7dec4dceedda775e58dd541e08a116c6c53815c0bd028192f7b6268009060ff16611074578280526020526040822081835260205260408220600160ff1982541617905533917f2f8788117e7eff1d82e926ec794901d17c78024a50270940304540a733656f0d8180a4600190565b505090565b906000918083527f02dd7bc7dec4dceedda775e58dd541e08a116c6c53815c0bd028192f7b626800806020526001600160a01b036040852093169283855260205260ff60408520541615600014611113578184526020526040832082845260205260408320600160ff198254161790557f2f8788117e7eff1d82e926ec794901d17c78024a50270940304540a733656f0d339380a4600190565b50505090565b906000918083527f02dd7bc7dec4dceedda775e58dd541e08a116c6c53815c0bd028192f7b626800806020526001600160a01b036040852093169283855260205260ff60408520541660001461111357818452602052604083208284526020526040832060ff1981541690557ff6391f5c32d9c69d2a47ea670b442974b53935d1edc7fd64eb21e047a839171b339380a4600190565b60405160208101918252604080820152600760608201527f6c6f6f746572790000000000000000000000000000000000000000000000000060808201526080815260a0810181811067ffffffffffffffff821117610e4a5760405251902090565b60ff7ff0c57e16840df040f15088dc2f81fe391c3923bec73e23a9662efc9c229c6a005460401c161561123f57565b60046040517fd7e6bcf8000000000000000000000000000000000000000000000000000000008152fd5b906112a8575080511561127e57805190602001fd5b60046040517f1425ea42000000000000000000000000000000000000000000000000000000008152fd5b815115806112f3575b6112b9575090565b6024906001600160a01b03604051917f9996b315000000000000000000000000000000000000000000000000000000008352166004820152fd5b50803b156112b156fea26469706673582212200237d2e1a4003c7bbd5b244d53ce5e20f0d51ee57c609686f3c2001edd0ee8d464736f6c63430008170033",
  "linkReferences": {},
  "deployedLinkReferences": {}
}