{
  "_format": "hh-sol-artifact-1",
  "contractName": "Lootery",
  "sourceName": "contracts/Lootery.sol",
  "abi": [
    {
      "inputs": [],
      "stateMutability": "nonpayable",
      "type": "constructor"
    },
    {
      "inputs": [
        {
          "internalType": "address",
          "name": "target",
          "type": "address"
        }
      ],
      "name": "AddressEmptyCode",
      "type": "error"
    },
    {
      "inputs": [
        {
          "internalType": "address",
          "name": "account",
          "type": "address"
        }
      ],
      "name": "AddressInsufficientBalance",
      "type": "error"
    },
    {
      "inputs": [
        {
          "internalType": "address",
          "name": "caller",
          "type": "address"
        }
      ],
      "name": "CallerNotRandomiser",
      "type": "error"
    },
    {
      "inputs": [
        {
          "internalType": "uint256",
          "name": "tokenId",
          "type": "uint256"
        }
      ],
      "name": "ClaimWindowMissed",
      "type": "error"
    },
    {
      "inputs": [
        {
          "internalType": "address",
          "name": "sender",
          "type": "address"
        },
        {
          "internalType": "uint256",
          "name": "tokenId",
          "type": "uint256"
        },
        {
          "internalType": "address",
          "name": "owner",
          "type": "address"
        }
      ],
      "name": "ERC721IncorrectOwner",
      "type": "error"
    },
    {
      "inputs": [
        {
          "internalType": "address",
          "name": "operator",
          "type": "address"
        },
        {
          "internalType": "uint256",
          "name": "tokenId",
          "type": "uint256"
        }
      ],
      "name": "ERC721InsufficientApproval",
      "type": "error"
    },
    {
      "inputs": [
        {
          "internalType": "address",
          "name": "approver",
          "type": "address"
        }
      ],
      "name": "ERC721InvalidApprover",
      "type": "error"
    },
    {
      "inputs": [
        {
          "internalType": "address",
          "name": "operator",
          "type": "address"
        }
      ],
      "name": "ERC721InvalidOperator",
      "type": "error"
    },
    {
      "inputs": [
        {
          "internalType": "address",
          "name": "owner",
          "type": "address"
        }
      ],
      "name": "ERC721InvalidOwner",
      "type": "error"
    },
    {
      "inputs": [
        {
          "internalType": "address",
          "name": "receiver",
          "type": "address"
        }
      ],
      "name": "ERC721InvalidReceiver",
      "type": "error"
    },
    {
      "inputs": [
        {
          "internalType": "address",
          "name": "sender",
          "type": "address"
        }
      ],
      "name": "ERC721InvalidSender",
      "type": "error"
    },
    {
      "inputs": [
        {
          "internalType": "uint256",
          "name": "tokenId",
          "type": "uint256"
        }
      ],
      "name": "ERC721NonexistentToken",
      "type": "error"
    },
    {
      "inputs": [],
      "name": "FailedInnerCall",
      "type": "error"
    },
    {
      "inputs": [],
      "name": "GameAlreadyDrawn",
      "type": "error"
    },
    {
      "inputs": [],
      "name": "GameInactive",
      "type": "error"
    },
    {
      "inputs": [
        {
          "internalType": "uint256",
          "name": "paid",
          "type": "uint256"
        },
        {
          "internalType": "uint256",
          "name": "expected",
          "type": "uint256"
        }
      ],
      "name": "IncorrectPaymentAmount",
      "type": "error"
    },
    {
      "inputs": [
        {
          "internalType": "uint256",
          "name": "value",
          "type": "uint256"
        }
      ],
      "name": "InsufficientJackpotSeed",
      "type": "error"
    },
    {
      "inputs": [
        {
          "internalType": "uint256",
          "name": "have",
          "type": "uint256"
        },
        {
          "internalType": "uint256",
          "name": "want",
          "type": "uint256"
        }
      ],
      "name": "InsufficientOperationalFunds",
      "type": "error"
    },
    {
      "inputs": [],
      "name": "InsufficientRandomWords",
      "type": "error"
    },
    {
      "inputs": [
        {
          "internalType": "uint256",
          "name": "ballValue",
          "type": "uint256"
        }
      ],
      "name": "InvalidBallValue",
      "type": "error"
    },
    {
      "inputs": [
        {
          "internalType": "uint256",
          "name": "gamePeriod",
          "type": "uint256"
        }
      ],
      "name": "InvalidGamePeriod",
      "type": "error"
    },
    {
      "inputs": [],
      "name": "InvalidInitialization",
      "type": "error"
    },
    {
      "inputs": [],
      "name": "InvalidInputs",
      "type": "error"
    },
    {
      "inputs": [
        {
          "internalType": "uint256",
          "name": "numPicks",
          "type": "uint256"
        }
      ],
      "name": "InvalidNumPicks",
      "type": "error"
    },
    {
      "inputs": [
        {
          "internalType": "address",
          "name": "prizeToken",
          "type": "address"
        }
      ],
      "name": "InvalidPrizeToken",
      "type": "error"
    },
    {
      "inputs": [
        {
          "internalType": "address",
          "name": "randomiser",
          "type": "address"
        }
      ],
      "name": "InvalidRandomiser",
      "type": "error"
    },
    {
      "inputs": [
        {
          "internalType": "uint256",
          "name": "delay",
          "type": "uint256"
        },
        {
          "internalType": "uint256",
          "name": "minValue",
          "type": "uint256"
        }
      ],
      "name": "InvalidSeedJackpotConfig",
      "type": "error"
    },
    {
      "inputs": [
        {
          "internalType": "uint256",
          "name": "ticketPrice",
          "type": "uint256"
        }
      ],
      "name": "InvalidTicketPrice",
      "type": "error"
    },
    {
      "inputs": [
        {
          "internalType": "address",
          "name": "renderer",
          "type": "address"
        }
      ],
      "name": "InvalidTicketSVGRenderer",
      "type": "error"
    },
    {
      "inputs": [
        {
          "internalType": "uint256",
          "name": "pickId",
          "type": "uint256"
        },
        {
          "internalType": "uint256",
          "name": "winningPickId",
          "type": "uint256"
        }
      ],
      "name": "NoWin",
      "type": "error"
    },
    {
      "inputs": [],
      "name": "NotInitializing",
      "type": "error"
    },
    {
      "inputs": [
        {
          "internalType": "address",
          "name": "owner",
          "type": "address"
        }
      ],
      "name": "OwnableInvalidOwner",
      "type": "error"
    },
    {
      "inputs": [
        {
          "internalType": "address",
          "name": "account",
          "type": "address"
        }
      ],
      "name": "OwnableUnauthorizedAccount",
      "type": "error"
    },
    {
      "inputs": [
        {
          "internalType": "uint256",
          "name": "secondsToWait",
          "type": "uint256"
        }
      ],
      "name": "RateLimited",
      "type": "error"
    },
    {
      "inputs": [
        {
          "internalType": "uint256",
          "name": "requestId",
          "type": "uint256"
        },
        {
          "internalType": "uint256",
          "name": "timestamp",
          "type": "uint256"
        }
      ],
      "name": "RequestAlreadyInFlight",
      "type": "error"
    },
    {
      "inputs": [
        {
          "internalType": "uint256",
          "name": "actual",
          "type": "uint256"
        },
        {
          "internalType": "uint208",
          "name": "expected",
          "type": "uint208"
        }
      ],
      "name": "RequestIdMismatch",
      "type": "error"
    },
    {
      "inputs": [
        {
          "internalType": "uint256",
          "name": "requestId",
          "type": "uint256"
        }
      ],
      "name": "RequestIdOverflow",
      "type": "error"
    },
    {
      "inputs": [
        {
          "internalType": "address",
          "name": "token",
          "type": "address"
        }
      ],
      "name": "SafeERC20FailedOperation",
      "type": "error"
    },
    {
      "inputs": [
        {
          "internalType": "uint256",
          "name": "value",
          "type": "uint256"
        }
      ],
      "name": "TicketsSoldOverflow",
      "type": "error"
    },
    {
      "inputs": [
        {
          "internalType": "address",
          "name": "to",
          "type": "address"
        },
        {
          "internalType": "uint256",
          "name": "value",
          "type": "uint256"
        },
        {
          "internalType": "bytes",
          "name": "reason",
          "type": "bytes"
        }
      ],
      "name": "TransferFailure",
      "type": "error"
    },
    {
      "inputs": [
        {
          "internalType": "enum Lootery.GameState",
          "name": "actual",
          "type": "uint8"
        },
        {
          "internalType": "enum Lootery.GameState",
          "name": "expected",
          "type": "uint8"
        }
      ],
      "name": "UnexpectedState",
      "type": "error"
    },
    {
      "inputs": [
        {
          "internalType": "uint8[]",
          "name": "picks",
          "type": "uint8[]"
        }
      ],
      "name": "UnsortedPicks",
      "type": "error"
    },
    {
      "inputs": [
        {
          "internalType": "uint256",
          "name": "deadline",
          "type": "uint256"
        }
      ],
      "name": "WaitLonger",
      "type": "error"
    },
    {
      "anonymous": false,
      "inputs": [
        {
          "indexed": true,
          "internalType": "address",
          "name": "owner",
          "type": "address"
        },
        {
          "indexed": true,
          "internalType": "address",
          "name": "approved",
          "type": "address"
        },
        {
          "indexed": true,
          "internalType": "uint256",
          "name": "tokenId",
          "type": "uint256"
        }
      ],
      "name": "Approval",
      "type": "event"
    },
    {
      "anonymous": false,
      "inputs": [
        {
          "indexed": true,
          "internalType": "address",
          "name": "owner",
          "type": "address"
        },
        {
          "indexed": true,
          "internalType": "address",
          "name": "operator",
          "type": "address"
        },
        {
          "indexed": false,
          "internalType": "bool",
          "name": "approved",
          "type": "bool"
        }
      ],
      "name": "ApprovalForAll",
      "type": "event"
    },
    {
      "anonymous": false,
      "inputs": [
        {
          "indexed": true,
          "internalType": "uint256",
          "name": "tokenId",
          "type": "uint256"
        },
        {
          "indexed": true,
          "internalType": "uint256",
          "name": "gameId",
          "type": "uint256"
        },
        {
          "indexed": false,
          "internalType": "address",
          "name": "whomst",
          "type": "address"
        },
        {
          "indexed": false,
          "internalType": "uint256",
          "name": "value",
          "type": "uint256"
        }
      ],
      "name": "ConsolationClaimed",
      "type": "event"
    },
    {
      "anonymous": false,
      "inputs": [
        {
          "indexed": true,
          "internalType": "uint256",
          "name": "gameId",
          "type": "uint256"
        }
      ],
      "name": "DrawSkipped",
      "type": "event"
    },
    {
      "anonymous": false,
      "inputs": [
        {
          "indexed": false,
          "internalType": "uint256",
          "name": "gameId",
          "type": "uint256"
        },
        {
          "indexed": false,
          "internalType": "uint8[]",
          "name": "winningPicks",
          "type": "uint8[]"
        }
      ],
      "name": "GameFinalised",
      "type": "event"
    },
    {
      "anonymous": false,
      "inputs": [
        {
          "indexed": true,
          "internalType": "address",
          "name": "to",
          "type": "address"
        },
        {
          "indexed": false,
          "internalType": "uint256",
          "name": "value",
          "type": "uint256"
        },
        {
          "indexed": false,
          "internalType": "uint256",
          "name": "gasUsed",
          "type": "uint256"
        },
        {
          "indexed": false,
          "internalType": "uint256",
          "name": "gasPrice",
          "type": "uint256"
        },
        {
          "indexed": false,
          "internalType": "bool",
          "name": "success",
          "type": "bool"
        }
      ],
      "name": "GasRefundAttempted",
      "type": "event"
    },
    {
      "anonymous": false,
      "inputs": [
        {
          "indexed": false,
          "internalType": "uint64",
          "name": "version",
          "type": "uint64"
        }
      ],
      "name": "Initialized",
      "type": "event"
    },
    {
      "anonymous": false,
      "inputs": [
        {
          "indexed": true,
          "internalType": "uint256",
          "name": "gameId",
          "type": "uint256"
        },
        {
          "indexed": false,
          "internalType": "uint256",
          "name": "unclaimedPayouts",
          "type": "uint256"
        },
        {
          "indexed": false,
          "internalType": "uint256",
          "name": "currentJackpot",
          "type": "uint256"
        },
        {
          "indexed": false,
          "internalType": "uint256",
          "name": "nextUnclaimedPayouts",
          "type": "uint256"
        },
        {
          "indexed": false,
          "internalType": "uint256",
          "name": "nextJackpot",
          "type": "uint256"
        }
      ],
      "name": "JackpotRollover",
      "type": "event"
    },
    {
      "anonymous": false,
      "inputs": [
        {
          "indexed": true,
          "internalType": "address",
          "name": "whomst",
          "type": "address"
        },
        {
          "indexed": false,
          "internalType": "uint256",
          "name": "amount",
          "type": "uint256"
        }
      ],
      "name": "JackpotSeeded",
      "type": "event"
    },
    {
      "anonymous": false,
      "inputs": [
        {
          "indexed": true,
          "internalType": "address",
          "name": "previousOwner",
          "type": "address"
        },
        {
          "indexed": true,
          "internalType": "address",
          "name": "newOwner",
          "type": "address"
        }
      ],
      "name": "OwnershipTransferred",
      "type": "event"
    },
    {
      "anonymous": false,
      "inputs": [
        {
          "indexed": false,
          "internalType": "address",
          "name": "sender",
          "type": "address"
        },
        {
          "indexed": false,
          "internalType": "uint256",
          "name": "amount",
          "type": "uint256"
        }
      ],
      "name": "Received",
      "type": "event"
    },
    {
      "anonymous": false,
      "inputs": [
        {
          "indexed": true,
          "internalType": "uint256",
          "name": "gameId",
          "type": "uint256"
        },
        {
          "indexed": true,
          "internalType": "address",
          "name": "whomst",
          "type": "address"
        },
        {
          "indexed": true,
          "internalType": "uint256",
          "name": "tokenId",
          "type": "uint256"
        },
        {
          "indexed": false,
          "internalType": "uint8[]",
          "name": "picks",
          "type": "uint8[]"
        }
      ],
      "name": "TicketPurchased",
      "type": "event"
    },
    {
      "anonymous": false,
      "inputs": [
        {
          "indexed": true,
          "internalType": "address",
          "name": "from",
          "type": "address"
        },
        {
          "indexed": true,
          "internalType": "address",
          "name": "to",
          "type": "address"
        },
        {
          "indexed": true,
          "internalType": "uint256",
          "name": "tokenId",
          "type": "uint256"
        }
      ],
      "name": "Transfer",
      "type": "event"
    },
    {
      "anonymous": false,
      "inputs": [
        {
          "indexed": false,
          "internalType": "address",
          "name": "to",
          "type": "address"
        },
        {
          "indexed": false,
          "internalType": "uint256",
          "name": "value",
          "type": "uint256"
        }
      ],
      "name": "Transferred",
      "type": "event"
    },
    {
      "anonymous": false,
      "inputs": [
        {
          "indexed": true,
          "internalType": "uint256",
          "name": "tokenId",
          "type": "uint256"
        },
        {
          "indexed": true,
          "internalType": "uint256",
          "name": "gameId",
          "type": "uint256"
        },
        {
          "indexed": false,
          "internalType": "address",
          "name": "whomst",
          "type": "address"
        },
        {
          "indexed": false,
          "internalType": "uint256",
          "name": "value",
          "type": "uint256"
        }
      ],
      "name": "WinningsClaimed",
      "type": "event"
    },
    {
      "inputs": [],
      "name": "accruedCommunityFees",
      "outputs": [
        {
          "internalType": "uint256",
          "name": "",
          "type": "uint256"
        }
      ],
      "stateMutability": "view",
      "type": "function"
    },
    {
      "inputs": [],
      "name": "apocalypseGameId",
      "outputs": [
        {
          "internalType": "uint256",
          "name": "",
          "type": "uint256"
        }
      ],
      "stateMutability": "view",
      "type": "function"
    },
    {
      "inputs": [
        {
          "internalType": "address",
          "name": "to",
          "type": "address"
        },
        {
          "internalType": "uint256",
          "name": "tokenId",
          "type": "uint256"
        }
      ],
      "name": "approve",
      "outputs": [],
      "stateMutability": "nonpayable",
      "type": "function"
    },
    {
      "inputs": [
        {
          "internalType": "address",
          "name": "owner",
          "type": "address"
        }
      ],
      "name": "balanceOf",
      "outputs": [
        {
          "internalType": "uint256",
          "name": "",
          "type": "uint256"
        }
      ],
      "stateMutability": "view",
      "type": "function"
    },
    {
      "inputs": [
        {
          "internalType": "uint256",
          "name": "tokenId",
          "type": "uint256"
        }
      ],
      "name": "claimWinnings",
      "outputs": [],
      "stateMutability": "nonpayable",
      "type": "function"
    },
    {
      "inputs": [],
      "name": "communityFeeBps",
      "outputs": [
        {
          "internalType": "uint256",
          "name": "",
          "type": "uint256"
        }
      ],
      "stateMutability": "view",
      "type": "function"
    },
    {
      "inputs": [
        {
          "internalType": "uint256",
          "name": "pickId",
          "type": "uint256"
        }
      ],
      "name": "computePicks",
      "outputs": [
        {
          "internalType": "uint8[]",
          "name": "picks",
          "type": "uint8[]"
        }
      ],
      "stateMutability": "view",
      "type": "function"
    },
    {
      "inputs": [
        {
          "internalType": "uint256",
          "name": "randomSeed",
          "type": "uint256"
        }
      ],
      "name": "computeWinningBalls",
      "outputs": [
        {
          "internalType": "uint8[]",
          "name": "balls",
          "type": "uint8[]"
        }
      ],
      "stateMutability": "view",
      "type": "function"
    },
    {
      "inputs": [],
      "name": "currentGame",
      "outputs": [
        {
          "internalType": "enum Lootery.GameState",
          "name": "state",
          "type": "uint8"
        },
        {
          "internalType": "uint248",
          "name": "id",
          "type": "uint248"
        }
      ],
      "stateMutability": "view",
      "type": "function"
    },
    {
      "inputs": [],
      "name": "draw",
      "outputs": [],
      "stateMutability": "nonpayable",
      "type": "function"
    },
    {
      "inputs": [
        {
          "internalType": "uint256",
          "name": "gameId",
          "type": "uint256"
        }
      ],
      "name": "gameData",
      "outputs": [
        {
          "internalType": "uint64",
          "name": "ticketsSold",
          "type": "uint64"
        },
        {
          "internalType": "uint64",
          "name": "startedAt",
          "type": "uint64"
        },
        {
          "internalType": "uint256",
          "name": "winningPickId",
          "type": "uint256"
        }
      ],
      "stateMutability": "view",
      "type": "function"
    },
    {
      "inputs": [],
      "name": "gamePeriod",
      "outputs": [
        {
          "internalType": "uint256",
          "name": "",
          "type": "uint256"
        }
      ],
      "stateMutability": "view",
      "type": "function"
    },
    {
      "inputs": [
        {
          "internalType": "uint256",
          "name": "tokenId",
          "type": "uint256"
        }
      ],
      "name": "getApproved",
      "outputs": [
        {
          "internalType": "address",
          "name": "",
          "type": "address"
        }
      ],
      "stateMutability": "view",
      "type": "function"
    },
    {
      "inputs": [
        {
          "components": [
            {
              "internalType": "address",
              "name": "owner",
              "type": "address"
            },
            {
              "internalType": "string",
              "name": "name",
              "type": "string"
            },
            {
              "internalType": "string",
              "name": "symbol",
              "type": "string"
            },
            {
              "internalType": "uint8",
              "name": "numPicks",
              "type": "uint8"
            },
            {
              "internalType": "uint8",
              "name": "maxBallValue",
              "type": "uint8"
            },
            {
              "internalType": "uint256",
              "name": "gamePeriod",
              "type": "uint256"
            },
            {
              "internalType": "uint256",
              "name": "ticketPrice",
              "type": "uint256"
            },
            {
              "internalType": "uint256",
              "name": "communityFeeBps",
              "type": "uint256"
            },
            {
              "internalType": "address",
              "name": "randomiser",
              "type": "address"
            },
            {
              "internalType": "address",
              "name": "prizeToken",
              "type": "address"
            },
            {
              "internalType": "uint256",
              "name": "seedJackpotDelay",
              "type": "uint256"
            },
            {
              "internalType": "uint256",
              "name": "seedJackpotMinValue",
              "type": "uint256"
            },
            {
              "internalType": "address",
              "name": "ticketSVGRenderer",
              "type": "address"
            }
          ],
          "internalType": "struct Lootery.InitConfig",
          "name": "initConfig",
          "type": "tuple"
        }
      ],
      "name": "init",
      "outputs": [],
      "stateMutability": "nonpayable",
      "type": "function"
    },
    {
      "inputs": [
        {
          "internalType": "address",
          "name": "owner",
          "type": "address"
        },
        {
          "internalType": "address",
          "name": "operator",
          "type": "address"
        }
      ],
      "name": "isApprovedForAll",
      "outputs": [
        {
          "internalType": "bool",
          "name": "",
          "type": "bool"
        }
      ],
      "stateMutability": "view",
      "type": "function"
    },
    {
      "inputs": [],
      "name": "isGameActive",
      "outputs": [
        {
          "internalType": "bool",
          "name": "",
          "type": "bool"
        }
      ],
      "stateMutability": "view",
      "type": "function"
    },
    {
      "inputs": [],
      "name": "jackpot",
      "outputs": [
        {
          "internalType": "uint256",
          "name": "",
          "type": "uint256"
        }
      ],
      "stateMutability": "view",
      "type": "function"
    },
    {
      "inputs": [],
      "name": "jackpotLastSeededAt",
      "outputs": [
        {
          "internalType": "uint256",
          "name": "",
          "type": "uint256"
        }
      ],
      "stateMutability": "view",
      "type": "function"
    },
    {
      "inputs": [],
      "name": "kill",
      "outputs": [],
      "stateMutability": "nonpayable",
      "type": "function"
    },
    {
      "inputs": [],
      "name": "maxBallValue",
      "outputs": [
        {
          "internalType": "uint8",
          "name": "",
          "type": "uint8"
        }
      ],
      "stateMutability": "view",
      "type": "function"
    },
    {
      "inputs": [],
      "name": "name",
      "outputs": [
        {
          "internalType": "string",
          "name": "",
          "type": "string"
        }
      ],
      "stateMutability": "view",
      "type": "function"
    },
    {
      "inputs": [],
      "name": "numPicks",
      "outputs": [
        {
          "internalType": "uint8",
          "name": "",
          "type": "uint8"
        }
      ],
      "stateMutability": "view",
      "type": "function"
    },
    {
      "inputs": [],
      "name": "owner",
      "outputs": [
        {
          "internalType": "address",
          "name": "",
          "type": "address"
        }
      ],
      "stateMutability": "view",
      "type": "function"
    },
    {
      "inputs": [
        {
          "internalType": "uint256",
          "name": "tokenId",
          "type": "uint256"
        }
      ],
      "name": "ownerOf",
      "outputs": [
        {
          "internalType": "address",
          "name": "",
          "type": "address"
        }
      ],
      "stateMutability": "view",
      "type": "function"
    },
    {
      "inputs": [
        {
          "components": [
            {
              "internalType": "address",
              "name": "whomst",
              "type": "address"
            },
            {
              "internalType": "uint8[]",
              "name": "picks",
              "type": "uint8[]"
            }
          ],
          "internalType": "struct Lootery.Ticket[]",
          "name": "tickets",
          "type": "tuple[]"
        }
      ],
      "name": "ownerPick",
      "outputs": [],
      "stateMutability": "nonpayable",
      "type": "function"
    },
    {
      "inputs": [],
      "name": "prizeToken",
      "outputs": [
        {
          "internalType": "address",
          "name": "",
          "type": "address"
        }
      ],
      "stateMutability": "view",
      "type": "function"
    },
    {
      "inputs": [
        {
          "components": [
            {
              "internalType": "address",
              "name": "whomst",
              "type": "address"
            },
            {
              "internalType": "uint8[]",
              "name": "picks",
              "type": "uint8[]"
            }
          ],
          "internalType": "struct Lootery.Ticket[]",
          "name": "tickets",
          "type": "tuple[]"
        }
      ],
      "name": "purchase",
      "outputs": [],
      "stateMutability": "nonpayable",
      "type": "function"
    },
    {
      "inputs": [
        {
          "internalType": "uint256",
          "name": "tokenId",
          "type": "uint256"
        }
      ],
      "name": "purchasedTickets",
      "outputs": [
        {
          "internalType": "uint256",
          "name": "gameId",
          "type": "uint256"
        },
        {
          "internalType": "uint256",
          "name": "pickId",
          "type": "uint256"
        }
      ],
      "stateMutability": "view",
      "type": "function"
    },
    {
      "inputs": [],
      "name": "randomiser",
      "outputs": [
        {
          "internalType": "address",
          "name": "",
          "type": "address"
        }
      ],
      "stateMutability": "view",
      "type": "function"
    },
    {
      "inputs": [],
      "name": "randomnessRequest",
      "outputs": [
        {
          "internalType": "uint208",
          "name": "requestId",
          "type": "uint208"
        },
        {
          "internalType": "uint48",
          "name": "timestamp",
          "type": "uint48"
        }
      ],
      "stateMutability": "view",
      "type": "function"
    },
    {
      "inputs": [
        {
          "internalType": "uint256",
          "name": "requestId",
          "type": "uint256"
        },
        {
          "internalType": "uint256[]",
          "name": "randomWords",
          "type": "uint256[]"
        }
      ],
      "name": "receiveRandomWords",
      "outputs": [],
      "stateMutability": "nonpayable",
      "type": "function"
    },
    {
      "inputs": [],
      "name": "renounceOwnership",
      "outputs": [],
      "stateMutability": "nonpayable",
      "type": "function"
    },
    {
      "inputs": [],
      "name": "rescueETH",
      "outputs": [],
      "stateMutability": "nonpayable",
      "type": "function"
    },
    {
      "inputs": [
        {
          "internalType": "address",
          "name": "tokenAddress",
          "type": "address"
        }
      ],
      "name": "rescueTokens",
      "outputs": [],
      "stateMutability": "nonpayable",
      "type": "function"
    },
    {
      "inputs": [
        {
          "internalType": "address",
          "name": "from",
          "type": "address"
        },
        {
          "internalType": "address",
          "name": "to",
          "type": "address"
        },
        {
          "internalType": "uint256",
          "name": "tokenId",
          "type": "uint256"
        }
      ],
      "name": "safeTransferFrom",
      "outputs": [],
      "stateMutability": "nonpayable",
      "type": "function"
    },
    {
      "inputs": [
        {
          "internalType": "address",
          "name": "from",
          "type": "address"
        },
        {
          "internalType": "address",
          "name": "to",
          "type": "address"
        },
        {
          "internalType": "uint256",
          "name": "tokenId",
          "type": "uint256"
        },
        {
          "internalType": "bytes",
          "name": "data",
          "type": "bytes"
        }
      ],
      "name": "safeTransferFrom",
      "outputs": [],
      "stateMutability": "nonpayable",
      "type": "function"
    },
    {
      "inputs": [
        {
          "internalType": "uint256",
          "name": "value",
          "type": "uint256"
        }
      ],
      "name": "seedJackpot",
      "outputs": [],
      "stateMutability": "nonpayable",
      "type": "function"
    },
    {
      "inputs": [],
      "name": "seedJackpotDelay",
      "outputs": [
        {
          "internalType": "uint256",
          "name": "",
          "type": "uint256"
        }
      ],
      "stateMutability": "view",
      "type": "function"
    },
    {
      "inputs": [],
      "name": "seedJackpotMinValue",
      "outputs": [
        {
          "internalType": "uint256",
          "name": "",
          "type": "uint256"
        }
      ],
      "stateMutability": "view",
      "type": "function"
    },
    {
      "inputs": [
        {
          "internalType": "address",
          "name": "operator",
          "type": "address"
        },
        {
          "internalType": "bool",
          "name": "approved",
          "type": "bool"
        }
      ],
      "name": "setApprovalForAll",
      "outputs": [],
      "stateMutability": "nonpayable",
      "type": "function"
    },
    {
      "inputs": [
        {
          "internalType": "address",
          "name": "renderer",
          "type": "address"
        }
      ],
      "name": "setTicketSVGRenderer",
      "outputs": [],
      "stateMutability": "nonpayable",
      "type": "function"
    },
    {
      "inputs": [
        {
          "internalType": "bytes4",
          "name": "interfaceId",
          "type": "bytes4"
        }
      ],
      "name": "supportsInterface",
      "outputs": [
        {
          "internalType": "bool",
          "name": "",
          "type": "bool"
        }
      ],
      "stateMutability": "view",
      "type": "function"
    },
    {
      "inputs": [],
      "name": "symbol",
      "outputs": [
        {
          "internalType": "string",
          "name": "",
          "type": "string"
        }
      ],
      "stateMutability": "view",
      "type": "function"
    },
    {
      "inputs": [],
      "name": "ticketPrice",
      "outputs": [
        {
          "internalType": "uint256",
          "name": "",
          "type": "uint256"
        }
      ],
      "stateMutability": "view",
      "type": "function"
    },
    {
      "inputs": [],
      "name": "ticketSVGRenderer",
      "outputs": [
        {
          "internalType": "address",
          "name": "",
          "type": "address"
        }
      ],
      "stateMutability": "view",
      "type": "function"
    },
    {
      "inputs": [
        {
          "internalType": "uint256",
          "name": "gameId",
          "type": "uint256"
        },
        {
          "internalType": "uint256",
          "name": "id",
          "type": "uint256"
        },
        {
          "internalType": "uint256",
          "name": "",
          "type": "uint256"
        }
      ],
      "name": "tokenByPickIdentity",
      "outputs": [
        {
          "internalType": "uint256",
          "name": "",
          "type": "uint256"
        }
      ],
      "stateMutability": "view",
      "type": "function"
    },
    {
      "inputs": [
        {
          "internalType": "uint256",
          "name": "tokenId",
          "type": "uint256"
        }
      ],
      "name": "tokenURI",
      "outputs": [
        {
          "internalType": "string",
          "name": "",
          "type": "string"
        }
      ],
      "stateMutability": "view",
      "type": "function"
    },
    {
      "inputs": [
        {
          "internalType": "address",
          "name": "from",
          "type": "address"
        },
        {
          "internalType": "address",
          "name": "to",
          "type": "address"
        },
        {
          "internalType": "uint256",
          "name": "tokenId",
          "type": "uint256"
        }
      ],
      "name": "transferFrom",
      "outputs": [],
      "stateMutability": "nonpayable",
      "type": "function"
    },
    {
      "inputs": [
        {
          "internalType": "address",
          "name": "newOwner",
          "type": "address"
        }
      ],
      "name": "transferOwnership",
      "outputs": [],
      "stateMutability": "nonpayable",
      "type": "function"
    },
    {
      "inputs": [],
      "name": "unclaimedPayouts",
      "outputs": [
        {
          "internalType": "uint256",
          "name": "",
          "type": "uint256"
        }
      ],
      "stateMutability": "view",
      "type": "function"
    },
    {
      "inputs": [],
      "name": "withdrawAccruedFees",
      "outputs": [],
      "stateMutability": "nonpayable",
      "type": "function"
    },
    {
      "stateMutability": "payable",
      "type": "receive"
    }
  ],
  "bytecode": "0x60808060405234620000bd577ff0c57e16840df040f15088dc2f81fe391c3923bec73e23a9662efc9c229c6a009081549060ff8260401c16620000ae57506001600160401b036002600160401b03198282160162000068575b6040516146f79081620000c38239f35b6001600160401b031990911681179091556040519081527fc7f505b2f371ae2175ee4913f4499e1f2633a7b5936321eed1cdaeb6115181d290602090a138808062000058565b63f92ee8a960e01b8152600490fd5b600080fdfe60806040526004361015610023575b361561001957600080fd5b6100216135a6565b005b60003560e01c8062ae3bf8146103525780630171984b1461034d57806301ffc9a71461034857806302950fb91461034357806306fdde031461033e578063081812fc14610339578063095ea7b3146103345780630c0ef2b01461032f5780630eecae211461032a5780631209b1f61461032557806318575c0c1461032057806320800a001461031b57806323b872dd146103165780632efb2d4114610311578063336f528a1461030c57806338aeb8361461030757806341c0e1b51461030257806342842e0e146102fd57806354dd386c146102f85780635f2bdd25146102f357806360b663bb146102ee5780636352211e146102e9578063677bd9ff146102e45780636b31ee01146102df57806370a08231146102da578063715018a6146102d557806382250a43146102d05780638bba0174146102cb5780638da5cb5b146102c657806395d89b41146102c15780639ab6e297146102bc578063a0c4615c146102b7578063a14916d9146102b2578063a22cb465146102ad578063ab69dd08146102a8578063acef672b146102a3578063ada82c7d1461029e578063ae46631314610299578063b130425114610294578063b88d4fde1461028f578063c097f54e1461028a578063c87b56dd14610285578063ccaf237f14610280578063d0ef024a1461027b578063d20831af14610276578063e02ae8ce14610271578063e0a4ddc91461026c578063e985e9c514610267578063efe2f0eb14610262578063f2fde38b1461025d5763f694c26c0361000e5761224e565b612221565b6121dc565b612164565b612145565b612116565b6120f8565b6120d1565b612083565b611f9d565b611f6a565b611eb4565b611e93565b611e75565b611e3f565b611d1a565b6117f6565b6116dd565b6116b5565b6114d4565b611485565b611383565b61133d565b61131f565b6112f2565b611276565b6111d2565b6111b4565b611198565b611169565b611139565b6110ee565b6110d0565b61109d565b610ff4565b610fa0565b610f46565b610f1f565b610f08565b610e5f565b610e3b565b610e1d565b610936565b610911565b6107a9565b61074b565b610717565b610559565b6104b8565b610488565b61037a565b6001600160a01b0381160361036857565b600080fd5b359061037882610357565b565b34610368576020366003190112610368576001600160a01b0360043561039f81610357565b6103a76135de565b6040517f70a082310000000000000000000000000000000000000000000000000000000081523060048201529116602082602481845afa9081156104835761002192600092610452575b50816104146104086003546001600160a01b031690565b6001600160a01b031690565b8214610423575b503390613641565b61044b9192506104396104429160115490612558565b600c5490612558565b600b5490612558565b903861041b565b61047591925060203d60201161047c575b61046d8183611c2e565b810190612518565b90386103f1565b503d610463565b612527565b34610368576000366003190112610368576020600554604051908152f35b6001600160e01b031981160361036857565b346103685760203660031901126103685760206001600160e01b03196004356104e0816104a6565b167f80ac58cd00000000000000000000000000000000000000000000000000000000811490811561052f575b811561051e575b506040519015158152f35b6301ffc9a760e01b91501438610513565b7f5b5e139f000000000000000000000000000000000000000000000000000000008114915061050c565b346103685760203660031901126103685760043561057561369b565b600a5460ff166105848161110c565b8061069e5750600754811061066b576013546006546105a381836125ce565b421061061957826105b342601355565b6105c76105c282600b546125ce565b600b55565b6105e9816105e06104086003546001600160a01b031690565b309033906136aa565b60405190815233907f0a45ec0e27527fa1519b691bab30b4fedbc1da4b3d04ba9d3663f1696be5410490602090a2005b6106679161062b6106309242926125ce565b612558565b6040519182917ff015865e000000000000000000000000000000000000000000000000000000008352600483019190602083019252565b0390fd5b6040517f7b4763210000000000000000000000000000000000000000000000000000000081526004810191909152602490fd5b6106679060405191829163cbdafbe760e01b835260048301612565565b60005b8381106106ce5750506000910152565b81810151838201526020016106be565b906020916106f7815180928185528580860191016106bb565b601f01601f1916010190565b9060206107149281815201906106de565b90565b3461036857600036600319011261036857610747610733612615565b6040519182916020835260208301906106de565b0390f35b346103685760203660031901126103685760043561076881613719565b506000527f80bb2b638cc20bc4d0a60d66940f3ab4a00c1d7b313497ca82fb0b4ab007930460205260206001600160a01b0360406000205416604051908152f35b34610368576040366003190112610368576004356107c681610357565b602435906107d382613719565b331515806108fe575b8061089b575b61086b578261002193610850926001600160a01b0380861691167f8c5be1e5ebec7d5bd14f71427d1e84f3dd0314c0f7b2291e5b200ac8c7c3b925600080a46000527f80bb2b638cc20bc4d0a60d66940f3ab4a00c1d7b313497ca82fb0b4ab0079304602052604060002090565b906001600160a01b03166001600160a01b0319825416179055565b60246040517fa9fbf51f000000000000000000000000000000000000000000000000000000008152336004820152fd5b5060ff6108f6336108de846001600160a01b03166000527f80bb2b638cc20bc4d0a60d66940f3ab4a00c1d7b313497ca82fb0b4ab0079305602052604060002090565b906001600160a01b0316600052602052604060002090565b5416156107e2565b50336001600160a01b03821614156107dc565b3461036857600036600319011261036857602061092c6126fd565b6040519015158152f35b3461036857600080600319360112610e1a575a61095161369b565b61095961271a565b80516109648161110c565b61096d8161110c565b610df3576020809101906109ac6109a761098e84516001600160f81b031690565b6001600160f81b0316600052600f602052604060002090565b612746565b8082015167ffffffffffffffff16906109d260015467ffffffffffffffff8094166125ce565b804210610dc057505167ffffffffffffffff1616610aff5750610a4a91610a12610a06610a4593516001600160f81b031690565b6001600160f81b031690565b7ff6ca837b06142a107fde1fb0f9c3379c6d079aa7fa4de4437961f3eb618222148580a2610a3e613795565b5a90612558565b6125a3565b620249f09081811115610af857505b610a76610a6e610a693a846127d8565b6127c1565b612710900490565b804710610ad85780838080807fe3eefb52e4bcc62ccd48dee30da27e3e0e5e7b9396fe60e8adc034def8cc000995335af190610ab061280b565b506040805191825260208201949094523a93810193909352151560608301523391608090a280f35b6040516396fbe4dd60e01b81524760048201526024810191909152604490fd5b9050610a59565b9050610b13600160ff19600a541617600a55565b610b1b612783565b906001600160d01b039182610b3782516001600160d01b031690565b16151580610d8f575b610d235750610b5d6104086104086002546001600160a01b031690565b6040517f10b0d1d20000000000000000000000000000000000000000000000000000000081526207a120600482015292908284602481845afa938415610483578694610d04575b50834710610ce557610bff8391610bba42612595565b6040519687809481937f1f53cf040000000000000000000000000000000000000000000000000000000083526004830160206207a12091939293604081019481520152565b03925af1928315610483578593610cc6575b50808311610c9457610a4592610c54610a4a9593610c45610c8f94610c34611c50565b941684906001600160d01b03169052565b4265ffffffffffff1690830152565b7fffffffffffff000000000000000000000000000000000000000000000000000060206001600160d01b0383511692015160d01b1617600d55565b610a3e565b6040517fa6110e8400000000000000000000000000000000000000000000000000000000815260048101849052602490fd5b610cde919350823d841161047c5761046d8183611c2e565b9138610c11565b6040516396fbe4dd60e01b815247600482015260248101859052604490fd5b610d1c919450833d851161047c5761046d8183611c2e565b9238610ba4565b610d4682610d3883516001600160d01b031690565b92015165ffffffffffff1690565b6040517f56753a960000000000000000000000000000000000000000000000000000000081526001600160d01b0392909216600483015265ffffffffffff166024820152604490fd5b50610db8610dad610da88484015165ffffffffffff1690565b6127a9565b65ffffffffffff1690565b421115610b40565b6040517f3fa5f83f0000000000000000000000000000000000000000000000000000000081526004810191909152602490fd5b6106679051610e018161110c565b60405191829163cbdafbe760e01b835260048301612565565b80fd5b34610368576000366003190112610368576020600454604051908152f35b3461036857600036600319011261036857602060ff60005460081c16604051908152f35b3461036857600080600319360112610e1a57610e796135de565b8080808047335af1610e8961280b565b9015610e93575080f35b476106676040519283927f59ed55cf00000000000000000000000000000000000000000000000000000000845233600485015260248401526060604484015260648301906106de565b606090600319011261036857600435610ef481610357565b90602435610f0181610357565b9060443590565b3461036857610021610f1936610edc565b9161283b565b346103685760003660031901126103685760206001600160a01b0360085416604051908152f35b346103685760003660031901126103685760206001600160a01b0360025416604051908152f35b634e487b7160e01b600052603260045260246000fd5b8054821015610f9b5760005260206000200190600090565b610f6d565b346103685760603660031901126103685760443560006004358152601060205260408120602435825260205260408120908154831015610e1a576020610fe68484610f83565b90546040519160031b1c8152f35b3461036857600080600319360112610e1a5761100e6135de565b6012546110735761101d61271a565b8051600281101561105f576110318161110c565b610df357611057610a06611052602061105c9401516001600160f81b031690565b612aed565b601255565b80f35b602483634e487b7160e01b81526021600452fd5b60046040517fe76abfdd000000000000000000000000000000000000000000000000000000008152fd5b34610368576100216110ae36610edc565b90604051926110bc84611c12565b600084526110cb83838361283b565b613f51565b34610368576000366003190112610368576020600754604051908152f35b34610368576000366003190112610368576020601254604051908152f35b6002111561111657565b634e487b7160e01b600052602160045260246000fd5b9060028210156111165752565b34610368576000366003190112610368576040600a5481519061115f8260ff831661112c565b60081c6020820152f35b34610368576020366003190112610368576020611187600435613719565b6001600160a01b0360405191168152f35b3461036857602036600319011261036857610021600435612b23565b34610368576000366003190112610368576020600b54604051908152f35b34610368576020366003190112610368576004356111ef81610357565b6001600160a01b038116156112455761123c6020916001600160a01b03166000527f80bb2b638cc20bc4d0a60d66940f3ab4a00c1d7b313497ca82fb0b4ab0079303602052604060002090565b54604051908152f35b60246040517f89c62b6400000000000000000000000000000000000000000000000000000000815260006004820152fd5b3461036857600080600319360112610e1a576112906135de565b806001600160a01b037f9016d09d72d40fdae2fd8ceac6b6234c7706214fd39c1cd1e609a0528c1993008054906001600160a01b031982169055167f8be0079c531659141344cd1fd0a4f28419497f9722a3daafe3b4186f6b6457e08280a380f35b346103685760203660031901126103685761002160043561131281610357565b61131a6135de565b613a76565b34610368576000366003190112610368576020600654604051908152f35b346103685760003660031901126103685760206001600160a01b037f9016d09d72d40fdae2fd8ceac6b6234c7706214fd39c1cd1e609a0528c1993005416604051908152f35b3461036857600080600319360112610e1a5760405190807f80bb2b638cc20bc4d0a60d66940f3ab4a00c1d7b313497ca82fb0b4ab007930180546113c6816125db565b8086529260209260019280841690811561145657506001146113ff575b610747876113f381890382611c2e565b60405191829182610703565b815293507ff4bad0a69248f59680a4f2b3000328cec71a413447c96781cfe5996daa8c456e5b838510611443575050505081016020016113f38261074738806113e3565b8054868601840152938201938101611425565b915050869550610747969350602092506113f394915060ff191682840152151560051b820101929338806113e3565b34610368576000366003190112610368576020600c54604051908152f35b9181601f840112156103685782359167ffffffffffffffff8311610368576020808501948460051b01011161036857565b3461036857604080600319360112610368576004803560243567ffffffffffffffff81116103685761150990369084016114a3565b9290916115216104086002546001600160a01b031690565b330361168057600a5460ff166115368161110c565b600181036116665750600d546001600160d01b031681810361162157505061157161155f611c50565b60008082526020909101819052600d55565b82156115fa57506115d661159361158d6001946115f094612d8d565b35613392565b7f4a2c5dc61d8caf543cef0b699bd08678003186170a4fff91cb694c4d9c1bdcad6115c0600a5460081c90565b9551806115ce848983612d96565b0390a1613b52565b926001600160f81b0316600052600f602052604060002090565b0155610021613795565b83517fbfa32be3000000000000000000000000000000000000000000000000000000008152fd5b85517faae75cf60000000000000000000000000000000000000000000000000000000081528084019283526001600160d01b0390911660208301529081906040010390fd5b82610667875192839263cbdafbe760e01b8452830161257f565b84517f01c096800000000000000000000000000000000000000000000000000000000081523381840190815281906020010390fd5b34610368576000366003190112610368576020601154604051908152f35b8015150361036857565b34610368576040366003190112610368576004356116fa81610357565b602435611706816116d3565b6001600160a01b03821691821561179657611757906108de336001600160a01b03166000527f80bb2b638cc20bc4d0a60d66940f3ab4a00c1d7b313497ca82fb0b4ab0079305602052604060002090565b9015159060ff1981541660ff83161790556040519081527f17307eab39ab6107e8899845ad3d59bd9653f200f220920489ca2b5937696c3160203392a3005b602483604051907f5b08ba180000000000000000000000000000000000000000000000000000000082526004820152fd5b6020600319820112610368576004359067ffffffffffffffff8211610368576117f2916004016114a3565b9091565b3461036857611804366117c7565b9061180d6135de565b602061182d610a06602061181f61271a565b01516001600160f81b031690565b9261183661369b565b61184d6109a785600052600f602052604060002090565b9167ffffffffffffffff806118838461187e611871885167ffffffffffffffff1690565b67ffffffffffffffff1690565b6125ce565b11611b885761196e906118a590855167ffffffffffffffff1690851690613b81565b602085015167ffffffffffffffff166118ea604080970151916118d96118c9611c7e565b67ffffffffffffffff9095168552565b67ffffffffffffffff166020840152565b8582015261190287600052600f602052604060002090565b90604060019167ffffffffffffffff8151168454908067ffffffffffffffff1983161786557fffffffffffffffffffffffffffffffff000000000000000000000000000000006fffffffffffffffff00000000000000006020850151861b169216171784550151910155565b60009485549060ff9460ff8084169360081c1692600954966119a161199c886119968b6125c0565b9a6125ce565b600955565b895b8781106119ea578a8a8a8a835b8181106119bb578480f35b806119e46119d46119cf6001948689613b9d565b613bbf565b6119de83876125ce565b906141f9565b016119b0565b89611a1a611a13611a0a848c611a046119cf838389613b9d565b95613b9d565b8a810190613bc9565b3691613bff565b908151858103611b6f57508690898c8f805b898210611afb5750506001600160a01b03869593611ae2611add9694611a7560019a7f38f7010e1714c2785562f89e75c8d417cb1908bd47a9e84cf5db470ad60c44cf966125ce565b978891611aba611a848a613b52565b9182611a8e611c50565b918b8352820152611aa985600052600e602052604060002090565b906020600191805184550151910155565b611ace886000526010602052604060002090565b90600052602052604060002090565b613c55565b611af28b51928392169582611f59565b0390a4016119a3565b925092935050611b15611b0e838661327e565b5160ff1690565b90868083169116811115611b55578a10611b395760019091018c8b918a9493611a2c565b8751639fb72f1760e01b815260ff919091166004820152602490fd5b8851634663ee2b60e01b8152806106678760048301611f59565b86516367982af760e01b81526004810191909152602490fd5b610667611ba48461187e611871885167ffffffffffffffff1690565b6040519182917f300a29bf000000000000000000000000000000000000000000000000000000008352600483019190602083019252565b634e487b7160e01b600052604160045260246000fd5b6040810190811067ffffffffffffffff821117611c0d57604052565b611bdb565b6020810190811067ffffffffffffffff821117611c0d57604052565b90601f8019910116810190811067ffffffffffffffff821117611c0d57604052565b6040519061037882611bf1565b604051906101a0820182811067ffffffffffffffff821117611c0d57604052565b604051906060820182811067ffffffffffffffff821117611c0d57604052565b67ffffffffffffffff8111611c0d57601f01601f191660200190565b929192611cc682611c9e565b91611cd46040519384611c2e565b829481845281830111610368578281602093846000960137010152565b9080601f830112156103685781602061071493359101611cba565b359060ff8216820361036857565b34610368576003196020368201126103685760043567ffffffffffffffff91828211610368576101a090823603011261036857611d55611c5d565b90611d628160040161036d565b8252602481013583811161036857611d809060043691840101611cf1565b6020830152604481013592831161036857610184611e3491611dab6100219560043691840101611cf1565b6040850152611dbc60648201611d0c565b6060850152611dcd60848201611d0c565b608085015260a481013560a085015260c481013560c085015260e481013560e0850152611dfd610104820161036d565b610100850152611e10610124820161036d565b6101208501526101448101356101408501526101648101356101608501520161036d565b610180820152612db6565b3461036857600080600319360112610e1a57611e596135de565b61105c60115482601155336001600160a01b0360035416613641565b34610368576000366003190112610368576020600154604051908152f35b3461036857600036600319011261036857602060ff60005416604051908152f35b3461036857608036600319011261036857600435611ed181610357565b60243590611ede82610357565b6044356064359267ffffffffffffffff8411610368573660238501121561036857611f16610021943690602481600401359101611cba565b926110cb83838361283b565b90815180825260208080930193019160005b828110611f42575050505090565b835160ff1685529381019392810192600101611f34565b906020610714928181520190611f22565b3461036857602036600319011261036857610747611f89600435613292565b604051918291602083526020830190611f22565b3461036857602036600319011261036857600435611fba81613719565b5060006001600160a01b036008541691611fd2612615565b92611fe2835460ff9060081c1690565b916120036001611ffc83600052600e602052604060002090565b0154613292565b9461203d604051968795869485947f6de319740000000000000000000000000000000000000000000000000000000086526004860161335e565b03915afa80156104835761074791600091612060575b5060405191829182610703565b61207d91503d806000833e6120758183611c2e565b8101906132ff565b38612053565b3461036857602036600319011261036857600435600052600f60205260606040600020805490600167ffffffffffffffff9101549060405192818116845260401c1660208301526040820152f35b346103685760003660031901126103685760206001600160a01b0360035416604051908152f35b34610368576000366003190112610368576020601354604051908152f35b34610368576000366003190112610368576040600d548151906001600160d01b038116825260d01c6020820152f35b3461036857602036600319011261036857610747611f89600435613392565b3461036857604036600319011261036857602060ff6121d060043561218881610357565b6108de6024359161219883610357565b6001600160a01b03166000527f80bb2b638cc20bc4d0a60d66940f3ab4a00c1d7b313497ca82fb0b4ab0079305602052604060002090565b54166040519015158152f35b3461036857602036600319011261036857600435600052600e602052604060002060018154910154906107476040519283928360209093929193604081019481520152565b346103685760203660031901126103685761002160043561224181610357565b6122496135de565b613508565b346103685761225c366117c7565b90600461226b836004546127d8565b926001600160a01b03612286858260035416309033906136aa565b612710612295600554876127d8565b0480860395861161251357601154908101809111612513576011556020906122c3610a06602061181f61271a565b906122cc61369b565b6122e36109a783600052600f602052604060002090565b9667ffffffffffffffff90816123088761187e6118718d5167ffffffffffffffff1690565b116124f757612374916123236105c261233893600b546125ce565b895167ffffffffffffffff1690871690613b81565b602089015167ffffffffffffffff1661235c6040809b0151916118d96118c9611c7e565b8982015261190284600052600f602052604060002090565b60009687549360ff808087169660081c1695600954986123a061199c8a61239a8d6125c0565b9c6125ce565b8b5b8b8a8083106123d657908c8f92835b8181106123bc578480f35b806123d06119d46119cf6001948689613b9d565b016123b1565b611a136123ef8483611a046119cf836123f89789613b9d565b88810190613bc9565b9081518581036124db5750888f91888f848e955b8a821061246757505092611add949261244e7f38f7010e1714c2785562f89e75c8d417cb1908bd47a9e84cf5db470ad60c44cf93611a758a60019b9a986125ce565b61245e8d51928392169582611f59565b0390a4016123a2565b93955080945061247d9250611b0e91508661327e565b908880831691168111156124c2578d106124a257600190910191888f8d948d9461240c565b8951639fb72f1760e01b815260ff90911681870190815281906020010390fd5b8a51634663ee2b60e01b81528061066787828b01611f59565b88516367982af760e01b81528086019182529081906020010390fd5b610667611ba48761187e6118718d5167ffffffffffffffff1690565b612533565b90816020910312610368575190565b6040513d6000823e3d90fd5b634e487b7160e01b600052601160045260246000fd5b60001981019190821161251357565b9190820391821161251357565b602060009193929361257b81604081019661112c565b0152565b602060019193929361257b81604081019661112c565b90601e820180921161251357565b90617530820180921161251357565b600101908160011161251357565b906001820180921161251357565b9190820180921161251357565b90600182811c9216801561260b575b60208310146125f557565b634e487b7160e01b600052602260045260246000fd5b91607f16916125ea565b604051906000827f80bb2b638cc20bc4d0a60d66940f3ab4a00c1d7b313497ca82fb0b4ab00793009182549261264a846125db565b808452936020916001918281169081156126d75750600114612676575b50505061037892500383611c2e565b60009081527f37c58c799b6609234b945e882912ee9ad34948a1dfaa20a97485e1a7752bbf819590935091905b8284106126bf5750610378945050508101602001388080612667565b855488850183015294850194879450928101926126a3565b925050506020925061037894915060ff191682840152151560051b820101388080612667565b601254801515908161270e57501590565b600a5460081c10919050565b6040519061272782611bf1565b81600a5460ff811690600282101561111657602091835260081c910152565b60405167ffffffffffffffff92916060820184811183821017611c0d576040916001918352839581548181168652841c1660208501520154910152565b6040519061279082611bf1565b600d546001600160d01b038116835260d01c6020830152565b90610e1065ffffffffffff8093160191821161251357565b90612af89182810292818404149015171561251357565b8181029291811591840414171561251357565b81156127f5570490565b634e487b7160e01b600052601260045260246000fd5b3d15612836573d9061281c82611c9e565b9161282a6040519384611c2e565b82523d6000602084013e565b606090565b6001600160a01b03908183168015612ad557849083612883836000527f80bb2b638cc20bc4d0a60d66940f3ab4a00c1d7b313497ca82fb0b4ab0079302602052604060002090565b541694331515806129d2575b506129109086612980575b6128d6816001600160a01b03166000527f80bb2b638cc20bc4d0a60d66940f3ab4a00c1d7b313497ca82fb0b4ab0079303602052604060002090565b60018154019055610850846000527f80bb2b638cc20bc4d0a60d66940f3ab4a00c1d7b313497ca82fb0b4ab0079302602052604060002090565b847fddf252ad1be2c89b69c2b068fc378daa952ba7f163c4a11628f55a4df523b3ef600080a4169182820361294457505050565b60649350604051927f64283d7b000000000000000000000000000000000000000000000000000000008452600484015260248301526044820152fd5b612989846141b6565b6129c5876001600160a01b03166000527f80bb2b638cc20bc4d0a60d66940f3ab4a00c1d7b313497ca82fb0b4ab0079303602052604060002090565b805460001901905561289a565b9192509080612a43575b156129ea579085913861288f565b8585612a0a57604051637e27328960e01b81526004810191909152602490fd5b6040517f177e802f0000000000000000000000000000000000000000000000000000000081523360048201526024810191909152604490fd5b503385148015612a8b575b806129dc5750856000527f80bb2b638cc20bc4d0a60d66940f3ab4a00c1d7b313497ca82fb0b4ab0079304602052338460406000205416146129dc565b5060ff612ace336108de886001600160a01b03166000527f80bb2b638cc20bc4d0a60d66940f3ab4a00c1d7b313497ca82fb0b4ab0079305602052604060002090565b5416612a4e565b6024604051633250574960e11b815260006004820152fd5b9060016001600160f81b038093160191821161251357565b90604051612b1281611bf1565b602060018294805484520154910152565b90612b30600a5460ff1690565b612b398161110c565b8061069e5750612b82612b75836000527f80bb2b638cc20bc4d0a60d66940f3ab4a00c1d7b313497ca82fb0b4ab0079302602052604060002090565b546001600160a01b031690565b906001600160a01b03821615612d7457612b9b8361390c565b612bb7612bb284600052600e602052604060002090565b612b05565b91612bc7610a06600a5460081c90565b612bd2845191612549565b03612d4257612bef6109a78451600052600f602052604060002090565b93604085015194612c0f86611ace87516000526010602052604060002090565b5490811580612d2d575b612cd85750602085019485518714612c675785516040517f6ddaa595000000000000000000000000000000000000000000000000000000008152600481019190915260248101889052604490fd5b90919395507f38eb4599d8dccd3edd335a3f80fea5dbaae4b6cb0db2866060f333f6796db323929450612caf612caa612ca3600c5494856127eb565b8094612558565b600c55565b612cb98286613a4b565b51604080516001600160a01b03969096168652602086019290925293a3565b7f1526f29dc67f9d8967789be9aa23179c7826c4a1c063c5834b5c4c495aaa07cb939592949650612d229150612d1c611871600c54925167ffffffffffffffff1690565b906127eb565b90612cb98286613a4b565b50612d3d612d396126fd565b1590565b612c19565b6040517f2506adb500000000000000000000000000000000000000000000000000000000815260048101859052602490fd5b604051637e27328960e01b815260048101849052602490fd5b9015610f9b5790565b6040906001600160f81b0361071494931681528160208201520190611f22565b7ff0c57e16840df040f15088dc2f81fe391c3923bec73e23a9662efc9c229c6a0080549160ff8360401c16159267ffffffffffffffff811680159081612f16575b6001149081612f0c575b159081612f03575b50612ed95767ffffffffffffffff1916600117909155612e2d9082612e9857612f1e565b612e3357565b7ff0c57e16840df040f15088dc2f81fe391c3923bec73e23a9662efc9c229c6a00805468ff000000000000000019169055604051600181527fc7f505b2f371ae2175ee4913f4499e1f2633a7b5936321eed1cdaeb6115181d29080602081015b0390a1565b7ff0c57e16840df040f15088dc2f81fe391c3923bec73e23a9662efc9c229c6a00805468ff0000000000000000191668010000000000000000179055612f1e565b60046040517ff92ee8a9000000000000000000000000000000000000000000000000000000008152fd5b90501538612e09565b303b159150612e01565b859150612df7565b612f37612f3282516001600160a01b031690565b613c8f565b602081015190612f4d6040928383015190613ca3565b60608101805160ff168015613218575051612f759060ff1660ff1660ff196000541617600055565b612f9d612f86608083015160ff1690565b61ff006000549160081b169061ff00191617600055565b60a08101805161025881106131e657505160015560c08101805180156131b4575051600455612fcf60e0820151600555565b610100810180516001600160a01b03919082168015613179575051613013906001600160a01b03166001600160a01b03166001600160a01b03196002541617600255565b61012082019061302a82516001600160a01b031690565b9081161561313e57505161305d906001600160a01b03166001600160a01b03166001600160a01b03196003541617600355565b61306b610140820151600655565b613079610160820151600755565b60065480158015613134575b6130f65750906130a661131a6101806103789401516001600160a01b031690565b60006130b0611c7e565b8181524267ffffffffffffffff1660208201529182015260008052600f6020527ff4803e074bd026baaf6ed2e288c9515f68c72fb7216eebdd7cae1718a53ec375611902565b60075492517f0758bd770000000000000000000000000000000000000000000000000000000081526004810191909152602481019290925250604490fd5b5060075415613085565b83517f4d05c0480000000000000000000000000000000000000000000000000000000081526001600160a01b03919091166004820152602490fd5b84517f5e280fa50000000000000000000000000000000000000000000000000000000081526001600160a01b03919091166004820152602490fd5b83517fb05276a50000000000000000000000000000000000000000000000000000000081526004810191909152602490fd5b83517faf0b9fe10000000000000000000000000000000000000000000000000000000081526004810191909152602490fd5b83516367982af760e01b815260ff919091166004820152602490fd5b67ffffffffffffffff8111611c0d5760051b60200190565b9061325682613234565b6132636040519182611c2e565b8281528092613274601f1991613234565b0190602036910137565b8051821015610f9b5760209160051b010190565b60ff9160ff600054166132a48161324c565b93600090815b61010081106132bc575b505050509050565b6001808088841c16146132df575b508383146132da576001016132aa565b6132b4565b8360001981146125135701926132f8838316918961327e565b52386132ca565b6020818303126103685780519067ffffffffffffffff8211610368570181601f8201121561036857805161333281611c9e565b926133406040519485611c2e565b818452602082840101116103685761071491602080850191016106bb565b9061071494929361337960ff926080855260808501906106de565b9460208401521660408201526060818403910152611f22565b60009081549060ff8216906133a68261324c565b9360ff819460081c169283158015935b8287106133cd57505050505050506107149061407b565b8697989293949596928683906134fe575b80156134f7575b6134cd576133f288613fe8565b6002908982820a146001146134c2576001016fffffffffffffffffffffffffffffffff81116134be5790613426910a613fe8565b946040938451938060809687870181528601528a606086015260208501965b8880820691048a5b8a600482106134a757905002018b8110156134455761348a9299985061348491975061349c939b9a9650600195509c9b939c6125b2565b60ff1690565b613494838c61327e565b9060ff169052565b0195919390936133b6565b8293600192938a52838c528a8a200106910161344d565b8780fd5b505061342688613fe8565b60046040517ff34cfab6000000000000000000000000000000000000000000000000000000008152fd5b50856133e5565b50878910156133de565b6001600160a01b03809116908115613575577f9016d09d72d40fdae2fd8ceac6b6234c7706214fd39c1cd1e609a0528c199300805490836001600160a01b03198316179055167f8be0079c531659141344cd1fd0a4f28419497f9722a3daafe3b4186f6b6457e0600080a3565b60246040517f1e4fbdf700000000000000000000000000000000000000000000000000000000815260006004820152fd5b604080513381523460208201527f88a5966d370b9919b20f3e2c13ff65706f196a4e32cc2c12bf57088f885258749181908101612e93565b6001600160a01b037f9016d09d72d40fdae2fd8ceac6b6234c7706214fd39c1cd1e609a0528c1993005416330361361157565b60246040517f118cdaa7000000000000000000000000000000000000000000000000000000008152336004820152fd5b6040517fa9059cbb0000000000000000000000000000000000000000000000000000000060208201526001600160a01b0392909216602483015260448083019390935291815261037891613696606483611c2e565b61412a565b6136a36126fd565b1561107357565b9290604051927f23b872dd0000000000000000000000000000000000000000000000000000000060208501526001600160a01b03809216602485015216604483015260648201526064815260a081019181831067ffffffffffffffff841117611c0d576103789260405261412a565b806000527f80bb2b638cc20bc4d0a60d66940f3ab4a00c1d7b313497ca82fb0b4ab00793026020526001600160a01b036040600020541690811561375b575090565b60249060405190637e27328960e01b82526004820152fd5b80519060028210156111165760ff906020821991015160081b16911617600a55565b6103786137a4600a5460081c90565b6137e560016137c6836001600160f81b0316600052600f602052604060002090565b0154611ace836001600160f81b03166000526010602052604060002090565b547f59a23cf10d003eab0c59d7c706e3b4b20aeddabe02c2ae924bd12cfb8c3e4b64600c5491600b5490156000146138c05761382181846125ce565b9061382b82600b55565b6138356000600c55565b60408051948552602085019190915260009084015260608301526001600160f81b03831691608090a25b61389161386b82612aed565b61388c613876611c50565b600081526001600160f81b039092166020830152565b613773565b61190261098e61389f611c7e565b600081524267ffffffffffffffff1660208201529260006040850152612aed565b806138cd61390492600c55565b6138d76000600b55565b6040805194855260208501829052840152600060608401526001600160f81b038416929081906080820190565b0390a261385f565b6001600160a01b03613947826000527f80bb2b638cc20bc4d0a60d66940f3ab4a00c1d7b313497ca82fb0b4ab0079302602052604060002090565b541681600082159283156139c2575b613989836000527f80bb2b638cc20bc4d0a60d66940f3ab4a00c1d7b313497ca82fb0b4ab0079302602052604060002090565b6001600160a01b031981541690557fddf252ad1be2c89b69c2b068fc378daa952ba7f163c4a11628f55a4df523b3ef8280a461375b5750565b6139f5836000527f80bb2b638cc20bc4d0a60d66940f3ab4a00c1d7b313497ca82fb0b4ab0079304602052604060002090565b6001600160a01b03198154169055613a3f816001600160a01b03166000527f80bb2b638cc20bc4d0a60d66940f3ab4a00c1d7b313497ca82fb0b4ab0079303602052604060002090565b82198154019055613956565b90610378916001600160a01b0360035416613641565b908160209103126103685751610714816116d3565b6001600160a01b031680158015613ad0575b613a9f576001600160a01b03196008541617600855565b602490604051907f64fd73040000000000000000000000000000000000000000000000000000000082526004820152fd5b506040516301ffc9a760e01b81527f86ff1054000000000000000000000000000000000000000000000000000000006004820152602081602481855afa90811561048357600091613b23575b5015613a88565b613b45915060203d602011613b4b575b613b3d8183611c2e565b810190613a61565b38613b1c565b503d613b33565b906000805b8351821015613b7c576001908160ff613b70858861327e565b51161b17910190613b57565b925050565b91909167ffffffffffffffff8080941691160191821161251357565b9190811015610f9b5760051b81013590603e1981360301821215610368570190565b3561071481610357565b903590601e1981360301821215610368570180359067ffffffffffffffff821161036857602001918160051b3603831361036857565b9291613c0a82613234565b91613c186040519384611c2e565b829481845260208094019160051b810192831161036857905b828210613c3e5750505050565b838091613c4a84611d0c565b815201910190613c31565b805468010000000000000000811015611c0d57613c7791600182018155610f83565b819291549060031b91821b91600019901b1916179055565b61037890613c9b61438e565b61224961438e565b9190613cad61438e565b613cb561438e565b825167ffffffffffffffff8111611c0d577f80bb2b638cc20bc4d0a60d66940f3ab4a00c1d7b313497ca82fb0b4ab007930090613cfb81613cf684546125db565b6143e7565b602080601f8311600114613d4457509080613d32926103789697600092613d39575b50508160011b916000199060031b1c19161790565b9055614509565b015190503880613d1d565b90601f19831696613d967f80bb2b638cc20bc4d0a60d66940f3ab4a00c1d7b313497ca82fb0b4ab00793006000527f37c58c799b6609234b945e882912ee9ad34948a1dfaa20a97485e1a7752bbf8190565b926000905b898210613ddc57505090839291600194610378989910613dc3575b505050811b019055614509565b015160001960f88460031b161c19169055388080613db6565b80600185968294968601518155019501930190613d9b565b908160209103126103685751610714816104a6565b61071493926001600160a01b0360809316825260006020830152604082015281606082015201906106de565b909261071494936080936001600160a01b038092168452166020830152604082015281606082015201906106de565b91823b613e7057505050565b6020613e939160405180938192630a85bd0160e11b968784523360048501613e09565b038160006001600160a01b0388165af160009181613f20575b50613eeb5782613eba61280b565b8051919082613ee457604051633250574960e11b81526001600160a01b0383166004820152602490fd5b9050602001fd5b6001600160e01b03191603613efd5750565b604051633250574960e11b81526001600160a01b03919091166004820152602490fd5b613f4391925060203d602011613f4a575b613f3b8183611c2e565b810190613df4565b9038613eac565b503d613f31565b91929092833b613f62575b50505050565b613f87916020916040519384928392630a85bd0160e11b978885523360048601613e35565b038160006001600160a01b0388165af160009181613fc7575b50613fae5782613eba61280b565b6001600160e01b03191603613efd575038808080613f5c565b613fe191925060203d602011613f4a57613f3b8183611c2e565b9038613fa0565b906000916003811160011461400857151960011661400257565b60019150565b9150600182811c810190835b84831061402057505050565b9193508382048401811c91614014565b7f80000000000000000000000000000000000000000000000000000000000000008114612513576000190190565b906001820191600060018412911290801582169115161761251357565b9081516001905b80821061408d575050565b60ff614099838661327e565b5116926000198301600184821316612513575b600081121580614112575b156140ec57806140e26140d0611b0e6140e7948a61327e565b6134946140dc8461405e565b8a61327e565b614030565b6140ac565b600192939195946134946141026141089361405e565b8761327e565b0190929192614082565b50614123613484611b0e838961327e565b85106140b7565b6000806001600160a01b0361415493169360208151910182865af161414d61280b565b908361462e565b805190811515918261419b575b505061416a5750565b602490604051907f5274afe70000000000000000000000000000000000000000000000000000000082526004820152fd5b6141ae9250602080918301019101613a61565b153880614161565b6141e9906000527f80bb2b638cc20bc4d0a60d66940f3ab4a00c1d7b313497ca82fb0b4ab0079304602052604060002090565b6001600160a01b03198154169055565b906040519061420782611c12565b600082526001600160a01b03808416908115612ad5578290614252826000527f80bb2b638cc20bc4d0a60d66940f3ab4a00c1d7b313497ca82fb0b4ab0079302602052604060002090565b541691821515928361433c575b61429b876001600160a01b03166000527f80bb2b638cc20bc4d0a60d66940f3ab4a00c1d7b313497ca82fb0b4ab0079303602052604060002090565b600181540190556142d987610850856000527f80bb2b638cc20bc4d0a60d66940f3ab4a00c1d7b313497ca82fb0b4ab0079302602052604060002090565b7fddf252ad1be2c89b69c2b068fc378daa952ba7f163c4a11628f55a4df523b3ef600080a461430b5761037892613e64565b60246040517f73c6ac6e00000000000000000000000000000000000000000000000000000000815260006004820152fd5b614345836141b6565b614381816001600160a01b03166000527f80bb2b638cc20bc4d0a60d66940f3ab4a00c1d7b313497ca82fb0b4ab0079303602052604060002090565b805460001901905561425f565b60ff7ff0c57e16840df040f15088dc2f81fe391c3923bec73e23a9662efc9c229c6a005460401c16156143bd57565b60046040517fd7e6bcf8000000000000000000000000000000000000000000000000000000008152fd5b601f81116143f3575050565b6000907f80bb2b638cc20bc4d0a60d66940f3ab4a00c1d7b313497ca82fb0b4ab00793006000527f37c58c799b6609234b945e882912ee9ad34948a1dfaa20a97485e1a7752bbf81906020601f850160051c8301941061446e575b601f0160051c01915b82811061446357505050565b818155600101614457565b909250829061444e565b601f8111614484575050565b6000907f80bb2b638cc20bc4d0a60d66940f3ab4a00c1d7b313497ca82fb0b4ab00793016000527ff4bad0a69248f59680a4f2b3000328cec71a413447c96781cfe5996daa8c456e906020601f850160051c830194106144ff575b601f0160051c01915b8281106144f457505050565b8181556001016144e8565b90925082906144df565b90815167ffffffffffffffff8111611c0d577f80bb2b638cc20bc4d0a60d66940f3ab4a00c1d7b313497ca82fb0b4ab0079301906145508161454b84546125db565b614478565b602080601f831160011461458757508190614583939495600092613d395750508160011b916000199060031b1c19161790565b9055565b90601f198316956145d97f80bb2b638cc20bc4d0a60d66940f3ab4a00c1d7b313497ca82fb0b4ab00793016000527ff4bad0a69248f59680a4f2b3000328cec71a413447c96781cfe5996daa8c456e90565b926000905b888210614616575050836001959697106145fd575b505050811b019055565b015160001960f88460031b161c191690553880806145f3565b806001859682949686015181550195019301906145de565b9061466d575080511561464357805190602001fd5b60046040517f1425ea42000000000000000000000000000000000000000000000000000000008152fd5b815115806146b8575b61467e575090565b6024906001600160a01b03604051917f9996b315000000000000000000000000000000000000000000000000000000008352166004820152fd5b50803b1561467656fea264697066735822122017864c2e39f857e096b8bd54d055965fd28aa42279244b442c7d53256d7614b664736f6c63430008170033",
  "linkReferences": {},
  "deployedLinkReferences": {}
}