{
  "_format": "hh-sol-artifact-1",
  "contractName": "LooteryFactory",
  "sourceName": "contracts/LooteryFactory.sol",
  "abi": [
    {
      "inputs": [],
      "stateMutability": "nonpayable",
      "type": "constructor"
    },
    {
      "inputs": [],
      "name": "AccessControlBadConfirmation",
      "type": "error"
    },
    {
      "inputs": [
        {
          "internalType": "address",
          "name": "account",
          "type": "address"
        },
        {
          "internalType": "bytes32",
          "name": "neededRole",
          "type": "bytes32"
        }
      ],
      "name": "AccessControlUnauthorizedAccount",
      "type": "error"
    },
    {
      "inputs": [
        {
          "internalType": "address",
          "name": "target",
          "type": "address"
        }
      ],
      "name": "AddressEmptyCode",
      "type": "error"
    },
    {
      "inputs": [],
      "name": "ERC1167FailedCreateClone",
      "type": "error"
    },
    {
      "inputs": [
        {
          "internalType": "address",
          "name": "implementation",
          "type": "address"
        }
      ],
      "name": "ERC1967InvalidImplementation",
      "type": "error"
    },
    {
      "inputs": [],
      "name": "ERC1967NonPayable",
      "type": "error"
    },
    {
      "inputs": [],
      "name": "FailedInnerCall",
      "type": "error"
    },
    {
      "inputs": [],
      "name": "InvalidInitialization",
      "type": "error"
    },
    {
      "inputs": [],
      "name": "NotInitializing",
      "type": "error"
    },
    {
      "inputs": [],
      "name": "UUPSUnauthorizedCallContext",
      "type": "error"
    },
    {
      "inputs": [
        {
          "internalType": "bytes32",
          "name": "slot",
          "type": "bytes32"
        }
      ],
      "name": "UUPSUnsupportedProxiableUUID",
      "type": "error"
    },
    {
      "anonymous": false,
      "inputs": [
        {
          "indexed": false,
          "internalType": "uint64",
          "name": "version",
          "type": "uint64"
        }
      ],
      "name": "Initialized",
      "type": "event"
    },
    {
      "anonymous": false,
      "inputs": [
        {
          "indexed": true,
          "internalType": "address",
          "name": "looteryProxy",
          "type": "address"
        },
        {
          "indexed": true,
          "internalType": "address",
          "name": "looteryImplementation",
          "type": "address"
        },
        {
          "indexed": true,
          "internalType": "address",
          "name": "deployer",
          "type": "address"
        },
        {
          "indexed": false,
          "internalType": "string",
          "name": "name",
          "type": "string"
        }
      ],
      "name": "LooteryLaunched",
      "type": "event"
    },
    {
      "anonymous": false,
      "inputs": [
        {
          "indexed": false,
          "internalType": "address",
          "name": "oldLooteryMasterCopy",
          "type": "address"
        },
        {
          "indexed": false,
          "internalType": "address",
          "name": "newLooteryMasterCopy",
          "type": "address"
        }
      ],
      "name": "LooteryMasterCopyUpdated",
      "type": "event"
    },
    {
      "anonymous": false,
      "inputs": [
        {
          "indexed": false,
          "internalType": "address",
          "name": "oldRandomiser",
          "type": "address"
        },
        {
          "indexed": false,
          "internalType": "address",
          "name": "newRandomiser",
          "type": "address"
        }
      ],
      "name": "RandomiserUpdated",
      "type": "event"
    },
    {
      "anonymous": false,
      "inputs": [
        {
          "indexed": true,
          "internalType": "bytes32",
          "name": "role",
          "type": "bytes32"
        },
        {
          "indexed": true,
          "internalType": "bytes32",
          "name": "previousAdminRole",
          "type": "bytes32"
        },
        {
          "indexed": true,
          "internalType": "bytes32",
          "name": "newAdminRole",
          "type": "bytes32"
        }
      ],
      "name": "RoleAdminChanged",
      "type": "event"
    },
    {
      "anonymous": false,
      "inputs": [
        {
          "indexed": true,
          "internalType": "bytes32",
          "name": "role",
          "type": "bytes32"
        },
        {
          "indexed": true,
          "internalType": "address",
          "name": "account",
          "type": "address"
        },
        {
          "indexed": true,
          "internalType": "address",
          "name": "sender",
          "type": "address"
        }
      ],
      "name": "RoleGranted",
      "type": "event"
    },
    {
      "anonymous": false,
      "inputs": [
        {
          "indexed": true,
          "internalType": "bytes32",
          "name": "role",
          "type": "bytes32"
        },
        {
          "indexed": true,
          "internalType": "address",
          "name": "account",
          "type": "address"
        },
        {
          "indexed": true,
          "internalType": "address",
          "name": "sender",
          "type": "address"
        }
      ],
      "name": "RoleRevoked",
      "type": "event"
    },
    {
      "anonymous": false,
      "inputs": [
        {
          "indexed": false,
          "internalType": "address",
          "name": "oldTicketSVGRenderer",
          "type": "address"
        },
        {
          "indexed": false,
          "internalType": "address",
          "name": "newTicketSVGRenderer",
          "type": "address"
        }
      ],
      "name": "TicketSVGRendererUpdated",
      "type": "event"
    },
    {
      "anonymous": false,
      "inputs": [
        {
          "indexed": true,
          "internalType": "address",
          "name": "implementation",
          "type": "address"
        }
      ],
      "name": "Upgraded",
      "type": "event"
    },
    {
      "inputs": [],
      "name": "DEFAULT_ADMIN_ROLE",
      "outputs": [
        {
          "internalType": "bytes32",
          "name": "",
          "type": "bytes32"
        }
      ],
      "stateMutability": "view",
      "type": "function"
    },
    {
      "inputs": [],
      "name": "UPGRADE_INTERFACE_VERSION",
      "outputs": [
        {
          "internalType": "string",
          "name": "",
          "type": "string"
        }
      ],
      "stateMutability": "view",
      "type": "function"
    },
    {
      "inputs": [],
      "name": "computeNextAddress",
      "outputs": [
        {
          "internalType": "address",
          "name": "",
          "type": "address"
        }
      ],
      "stateMutability": "view",
      "type": "function"
    },
    {
      "inputs": [
        {
          "internalType": "string",
          "name": "name",
          "type": "string"
        },
        {
          "internalType": "string",
          "name": "symbol",
          "type": "string"
        },
        {
          "internalType": "uint8",
          "name": "numPicks",
          "type": "uint8"
        },
        {
          "internalType": "uint8",
          "name": "maxBallValue",
          "type": "uint8"
        },
        {
          "internalType": "uint256",
          "name": "gamePeriod",
          "type": "uint256"
        },
        {
          "internalType": "uint256",
          "name": "ticketPrice",
          "type": "uint256"
        },
        {
          "internalType": "uint256",
          "name": "communityFeeBps",
          "type": "uint256"
        },
        {
          "internalType": "address",
          "name": "prizeToken",
          "type": "address"
        },
        {
          "internalType": "uint256",
          "name": "seedJackpotDelay",
          "type": "uint256"
        },
        {
          "internalType": "uint256",
          "name": "seedJackpotMinValue",
          "type": "uint256"
        }
      ],
      "name": "create",
      "outputs": [
        {
          "internalType": "address",
          "name": "",
          "type": "address"
        }
      ],
      "stateMutability": "nonpayable",
      "type": "function"
    },
    {
      "inputs": [],
      "name": "getLooteryMasterCopy",
      "outputs": [
        {
          "internalType": "address",
          "name": "",
          "type": "address"
        }
      ],
      "stateMutability": "view",
      "type": "function"
    },
    {
      "inputs": [],
      "name": "getRandomiser",
      "outputs": [
        {
          "internalType": "address",
          "name": "",
          "type": "address"
        }
      ],
      "stateMutability": "view",
      "type": "function"
    },
    {
      "inputs": [
        {
          "internalType": "bytes32",
          "name": "role",
          "type": "bytes32"
        }
      ],
      "name": "getRoleAdmin",
      "outputs": [
        {
          "internalType": "bytes32",
          "name": "",
          "type": "bytes32"
        }
      ],
      "stateMutability": "view",
      "type": "function"
    },
    {
      "inputs": [],
      "name": "getTicketSVGRenderer",
      "outputs": [
        {
          "internalType": "address",
          "name": "",
          "type": "address"
        }
      ],
      "stateMutability": "view",
      "type": "function"
    },
    {
      "inputs": [
        {
          "internalType": "bytes32",
          "name": "role",
          "type": "bytes32"
        },
        {
          "internalType": "address",
          "name": "account",
          "type": "address"
        }
      ],
      "name": "grantRole",
      "outputs": [],
      "stateMutability": "nonpayable",
      "type": "function"
    },
    {
      "inputs": [
        {
          "internalType": "bytes32",
          "name": "role",
          "type": "bytes32"
        },
        {
          "internalType": "address",
          "name": "account",
          "type": "address"
        }
      ],
      "name": "hasRole",
      "outputs": [
        {
          "internalType": "bool",
          "name": "",
          "type": "bool"
        }
      ],
      "stateMutability": "view",
      "type": "function"
    },
    {
      "inputs": [
        {
          "internalType": "address",
          "name": "looteryMasterCopy",
          "type": "address"
        },
        {
          "internalType": "address",
          "name": "randomiser",
          "type": "address"
        },
        {
          "internalType": "address",
          "name": "ticketSVGRenderer",
          "type": "address"
        }
      ],
      "name": "init",
      "outputs": [],
      "stateMutability": "nonpayable",
      "type": "function"
    },
    {
      "inputs": [],
      "name": "proxiableUUID",
      "outputs": [
        {
          "internalType": "bytes32",
          "name": "",
          "type": "bytes32"
        }
      ],
      "stateMutability": "view",
      "type": "function"
    },
    {
      "inputs": [
        {
          "internalType": "bytes32",
          "name": "role",
          "type": "bytes32"
        },
        {
          "internalType": "address",
          "name": "callerConfirmation",
          "type": "address"
        }
      ],
      "name": "renounceRole",
      "outputs": [],
      "stateMutability": "nonpayable",
      "type": "function"
    },
    {
      "inputs": [
        {
          "internalType": "bytes32",
          "name": "role",
          "type": "bytes32"
        },
        {
          "internalType": "address",
          "name": "account",
          "type": "address"
        }
      ],
      "name": "revokeRole",
      "outputs": [],
      "stateMutability": "nonpayable",
      "type": "function"
    },
    {
      "inputs": [
        {
          "internalType": "address",
          "name": "looteryMasterCopy",
          "type": "address"
        }
      ],
      "name": "setLooteryMasterCopy",
      "outputs": [],
      "stateMutability": "nonpayable",
      "type": "function"
    },
    {
      "inputs": [
        {
          "internalType": "address",
          "name": "randomiser",
          "type": "address"
        }
      ],
      "name": "setRandomiser",
      "outputs": [],
      "stateMutability": "nonpayable",
      "type": "function"
    },
    {
      "inputs": [
        {
          "internalType": "address",
          "name": "ticketSVGRenderer",
          "type": "address"
        }
      ],
      "name": "setTicketSVGRenderer",
      "outputs": [],
      "stateMutability": "nonpayable",
      "type": "function"
    },
    {
      "inputs": [
        {
          "internalType": "bytes4",
          "name": "interfaceId",
          "type": "bytes4"
        }
      ],
      "name": "supportsInterface",
      "outputs": [
        {
          "internalType": "bool",
          "name": "",
          "type": "bool"
        }
      ],
      "stateMutability": "view",
      "type": "function"
    },
    {
      "inputs": [
        {
          "internalType": "address",
          "name": "newImplementation",
          "type": "address"
        },
        {
          "internalType": "bytes",
          "name": "data",
          "type": "bytes"
        }
      ],
      "name": "upgradeToAndCall",
      "outputs": [],
      "stateMutability": "payable",
      "type": "function"
    }
  ],
  "bytecode": "0x60a080604052346100cc57306080527ff0c57e16840df040f15088dc2f81fe391c3923bec73e23a9662efc9c229c6a009081549060ff8260401c166100bd57506001600160401b036002600160401b031982821601610078575b60405161158d90816100d282396080518181816108ff01526109ca0152f35b6001600160401b031990911681179091556040519081527fc7f505b2f371ae2175ee4913f4499e1f2633a7b5936321eed1cdaeb6115181d290602090a1388080610059565b63f92ee8a960e01b8152600490fd5b600080fdfe608080604052600436101561001357600080fd5b60003560e01c9081626195871461102a5750806301ffc9a714610f89578063184b955914610d97578063248a9ca314610d495780632f2ff15d14610ceb57806336568abe14610c8c57806338e56e7314610bf15780634f1ef2861461097957806352d1902d146108e457806375fea7241461089e5780638190ca02146104ad57806382250a431461041257806391d14854146103a5578063a217fddf14610389578063ad3cb1cc146102fe578063bd12bc24146102b8578063d1e3e04e1461021c578063d3984d83146101545763d547741f146100ef57600080fd5b3461014f57604036600319011261014f5761014d60043561010e611083565b90806000527f02dd7bc7dec4dceedda775e58dd541e08a116c6c53815c0bd028192f7b62680060205261014860016040600020015461132f565b611374565b005b600080fd5b3461014f57600036600319011261014f5760206101917fb673313ff65da5deee919e9043f9d191abd6721ce5d457fcf870135fe1bceb995461140a565b605560436001600160a01b0392837f15244694a038682b3dfdfc9a7b4d57f194bac87a538c298bbb15836f93f3d08e541690604051913060388401526f5af43d82803e903d91602b57fd5bf3ff60248401526014830152733d602d80600a3d3981f3363d3d373d3d3d363d73825260588201526037600c820120607882015201209060405191168152f35b3461014f57602036600319011261014f577ff115e1bf2769958fce47eddffee49c3a3332b6f314038f9ab1e4463f6f6d324861025661106d565b61025e6112be565b7f7fd620ff951c5553351af243f95586d6c40fbde77386fa401565df721194304b80546001600160a01b039283166001600160a01b031982168117909255604080519390911683526020830191909152819081015b0390a1005b3461014f57600036600319011261014f5760206001600160a01b037f15244694a038682b3dfdfc9a7b4d57f194bac87a538c298bbb15836f93f3d08e5416604051908152f35b3461014f57600036600319011261014f57604051604081019080821067ffffffffffffffff8311176103735761036f91604052600581527f352e302e30000000000000000000000000000000000000000000000000000000602082015260405191829160208352602083019061112c565b0390f35b634e487b7160e01b600052604160045260246000fd5b3461014f57600036600319011261014f57602060405160008152f35b3461014f57604036600319011261014f576103be611083565b6004356000527f02dd7bc7dec4dceedda775e58dd541e08a116c6c53815c0bd028192f7b6268006020526001600160a01b0360406000209116600052602052602060ff604060002054166040519015158152f35b3461014f57602036600319011261014f577f537abe8749664ed38251a8e0a613c8fce90a30cd2bf1004241325ba7ec2bf11d61044c61106d565b6104546112be565b7fd1c597752146589dde9c96027a1c6cda673d6fe5b448036a3b51eb9c108a913c80546001600160a01b039283166001600160a01b031982168117909255604080519390911683526020830191909152819081016102b3565b3461014f5761014036600319011261014f5760043567ffffffffffffffff811161014f576104df90369060040161110e565b60243567ffffffffffffffff811161014f576104ff90369060040161110e565b6044359060ff8216820361014f576064359260ff8416840361014f5760e435926001600160a01b038416840361014f577fb673313ff65da5deee919e9043f9d191abd6721ce5d457fcf870135fe1bceb99805460001981146108885761056a9160018201905561140a565b926001600160a01b037f15244694a038682b3dfdfc9a7b4d57f194bac87a538c298bbb15836f93f3d08e5494763d602d80600a3d3981f3363d3d373d3d3d363d7300000062ffffff8760881c16176000526e5af43d82803e903d91602b57fd5bf36effffffffffffffffffffffffffffff198760781b1617602052603760096000f51694851561085e576001600160a01b037f7fd620ff951c5553351af243f95586d6c40fbde77386fa401565df721194304b54166001600160a01b037fd1c597752146589dde9c96027a1c6cda673d6fe5b448036a3b51eb9c108a913c54169360405198896101a081011067ffffffffffffffff6101a08c0111176103735760ff80926001600160a01b03968960208e6101a08101604052338152015260408d01521660608b015216608089015260843560a089015260a43560c089015260c43560e0890152610100880152166101208601526101043561014086015261012435610160860152610180850152823b1561014f5760006040518080967facef672b000000000000000000000000000000000000000000000000000000008252602060048301526001600160a01b0381511660248301526001600160a01b0361018061076061074a60208501516101a060448801526101c487019061112c565b604085015186820360231901606488015261112c565b9260ff606082015116608486015260ff60808201511660a486015260a081015160c486015260c081015160e486015260e0810151610104860152826101008201511661012486015282610120820151166101448601526101408101516101648601526101608101516101848601520151166101a4830152038183875af1801561085257610838575b60209350827fd22adf12af1045715ab78a4d25c7ac99005301d0fc1895274a7172d018715de86040518681528061082d6001600160a01b03339716958983019061112c565b0390a4604051908152f35b67ffffffffffffffff8411610373576020936040526107e8565b6040513d6000823e3d90fd5b60046040517fc2f868f4000000000000000000000000000000000000000000000000000000008152fd5b634e487b7160e01b600052601160045260246000fd5b3461014f57600036600319011261014f5760206001600160a01b037f7fd620ff951c5553351af243f95586d6c40fbde77386fa401565df721194304b5416604051908152f35b3461014f57600036600319011261014f576001600160a01b037f000000000000000000000000000000000000000000000000000000000000000016300361094f5760206040517f360894a13ba1a3210667c828492db98dca3e2076cc3735a920a3ca505d382bbc8152f35b60046040517fe07c8dba000000000000000000000000000000000000000000000000000000008152fd5b604036600319011261014f5761098d61106d565b60243567ffffffffffffffff811161014f573660238201121561014f576109be9036906024816004013591016110d7565b906001600160a01b03807f000000000000000000000000000000000000000000000000000000000000000016803014908115610bc3575b5061094f57610a026112be565b811690604051907f52d1902d0000000000000000000000000000000000000000000000000000000082526020918281600481875afa60009181610b94575b50610a5d5760248460405190634c9c8ce360e01b82526004820152fd5b9284937f360894a13ba1a3210667c828492db98dca3e2076cc3735a920a3ca505d382bbc90818103610b635750823b15610b4b57816001600160a01b0319825416179055604051907fbc7cd75a20ee27fd9adebab32041f755214dbc6bffa90cc0225b39da2e5c2d3b600080a2835115610b185750600080848461014d96519101845af4903d15610b0f573d610af2816110bb565b90610b006040519283611099565b8152600081943d92013e6114c4565b606092506114c4565b9250505034610b2357005b807fb398979f0000000000000000000000000000000000000000000000000000000060049252fd5b60248260405190634c9c8ce360e01b82526004820152fd5b602490604051907faa1d49a40000000000000000000000000000000000000000000000000000000082526004820152fd5b9091508381813d8311610bbc575b610bac8183611099565b8101031261014f57519086610a40565b503d610ba2565b9050817f360894a13ba1a3210667c828492db98dca3e2076cc3735a920a3ca505d382bbc54161415846109f5565b3461014f57602036600319011261014f577f6a193348e7282d848a81bda03da86488d12215ae2b212ff975fd1e3e954522ab610c2b61106d565b610c336112be565b7f15244694a038682b3dfdfc9a7b4d57f194bac87a538c298bbb15836f93f3d08e80546001600160a01b039283166001600160a01b031982168117909255604080519390911683526020830191909152819081016102b3565b3461014f57604036600319011261014f57610ca5611083565b336001600160a01b03821603610cc15761014d90600435611374565b60046040517f6697b232000000000000000000000000000000000000000000000000000000008152fd5b3461014f57604036600319011261014f5761014d600435610d0a611083565b90806000527f02dd7bc7dec4dceedda775e58dd541e08a116c6c53815c0bd028192f7b626800602052610d4460016040600020015461132f565b61121e565b3461014f57602036600319011261014f576004356000527f02dd7bc7dec4dceedda775e58dd541e08a116c6c53815c0bd028192f7b6268006020526020600160406000200154604051908152f35b3461014f57606036600319011261014f57610db061106d565b610db8611083565b90604435906001600160a01b039182811680910361014f577ff0c57e16840df040f15088dc2f81fe391c3923bec73e23a9662efc9c229c6a009384549360ff8560401c16159467ffffffffffffffff811680159081610f81575b6001149081610f77575b159081610f6e575b50610f445767ffffffffffffffff198116600117875585610f25575b50610e4961146b565b610e5161146b565b6001600160a01b031993817f15244694a038682b3dfdfc9a7b4d57f194bac87a538c298bbb15836f93f3d08e9116858254161790557f7fd620ff951c5553351af243f95586d6c40fbde77386fa401565df721194304b9116838254161790557fd1c597752146589dde9c96027a1c6cda673d6fe5b448036a3b51eb9c108a913c91825416179055610ee13361116c565b50610ee857005b68ff00000000000000001981541690557fc7f505b2f371ae2175ee4913f4499e1f2633a7b5936321eed1cdaeb6115181d2602060405160018152a1005b68ffffffffffffffffff19166801000000000000000117865586610e40565b60046040517ff92ee8a9000000000000000000000000000000000000000000000000000000008152fd5b90501588610e24565b303b159150610e1c565b879150610e12565b3461014f57602036600319011261014f576004357fffffffff00000000000000000000000000000000000000000000000000000000811680910361014f57807f7965db0b0000000000000000000000000000000000000000000000000000000060209214908115611000575b506040519015158152f35b7f01ffc9a70000000000000000000000000000000000000000000000000000000091501482610ff5565b3461014f57600036600319011261014f576020906001600160a01b037fd1c597752146589dde9c96027a1c6cda673d6fe5b448036a3b51eb9c108a913c54168152f35b600435906001600160a01b038216820361014f57565b602435906001600160a01b038216820361014f57565b90601f8019910116810190811067ffffffffffffffff82111761037357604052565b67ffffffffffffffff811161037357601f01601f191660200190565b9291926110e3826110bb565b916110f16040519384611099565b82948184528183011161014f578281602093846000960137010152565b9080601f8301121561014f57816020611129933591016110d7565b90565b919082519283825260005b848110611158575050826000602080949584010152601f8019910116010190565b602081830181015184830182015201611137565b6001600160a01b031660008181527fb7db2dd08fcb62d0c9e08c51941cae53c267786a0b75803fb7960902fc8ef97d60205260408120549091907f02dd7bc7dec4dceedda775e58dd541e08a116c6c53815c0bd028192f7b6268009060ff16611219578280526020526040822081835260205260408220600160ff1982541617905533917f2f8788117e7eff1d82e926ec794901d17c78024a50270940304540a733656f0d8180a4600190565b505090565b906000918083527f02dd7bc7dec4dceedda775e58dd541e08a116c6c53815c0bd028192f7b626800806020526001600160a01b036040852093169283855260205260ff604085205416156000146112b8578184526020526040832082845260205260408320600160ff198254161790557f2f8788117e7eff1d82e926ec794901d17c78024a50270940304540a733656f0d339380a4600190565b50505090565b3360009081527fb7db2dd08fcb62d0c9e08c51941cae53c267786a0b75803fb7960902fc8ef97d602052604081205460ff16156112f85750565b604490604051907fe2517d3f0000000000000000000000000000000000000000000000000000000082523360048301526024820152fd5b806000527f02dd7bc7dec4dceedda775e58dd541e08a116c6c53815c0bd028192f7b62680060205260406000203360005260205260ff60406000205416156112f85750565b906000918083527f02dd7bc7dec4dceedda775e58dd541e08a116c6c53815c0bd028192f7b626800806020526001600160a01b036040852093169283855260205260ff6040852054166000146112b857818452602052604083208284526020526040832060ff1981541690557ff6391f5c32d9c69d2a47ea670b442974b53935d1edc7fd64eb21e047a839171b339380a4600190565b60405160208101918252604080820152600760608201527f6c6f6f746572790000000000000000000000000000000000000000000000000060808201526080815260a0810181811067ffffffffffffffff8211176103735760405251902090565b60ff7ff0c57e16840df040f15088dc2f81fe391c3923bec73e23a9662efc9c229c6a005460401c161561149a57565b60046040517fd7e6bcf8000000000000000000000000000000000000000000000000000000008152fd5b9061150357508051156114d957805190602001fd5b60046040517f1425ea42000000000000000000000000000000000000000000000000000000008152fd5b8151158061154e575b611514575090565b6024906001600160a01b03604051917f9996b315000000000000000000000000000000000000000000000000000000008352166004820152fd5b50803b1561150c56fea2646970667358221220ece40e2c4792374f10d3b4a71f52c482d54370a9d683f0460c0f54eb289e4f0e64736f6c63430008170033",
  "linkReferences": {},
  "deployedLinkReferences": {}
}