{
  "_format": "hh-sol-artifact-1",
  "contractName": "TicketSVGRenderer",
  "sourceName": "contracts/periphery/TicketSVGRenderer.sol",
  "abi": [
    {
      "inputs": [],
      "name": "EmptyPicks",
      "type": "error"
    },
    {
      "inputs": [
        {
          "internalType": "uint8",
          "name": "pick",
          "type": "uint8"
        },
        {
          "internalType": "uint8",
          "name": "maxPick",
          "type": "uint8"
        }
      ],
      "name": "OutOfRange",
      "type": "error"
    },
    {
      "inputs": [
        {
          "internalType": "uint8[]",
          "name": "picks",
          "type": "uint8[]"
        }
      ],
      "name": "UnsortedPicks",
      "type": "error"
    },
    {
      "inputs": [
        {
          "internalType": "string",
          "name": "name",
          "type": "string"
        },
        {
          "internalType": "uint8",
          "name": "maxPick",
          "type": "uint8"
        },
        {
          "internalType": "uint8[]",
          "name": "picks",
          "type": "uint8[]"
        }
      ],
      "name": "renderSVG",
      "outputs": [
        {
          "internalType": "string",
          "name": "",
          "type": "string"
        }
      ],
      "stateMutability": "pure",
      "type": "function"
    },
    {
      "inputs": [
        {
          "internalType": "string",
          "name": "name",
          "type": "string"
        },
        {
          "internalType": "uint256",
          "name": "tokenId",
          "type": "uint256"
        },
        {
          "internalType": "uint8",
          "name": "maxPick",
          "type": "uint8"
        },
        {
          "internalType": "uint8[]",
          "name": "picks",
          "type": "uint8[]"
        }
      ],
      "name": "renderTokenURI",
      "outputs": [
        {
          "internalType": "string",
          "name": "",
          "type": "string"
        }
      ],
      "stateMutability": "pure",
      "type": "function"
    },
    {
      "inputs": [
        {
          "internalType": "bytes4",
          "name": "interfaceId",
          "type": "bytes4"
        }
      ],
      "name": "supportsInterface",
      "outputs": [
        {
          "internalType": "bool",
          "name": "",
          "type": "bool"
        }
      ],
      "stateMutability": "view",
      "type": "function"
    }
  ],
  "bytecode": "0x60808060405234610016576110cf908161001c8239f35b600080fdfe6080806040526004908136101561001557600080fd5b600090813560e01c90816301ffc9a7146102cf575080636de31974146100bf5763eb1c09201461004457600080fd5b346100b85760603660031901126100b85767ffffffffffffffff9180358381116100bb576100759036908301610416565b926024359260ff841684036100b8576044359182116100b8576100b46100a886866100a236878901610462565b9161057f565b604051918291826104f9565b0390f35b80fd5b8280fd5b50346100b85760803660031901126100b85767ffffffffffffffff9180358381116100bb576100f19036908301610416565b926044359260ff841684036100b8576064359182116100b8576100b46102bf6100a8603d88610285896101466048600961014b6101466101348f8f369101610462565b61013f602435610ddf565b968961057f565b610f30565b9360296040519586926020997f7b226e616d65223a2200000000000000000000000000000000000000000000008b86015261018e815180928d87890191016104d6565b84017f205469636b657420230000000000000000000000000000000000000000000000848201526101c8825180938d6032850191016104d6565b017f222c20226465736372697074696f6e223a22504f57455242414c44204c4f4c2260328201527f2c2022696d616765223a2022000000000000000000000000000000000000000060528201527f646174613a696d6167652f7376672b786d6c3b6261736536342c000000000000605e82015261024e825180938c6078850191016104d6565b01017f227d000000000000000000000000000000000000000000000000000000000000604f820152030160288101845201826103d8565b60405194827f646174613a6170706c69636174696f6e2f6a736f6e3b6261736536342c0000008794850152825192839186860191016104d6565b810103601d8101845201826103d8565b905082346100bb5760203660031901126100bb57357fffffffff0000000000000000000000000000000000000000000000000000000081168091036100bb57602092507f86ff1054000000000000000000000000000000000000000000000000000000008114908115610344575b5015158152f35b7f01ffc9a7000000000000000000000000000000000000000000000000000000009150148361033d565b6040810190811067ffffffffffffffff82111761038a57604052565b634e487b7160e01b600052604160045260246000fd5b6020810190811067ffffffffffffffff82111761038a57604052565b6060810190811067ffffffffffffffff82111761038a57604052565b90601f8019910116810190811067ffffffffffffffff82111761038a57604052565b67ffffffffffffffff811161038a57601f01601f191660200190565b81601f8201121561045d5780359061042d826103fa565b9261043b60405194856103d8565b8284526020838301011161045d57816000926020809301838601378301015290565b600080fd5b81601f8201121561045d5780359160209167ffffffffffffffff841161038a578360051b9060405194610497858401876103d8565b8552838086019282010192831161045d578301905b8282106104ba575050505090565b8135600060ff821682036100b8575081529083019083016104ac565b60005b8381106104e95750506000910152565b81810151838201526020016104d9565b6040916020825261051981518092816020860152602086860191016104d6565b601f01601f1916010190565b8051156105325760200190565b634e487b7160e01b600052603260045260246000fd5b80518210156105325760209160051b010190565b9190820180921161056957565b634e487b7160e01b600052601160045260246000fd5b91805115610d835760ff61059282610525565b511660ff831610610d78576001815111610c45575b600560ff831606610c39576105c760ff60005b16600560ff85160461055c565b606092909160009182604b5b8585106108c457505050505060268102908082046026149015171561056957604b019182604b116105695761060783610ddf565b926040519260209284848101967f3c73766720786d6c6e733d27687474703a2f2f7777772e77332e6f72672f32308852604082017f30302f737667272076657273696f6e3d27312e31272077696474683d273330309052606082017f27206865696768743d270000000000000000000000000000000000000000000090528051908187606a850192019161069a926104d6565b8101606a81017f273e000000000000000000000000000000000000000000000000000000000000905203604c81018652606c016106d790866103d8565b604051916106e48361036e565b60068352848301937f3c2f7376673e0000000000000000000000000000000000000000000000000000855261071890610ddf565b91604051918291878301947f3c726563742077696474683d2733303027206865696768743d270000000000008652805190818a603a870192019161075b926104d6565b7f272066696c6c3d27776869746527207374726f6b653d27626c61636b27202f3e603a918501918201527f3c7465787420783d273135302720793d2733302720746578742d616e63686f72605a8201527f3d276d6964646c652720666f6e742d66616d696c793d27417269616c2720666f607a8201527f6e742d73697a653d2732302720666f6e742d7765696768743d27626f6c642720609a8201527f66696c6c3d27626c61636b273e0000000000000000000000000000000000000060ba82015281519161083290839060c78401908c016104d6565b0160c78101661e17ba32bc3a1f60c91b9052815191828960ce8401920191610859926104d6565b01603a0103608d016018198101825260070161087590826103d8565b60405196879651908187890161088a926104d6565b86019051918286830161089c926104d6565b01905191828483016108ad926104d6565b010103601f19810182526108c190826103d8565b90565b601e85600581020460051486151715610569576005808702018060058802116105695760ff85161015610c325760ff600581861606165b6000905b80821061091f5750505060268101809111610569576001909401936105d3565b90919887600581020460051488151715610569576109408360058a0261055c565b90600182018211610569578751861080610c19575b610ae4575b60148b01808c116105695760057f2720793d27000000000000000000000000000000000000000000000000000000600988956109d4610aad610ace976109b660016109af6109a9604e9b610ddf565b9c610ddf565b9501610ddf565b936040519a8b978893602096879582878094519485930191016104d6565b8901917f3c7465787420783d27000000000000000000000000000000000000000000000085840152602992610a11825180938887850191016104d6565b0191820152610a298251809385602e850191016104d6565b0101917f2720746578742d616e63686f723d276d6964646c652720666f6e742d66616d69600e8401527f6c793d27417269616c2720666f6e742d73697a653d273136272066696c6c3d27602e8401527f626c61636b273e000000000000000000000000000000000000000000000000008884015283519384916055850191016104d6565b0101661e17ba32bc3a1f60c91b604c8201520301602e8101845201826103d8565b98603281018091116105695791600101906108ff565b94600181018111610569576001019460148b01808c1161056957610b0790610ddf565b60051986019086821161056957600c602a91610b25610c1494610ddf565b946040519586927f272063793d270000000000000000000000000000000000000000000000000000602093610b628151809287808a0191016104d6565b8501917f3c636972636c652063783d27000000000000000000000000000000000000000085840152602c92610b9f825180938887850191016104d6565b0191820152610bb782518093856032850191016104d6565b01017f2720723d27313527207374726f6b653d27726564272066696c6c3d276e6f6e6560128201527f27202f3e0000000000000000000000000000000000000000000000000000000060328201520301600a8101845201826103d8565b61095a565b506001820160ff610c2a888b610548565b511614610955565b60056108fb565b6105c760ff60016105ba565b909260015b8251811015610d70576000198101818111610d5b57610c6b60ff9185610548565b511660ff610c798386610548565b51161115610cec5760ff851660ff610c918386610548565b511611610ca057600101610c4a565b60ff610cad869285610548565b516040517e2dd36d00000000000000000000000000000000000000000000000000000000815260ff929091168216600482015291166024820152604490fd5b8260405180917f4663ee2b000000000000000000000000000000000000000000000000000000008252602482016020908160048501528251809152816044850193019160005b828110610d4157505050500390fd5b835160ff1685528695509381019392810192600101610d32565b60246000634e487b7160e01b81526011600452fd5b5092906105a7565b610cad60ff91610525565b60046040517f1e8f083f000000000000000000000000000000000000000000000000000000008152fd5b90610db7826103fa565b610dc460405191826103d8565b8281528092610dd5601f19916103fa565b0190602036910137565b806000917a184f03e93ff9f4daa797ed6e38ed64bf6a1f01000000000000000080821015610f22575b506d04ee2d6d415b85acef810000000080831015610f13575b50662386f26fc1000080831015610f04575b506305f5e10080831015610ef5575b5061271080831015610ee6575b506064821015610ed6575b600a80921015610ecc575b600190816021610e7760018701610dad565b95860101905b610e89575b5050505090565b600019019083907f30313233343536373839616263646566000000000000000000000000000000008282061a835304918215610ec757919082610e7d565b610e82565b9160010191610e65565b9190606460029104910191610e5a565b60049193920491019138610e4f565b60089193920491019138610e42565b60109193920491019138610e33565b60209193920491019138610e21565b604093508104915038610e08565b80511561108557604051610f43816103bc565b604081527f4142434445464748494a4b4c4d4e4f505152535455565758595a61626364656660208201527f6768696a6b6c6d6e6f707172737475767778797a303132333435363738392b2f6040820152815191600292600281018091116105695760038091047f3fffffffffffffffffffffffffffffffffffffffffffffffffffffffffffffff8116810361056957610fe2906002959492951b610dad565b936020850193839284518501935b84811061103257505050505060039051068060011461101f57600214611014575090565b603d90600019015390565b50603d9081600019820153600119015390565b8360049197929394959701918251600190603f9082828260121c16880101518453828282600c1c16880101518385015382828260061c168801015188850153168501015186820153019593929190610ff0565b50604051611092816103a0565b600081529056fea2646970667358221220f17287ac55d70445e191d051319b6bcb363fb7723490f4e5ab8d50aaa144d66164736f6c63430008170033",
  "linkReferences": {},
  "deployedLinkReferences": {}
}